{
  "_format": "hh-sol-artifact-1",
  "contractName": "ProtectedPay",
  "sourceName": "contracts/ProtectedPay.sol",
  "abi": [
    {
      "anonymous": false,
      "inputs": [
        {
          "indexed": true,
          "internalType": "bytes32",
          "name": "paymentId",
          "type": "bytes32"
        },
        {
          "indexed": true,
          "internalType": "address",
          "name": "recipient",
          "type": "address"
        },
        {
          "indexed": false,
          "internalType": "uint256",
          "name": "amount",
          "type": "uint256"
        }
      ],
      "name": "GroupPaymentCompleted",
      "type": "event"
    },
    {
      "anonymous": false,
      "inputs": [
        {
          "indexed": true,
          "internalType": "bytes32",
          "name": "paymentId",
          "type": "bytes32"
        },
        {
          "indexed": true,
          "internalType": "address",
          "name": "contributor",
          "type": "address"
        },
        {
          "indexed": false,
          "internalType": "uint256",
          "name": "amount",
          "type": "uint256"
        }
      ],
      "name": "GroupPaymentContributed",
      "type": "event"
    },
    {
      "anonymous": false,
      "inputs": [
        {
          "indexed": true,
          "internalType": "bytes32",
          "name": "paymentId",
          "type": "bytes32"
        },
        {
          "indexed": true,
          "internalType": "address",
          "name": "creator",
          "type": "address"
        },
        {
          "indexed": false,
          "internalType": "address",
          "name": "recipient",
          "type": "address"
        },
        {
          "indexed": false,
          "internalType": "uint256",
          "name": "totalAmount",
          "type": "uint256"
        },
        {
          "indexed": false,
          "internalType": "uint256",
          "name": "numParticipants",
          "type": "uint256"
        },
        {
          "indexed": false,
          "internalType": "string",
          "name": "remarks",
          "type": "string"
        }
      ],
      "name": "GroupPaymentCreated",
      "type": "event"
    },
    {
      "anonymous": false,
      "inputs": [
        {
          "indexed": true,
          "internalType": "bytes32",
          "name": "potId",
          "type": "bytes32"
        },
        {
          "indexed": true,
          "internalType": "address",
          "name": "owner",
          "type": "address"
        },
        {
          "indexed": false,
          "internalType": "uint256",
          "name": "amount",
          "type": "uint256"
        }
      ],
      "name": "PotBroken",
      "type": "event"
    },
    {
      "anonymous": false,
      "inputs": [
        {
          "indexed": true,
          "internalType": "bytes32",
          "name": "potId",
          "type": "bytes32"
        },
        {
          "indexed": true,
          "internalType": "address",
          "name": "contributor",
          "type": "address"
        },
        {
          "indexed": false,
          "internalType": "uint256",
          "name": "amount",
          "type": "uint256"
        }
      ],
      "name": "PotContribution",
      "type": "event"
    },
    {
      "anonymous": false,
      "inputs": [
        {
          "indexed": true,
          "internalType": "bytes32",
          "name": "potId",
          "type": "bytes32"
        },
        {
          "indexed": true,
          "internalType": "address",
          "name": "owner",
          "type": "address"
        },
        {
          "indexed": false,
          "internalType": "string",
          "name": "name",
          "type": "string"
        },
        {
          "indexed": false,
          "internalType": "uint256",
          "name": "targetAmount",
          "type": "uint256"
        },
        {
          "indexed": false,
          "internalType": "string",
          "name": "remarks",
          "type": "string"
        }
      ],
      "name": "SavingsPotCreated",
      "type": "event"
    },
    {
      "anonymous": false,
      "inputs": [
        {
          "indexed": true,
          "internalType": "bytes32",
          "name": "transferId",
          "type": "bytes32"
        },
        {
          "indexed": true,
          "internalType": "address",
          "name": "recipient",
          "type": "address"
        },
        {
          "indexed": false,
          "internalType": "uint256",
          "name": "amount",
          "type": "uint256"
        }
      ],
      "name": "TransferClaimed",
      "type": "event"
    },
    {
      "anonymous": false,
      "inputs": [
        {
          "indexed": true,
          "internalType": "bytes32",
          "name": "transferId",
          "type": "bytes32"
        },
        {
          "indexed": true,
          "internalType": "address",
          "name": "sender",
          "type": "address"
        },
        {
          "indexed": true,
          "internalType": "address",
          "name": "recipient",
          "type": "address"
        },
        {
          "indexed": false,
          "internalType": "uint256",
          "name": "amount",
          "type": "uint256"
        },
        {
          "indexed": false,
          "internalType": "string",
          "name": "remarks",
          "type": "string"
        }
      ],
      "name": "TransferInitiated",
      "type": "event"
    },
    {
      "anonymous": false,
      "inputs": [
        {
          "indexed": true,
          "internalType": "bytes32",
          "name": "transferId",
          "type": "bytes32"
        },
        {
          "indexed": true,
          "internalType": "address",
          "name": "sender",
          "type": "address"
        },
        {
          "indexed": false,
          "internalType": "uint256",
          "name": "amount",
          "type": "uint256"
        }
      ],
      "name": "TransferRefunded",
      "type": "event"
    },
    {
      "anonymous": false,
      "inputs": [
        {
          "indexed": true,
          "internalType": "address",
          "name": "userAddress",
          "type": "address"
        },
        {
          "indexed": false,
          "internalType": "string",
          "name": "username",
          "type": "string"
        }
      ],
      "name": "UserRegistered",
      "type": "event"
    },
    {
      "inputs": [
        {
          "internalType": "bytes32",
          "name": "id",
          "type": "bytes32"
        }
      ],
      "name": "breakPot",
      "outputs": [],
      "stateMutability": "nonpayable",
      "type": "function"
    },
    {
      "inputs": [
        {
          "internalType": "address",
          "name": "s",
          "type": "address"
        }
      ],
      "name": "claimTransferByAddress",
      "outputs": [],
      "stateMutability": "nonpayable",
      "type": "function"
    },
    {
      "inputs": [
        {
          "internalType": "bytes32",
          "name": "id",
          "type": "bytes32"
        }
      ],
      "name": "claimTransferById",
      "outputs": [],
      "stateMutability": "nonpayable",
      "type": "function"
    },
    {
      "inputs": [
        {
          "internalType": "string",
          "name": "su",
          "type": "string"
        }
      ],
      "name": "claimTransferByUsername",
      "outputs": [],
      "stateMutability": "nonpayable",
      "type": "function"
    },
    {
      "inputs": [
        {
          "internalType": "bytes32",
          "name": "id",
          "type": "bytes32"
        }
      ],
      "name": "contributeToGroupPayment",
      "outputs": [],
      "stateMutability": "payable",
      "type": "function"
    },
    {
      "inputs": [
        {
          "internalType": "bytes32",
          "name": "id",
          "type": "bytes32"
        }
      ],
      "name": "contributeToSavingsPot",
      "outputs": [],
      "stateMutability": "payable",
      "type": "function"
    },
    {
      "inputs": [
        {
          "internalType": "address",
          "name": "r",
          "type": "address"
        },
        {
          "internalType": "uint256",
          "name": "n",
          "type": "uint256"
        },
        {
          "internalType": "string",
          "name": "rem",
          "type": "string"
        }
      ],
      "name": "createGroupPayment",
      "outputs": [],
      "stateMutability": "payable",
      "type": "function"
    },
    {
      "inputs": [
        {
          "internalType": "string",
          "name": "name",
          "type": "string"
        },
        {
          "internalType": "uint256",
          "name": "target",
          "type": "uint256"
        },
        {
          "internalType": "string",
          "name": "rem",
          "type": "string"
        }
      ],
      "name": "createSavingsPot",
      "outputs": [
        {
          "internalType": "bytes32",
          "name": "",
          "type": "bytes32"
        }
      ],
      "stateMutability": "nonpayable",
      "type": "function"
    },
    {
      "inputs": [
        {
          "internalType": "bytes32",
          "name": "id",
          "type": "bytes32"
        },
        {
          "internalType": "address",
          "name": "u",
          "type": "address"
        }
      ],
      "name": "getGroupPaymentContribution",
      "outputs": [
        {
          "internalType": "uint256",
          "name": "",
          "type": "uint256"
        }
      ],
      "stateMutability": "view",
      "type": "function"
    },
    {
      "inputs": [
        {
          "internalType": "bytes32",
          "name": "id",
          "type": "bytes32"
        }
      ],
      "name": "getGroupPaymentDetails",
      "outputs": [
        {
          "internalType": "address",
          "name": "",
          "type": "address"
        },
        {
          "internalType": "address",
          "name": "",
          "type": "address"
        },
        {
          "internalType": "uint256",
          "name": "",
          "type": "uint256"
        },
        {
          "internalType": "uint256",
          "name": "",
          "type": "uint256"
        },
        {
          "internalType": "uint256",
          "name": "",
          "type": "uint256"
        },
        {
          "internalType": "uint256",
          "name": "",
          "type": "uint256"
        },
        {
          "internalType": "uint256",
          "name": "",
          "type": "uint256"
        },
        {
          "internalType": "enum ProtectedPay.GroupPaymentStatus",
          "name": "",
          "type": "uint8"
        },
        {
          "internalType": "string",
          "name": "",
          "type": "string"
        }
      ],
      "stateMutability": "view",
      "type": "function"
    },
    {
      "inputs": [
        {
          "internalType": "address",
          "name": "s",
          "type": "address"
        }
      ],
      "name": "getPendingTransfers",
      "outputs": [
        {
          "internalType": "bytes32[]",
          "name": "",
          "type": "bytes32[]"
        }
      ],
      "stateMutability": "view",
      "type": "function"
    },
    {
      "inputs": [
        {
          "internalType": "bytes32",
          "name": "id",
          "type": "bytes32"
        }
      ],
      "name": "getSavingsPotDetails",
      "outputs": [
        {
          "internalType": "address",
          "name": "",
          "type": "address"
        },
        {
          "internalType": "string",
          "name": "",
          "type": "string"
        },
        {
          "internalType": "uint256",
          "name": "",
          "type": "uint256"
        },
        {
          "internalType": "uint256",
          "name": "",
          "type": "uint256"
        },
        {
          "internalType": "uint256",
          "name": "",
          "type": "uint256"
        },
        {
          "internalType": "enum ProtectedPay.PotStatus",
          "name": "",
          "type": "uint8"
        },
        {
          "internalType": "string",
          "name": "",
          "type": "string"
        }
      ],
      "stateMutability": "view",
      "type": "function"
    },
    {
      "inputs": [
        {
          "internalType": "bytes32",
          "name": "id",
          "type": "bytes32"
        }
      ],
      "name": "getTransferDetails",
      "outputs": [
        {
          "internalType": "address",
          "name": "",
          "type": "address"
        },
        {
          "internalType": "address",
          "name": "",
          "type": "address"
        },
        {
          "internalType": "uint256",
          "name": "",
          "type": "uint256"
        },
        {
          "internalType": "uint256",
          "name": "",
          "type": "uint256"
        },
        {
          "internalType": "enum ProtectedPay.TransferStatus",
          "name": "",
          "type": "uint8"
        },
        {
          "internalType": "string",
          "name": "",
          "type": "string"
        }
      ],
      "stateMutability": "view",
      "type": "function"
    },
    {
      "inputs": [
        {
          "internalType": "address",
          "name": "a",
          "type": "address"
        }
      ],
      "name": "getUserByAddress",
      "outputs": [
        {
          "internalType": "string",
          "name": "",
          "type": "string"
        }
      ],
      "stateMutability": "view",
      "type": "function"
    },
    {
      "inputs": [
        {
          "internalType": "string",
          "name": "u",
          "type": "string"
        }
      ],
      "name": "getUserByUsername",
      "outputs": [
        {
          "internalType": "address",
          "name": "",
          "type": "address"
        }
      ],
      "stateMutability": "view",
      "type": "function"
    },
    {
      "inputs": [
        {
          "internalType": "address",
          "name": "u",
          "type": "address"
        }
      ],
      "name": "getUserProfile",
      "outputs": [
        {
          "internalType": "string",
          "name": "",
          "type": "string"
        },
        {
          "internalType": "bytes32[]",
          "name": "",
          "type": "bytes32[]"
        },
        {
          "internalType": "bytes32[]",
          "name": "",
          "type": "bytes32[]"
        },
        {
          "internalType": "bytes32[]",
          "name": "",
          "type": "bytes32[]"
        },
        {
          "internalType": "bytes32[]",
          "name": "",
          "type": "bytes32[]"
        }
      ],
      "stateMutability": "view",
      "type": "function"
    },
    {
      "inputs": [
        {
          "internalType": "address",
          "name": "u",
          "type": "address"
        }
      ],
      "name": "getUserTransfers",
      "outputs": [
        {
          "components": [
            {
              "internalType": "address",
              "name": "sender",
              "type": "address"
            },
            {
              "internalType": "address",
              "name": "recipient",
              "type": "address"
            },
            {
              "internalType": "uint256",
              "name": "amount",
              "type": "uint256"
            },
            {
              "internalType": "uint256",
              "name": "timestamp",
              "type": "uint256"
            },
            {
              "internalType": "enum ProtectedPay.TransferStatus",
              "name": "status",
              "type": "uint8"
            },
            {
              "internalType": "string",
              "name": "remarks",
              "type": "string"
            }
          ],
          "internalType": "struct ProtectedPay.Transfer[]",
          "name": "",
          "type": "tuple[]"
        }
      ],
      "stateMutability": "view",
      "type": "function"
    },
    {
      "inputs": [
        {
          "internalType": "bytes32",
          "name": "",
          "type": "bytes32"
        },
        {
          "internalType": "address",
          "name": "",
          "type": "address"
        }
      ],
      "name": "groupPaymentContributions",
      "outputs": [
        {
          "internalType": "uint256",
          "name": "",
          "type": "uint256"
        }
      ],
      "stateMutability": "view",
      "type": "function"
    },
    {
      "inputs": [
        {
          "internalType": "bytes32",
          "name": "",
          "type": "bytes32"
        }
      ],
      "name": "groupPayments",
      "outputs": [
        {
          "internalType": "bytes32",
          "name": "paymentId",
          "type": "bytes32"
        },
        {
          "internalType": "address",
          "name": "creator",
          "type": "address"
        },
        {
          "internalType": "address",
          "name": "recipient",
          "type": "address"
        },
        {
          "internalType": "uint256",
          "name": "totalAmount",
          "type": "uint256"
        },
        {
          "internalType": "uint256",
          "name": "amountPerPerson",
          "type": "uint256"
        },
        {
          "internalType": "uint256",
          "name": "numParticipants",
          "type": "uint256"
        },
        {
          "internalType": "uint256",
          "name": "amountCollected",
          "type": "uint256"
        },
        {
          "internalType": "uint256",
          "name": "timestamp",
          "type": "uint256"
        },
        {
          "internalType": "string",
          "name": "remarks",
          "type": "string"
        },
        {
          "internalType": "enum ProtectedPay.GroupPaymentStatus",
          "name": "status",
          "type": "uint8"
        }
      ],
      "stateMutability": "view",
      "type": "function"
    },
    {
      "inputs": [
        {
          "internalType": "bytes32",
          "name": "id",
          "type": "bytes32"
        },
        {
          "internalType": "address",
          "name": "u",
          "type": "address"
        }
      ],
      "name": "hasContributedToGroupPayment",
      "outputs": [
        {
          "internalType": "bool",
          "name": "",
          "type": "bool"
        }
      ],
      "stateMutability": "view",
      "type": "function"
    },
    {
      "inputs": [
        {
          "internalType": "address",
          "name": "",
          "type": "address"
        },
        {
          "internalType": "uint256",
          "name": "",
          "type": "uint256"
        }
      ],
      "name": "pendingTransfersBySender",
      "outputs": [
        {
          "internalType": "bytes32",
          "name": "",
          "type": "bytes32"
        }
      ],
      "stateMutability": "view",
      "type": "function"
    },
    {
      "inputs": [
        {
          "internalType": "bytes32",
          "name": "id",
          "type": "bytes32"
        }
      ],
      "name": "refundTransfer",
      "outputs": [],
      "stateMutability": "nonpayable",
      "type": "function"
    },
    {
      "inputs": [
        {
          "internalType": "string",
          "name": "u",
          "type": "string"
        }
      ],
      "name": "registerUsername",
      "outputs": [],
      "stateMutability": "nonpayable",
      "type": "function"
    },
    {
      "inputs": [
        {
          "internalType": "bytes32",
          "name": "",
          "type": "bytes32"
        }
      ],
      "name": "savingsPots",
      "outputs": [
        {
          "internalType": "bytes32",
          "name": "potId",
          "type": "bytes32"
        },
        {
          "internalType": "address",
          "name": "owner",
          "type": "address"
        },
        {
          "internalType": "string",
          "name": "name",
          "type": "string"
        },
        {
          "internalType": "uint256",
          "name": "targetAmount",
          "type": "uint256"
        },
        {
          "internalType": "uint256",
          "name": "currentAmount",
          "type": "uint256"
        },
        {
          "internalType": "uint256",
          "name": "timestamp",
          "type": "uint256"
        },
        {
          "internalType": "string",
          "name": "remarks",
          "type": "string"
        },
        {
          "internalType": "enum ProtectedPay.PotStatus",
          "name": "status",
          "type": "uint8"
        }
      ],
      "stateMutability": "view",
      "type": "function"
    },
    {
      "inputs": [
        {
          "internalType": "address",
          "name": "r",
          "type": "address"
        },
        {
          "internalType": "string",
          "name": "rem",
          "type": "string"
        }
      ],
      "name": "sendToAddress",
      "outputs": [],
      "stateMutability": "payable",
      "type": "function"
    },
    {
      "inputs": [
        {
          "internalType": "string",
          "name": "u",
          "type": "string"
        },
        {
          "internalType": "string",
          "name": "rem",
          "type": "string"
        }
      ],
      "name": "sendToUsername",
      "outputs": [],
      "stateMutability": "payable",
      "type": "function"
    },
    {
      "inputs": [
        {
          "internalType": "bytes32",
          "name": "",
          "type": "bytes32"
        }
      ],
      "name": "transfers",
      "outputs": [
        {
          "internalType": "address",
          "name": "sender",
          "type": "address"
        },
        {
          "internalType": "address",
          "name": "recipient",
          "type": "address"
        },
        {
          "internalType": "uint256",
          "name": "amount",
          "type": "uint256"
        },
        {
          "internalType": "uint256",
          "name": "timestamp",
          "type": "uint256"
        },
        {
          "internalType": "enum ProtectedPay.TransferStatus",
          "name": "status",
          "type": "uint8"
        },
        {
          "internalType": "string",
          "name": "remarks",
          "type": "string"
        }
      ],
      "stateMutability": "view",
      "type": "function"
    },
    {
      "inputs": [
        {
          "internalType": "string",
          "name": "",
          "type": "string"
        }
      ],
      "name": "usernameToAddress",
      "outputs": [
        {
          "internalType": "address",
          "name": "",
          "type": "address"
        }
      ],
      "stateMutability": "view",
      "type": "function"
    },
    {
      "inputs": [
        {
          "internalType": "address",
          "name": "",
          "type": "address"
        }
      ],
      "name": "users",
      "outputs": [
        {
          "internalType": "string",
          "name": "username",
          "type": "string"
        }
      ],
      "stateMutability": "view",
      "type": "function"
    }
  ],
  "bytecode": "0x6080604052348015600f57600080fd5b506158158061001f6000396000f3fe6080604052600436106101c25760003560e01c8063741d1d36116100f7578063ac75c4c311610095578063f2bd47d211610064578063f2bd47d214610714578063f2cf7a1614610730578063f825f14314610759578063fb89384b14610796576101c2565b8063ac75c4c31461065c578063ad991c1514610685578063b0c49df2146106ae578063cc84aad3146106eb576101c2565b8063987ee156116100d1578063987ee156146105645780639f42af63146105a5578063a804a8ba146105e2578063a87430ba1461061f576101c2565b8063741d1d36146104c957806392a05087146104e557806396115f2314610527576101c2565b80633c64f04b1161016457806354a4d6921161013e57806354a4d692146103ee57806354f4f1791461042b578063693330e51461044757806369c212f61461048c576101c2565b80633c64f04b1461032c5780634f9f4c0f1461036e578063538845df146103b1576101c2565b8063335d3410116101a0578063335d34101461026d5780633588a527146102aa57806336a94134146102c6578063376f383d146102ef576101c2565b8063166acd3e146101c7578063199263251461020b5780632b33cfcc14610227575b600080fd5b3480156101d357600080fd5b506101ee60048036038101906101e991906139d4565b6107bf565b604051610202989796959493929190613b71565b60405180910390f35b61022560048036038101906102209190613cba565b610944565b005b34801561023357600080fd5b5061024e600480360381019061024991906139d4565b610d39565b6040516102649a99989796959493929190613d76565b60405180910390f35b34801561027957600080fd5b50610294600480360381019061028f9190613e19565b610e62565b6040516102a19190614041565b60405180910390f35b6102c460048036038101906102bf91906139d4565b61110f565b005b3480156102d257600080fd5b506102ed60048036038101906102e89190614193565b6112e2565b005b3480156102fb57600080fd5b5061031660048036038101906103119190613e19565b611660565b604051610323919061429a565b60405180910390f35b34801561033857600080fd5b50610353600480360381019061034e91906139d4565b6116f7565b604051610365969594939291906142cb565b60405180910390f35b34801561037a57600080fd5b50610395600480360381019061039091906139d4565b611808565b6040516103a89796959493929190614333565b60405180910390f35b3480156103bd57600080fd5b506103d860048036038101906103d391906143b0565b6119ab565b6040516103e59190614445565b60405180910390f35b3480156103fa57600080fd5b5061041560048036038101906104109190614460565b611cc2565b60405161042291906144bb565b60405180910390f35b610445600480360381019061044091906144d6565b611d1f565b005b34801561045357600080fd5b5061046e600480360381019061046991906139d4565b61210e565b60405161048399989796959493929190614536565b60405180910390f35b34801561049857600080fd5b506104b360048036038101906104ae9190613e19565b612258565b6040516104c091906145ca565b60405180910390f35b6104e360048036038101906104de91906139d4565b61232c565b005b3480156104f157600080fd5b5061050c600480360381019061050791906139d4565b612761565b60405161051e969594939291906142cb565b60405180910390f35b34801561053357600080fd5b5061054e60048036038101906105499190614460565b61288d565b60405161055b91906145ec565b60405180910390f35b34801561057057600080fd5b5061058b60048036038101906105869190613e19565b6128e8565b60405161059c959493929190614607565b60405180910390f35b3480156105b157600080fd5b506105cc60048036038101906105c79190614193565b612c15565b6040516105d9919061467d565b60405180910390f35b3480156105ee57600080fd5b5061060960048036038101906106049190614698565b612c5d565b6040516106169190614445565b60405180910390f35b34801561062b57600080fd5b5061064660048036038101906106419190613e19565b612c8e565b60405161065391906145ca565b60405180910390f35b34801561066857600080fd5b50610683600480360381019061067e91906139d4565b612d34565b005b34801561069157600080fd5b506106ac60048036038101906106a791906139d4565b612f96565b005b3480156106ba57600080fd5b506106d560048036038101906106d09190614460565b61323f565b6040516106e291906145ec565b60405180910390f35b3480156106f757600080fd5b50610712600480360381019061070d9190613e19565b613264565b005b61072e600480360381019061072991906146d8565b6133fd565b005b34801561073c57600080fd5b5061075760048036038101906107529190614759565b6134c3565b005b34801561076557600080fd5b50610780600480360381019061077b9190614193565b6135e7565b60405161078d919061467d565b60405180910390f35b3480156107a257600080fd5b506107bd60048036038101906107b891906139d4565b613630565b005b60046020528060005260406000206000915090508060000154908060010160009054906101000a900473ffffffffffffffffffffffffffffffffffffffff169080600201805461080e906147d5565b80601f016020809104026020016040519081016040528092919081815260200182805461083a906147d5565b80156108875780601f1061085c57610100808354040283529160200191610887565b820191906000526020600020905b81548152906001019060200180831161086a57829003601f168201915b5050505050908060030154908060040154908060050154908060060180546108ae906147d5565b80601f01602080910402602001604051908101604052809291908181526020018280546108da906147d5565b80156109275780601f106108fc57610100808354040283529160200191610927565b820191906000526020600020905b81548152906001019060200180831161090a57829003601f168201915b5050505050908060070160009054906101000a900460ff16905088565b600073ffffffffffffffffffffffffffffffffffffffff168473ffffffffffffffffffffffffffffffffffffffff16036109b3576040517f08c379a00000000000000000000000000000000000000000000000000000000081526004016109aa90614852565b60405180910390fd5b600083116109f6576040517f08c379a00000000000000000000000000000000000000000000000000000000081526004016109ed906148be565b60405180910390fd5b60003411610a39576040517f08c379a0000000000000000000000000000000000000000000000000000000008152600401610a309061492a565b60405180910390fd5b60003385348686864244604051602001610a5a9897969594939291906149e3565b60405160208183030381529060405280519060200120905060008434610a809190614ac0565b90506040518061014001604052808381526020013373ffffffffffffffffffffffffffffffffffffffff1681526020018773ffffffffffffffffffffffffffffffffffffffff1681526020013481526020018281526020018681526020016000815260200142815260200185858080601f016020809104026020016040519081016040528093929190818152602001838380828437600081840152601f19601f82011690508083019250505050505050815260200160006001811115610b4957610b48613afa565b5b815250600260008481526020019081526020016000206000820151816000015560208201518160010160006101000a81548173ffffffffffffffffffffffffffffffffffffffff021916908373ffffffffffffffffffffffffffffffffffffffff16021790555060408201518160020160006101000a81548173ffffffffffffffffffffffffffffffffffffffff021916908373ffffffffffffffffffffffffffffffffffffffff160217905550606082015181600301556080820151816004015560a0820151816005015560c0820151816006015560e08201518160070155610100820151816008019081610c3f9190614c9d565b506101208201518160090160006101000a81548160ff02191690836001811115610c6c57610c6b613afa565b5b0217905550905050600860003373ffffffffffffffffffffffffffffffffffffffff1673ffffffffffffffffffffffffffffffffffffffff1681526020019081526020016000208290806001815401808255809150506001900390600052602060002001600090919091909150553373ffffffffffffffffffffffffffffffffffffffff16827f9f67526ceae30d6bfe53a19736fbd08c082b42e6c27a8d66ff93013e3686f0668834898989604051610d29959493929190614d9c565b60405180910390a3505050505050565b60026020528060005260406000206000915090508060000154908060010160009054906101000a900473ffffffffffffffffffffffffffffffffffffffff16908060020160009054906101000a900473ffffffffffffffffffffffffffffffffffffffff1690806003015490806004015490806005015490806006015490806007015490806008018054610dcc906147d5565b80601f0160208091040260200160405190810160405280929190818152602001828054610df8906147d5565b8015610e455780601f10610e1a57610100808354040283529160200191610e45565b820191906000526020600020905b815481529060010190602001808311610e2857829003601f168201915b5050505050908060090160009054906101000a900460ff1690508a565b60606000600760008473ffffffffffffffffffffffffffffffffffffffff1673ffffffffffffffffffffffffffffffffffffffff16815260200190815260200160002090506000818054905067ffffffffffffffff811115610ec757610ec6614068565b5b604051908082528060200260200182016040528015610f0057816020015b610eed613916565b815260200190600190039081610ee55790505b50905060005b828054905081101561110457600080848381548110610f2857610f27614dea565b5b906000526020600020015481526020019081526020016000206040518060c00160405290816000820160009054906101000a900473ffffffffffffffffffffffffffffffffffffffff1673ffffffffffffffffffffffffffffffffffffffff1673ffffffffffffffffffffffffffffffffffffffff1681526020016001820160009054906101000a900473ffffffffffffffffffffffffffffffffffffffff1673ffffffffffffffffffffffffffffffffffffffff1673ffffffffffffffffffffffffffffffffffffffff16815260200160028201548152602001600382015481526020016004820160009054906101000a900460ff16600281111561103157611030613afa565b5b600281111561104357611042613afa565b5b8152602001600582018054611057906147d5565b80601f0160208091040260200160405190810160405280929190818152602001828054611083906147d5565b80156110d05780601f106110a5576101008083540402835291602001916110d0565b820191906000526020600020905b8154815290600101906020018083116110b357829003601f168201915b5050505050815250508282815181106110ec576110eb614dea565b5b60200260200101819052508080600101915050610f06565b508092505050919050565b6000600460008381526020019081526020016000209050600073ffffffffffffffffffffffffffffffffffffffff168160010160009054906101000a900473ffffffffffffffffffffffffffffffffffffffff1673ffffffffffffffffffffffffffffffffffffffff16036111b9576040517f08c379a00000000000000000000000000000000000000000000000000000000081526004016111b090614e65565b60405180910390fd5b600060018111156111cd576111cc613afa565b5b8160070160009054906101000a900460ff1660018111156111f1576111f0613afa565b5b14611231576040517f08c379a000000000000000000000000000000000000000000000000000000000815260040161122890614ed1565b60405180910390fd5b60003411611274576040517f08c379a000000000000000000000000000000000000000000000000000000000815260040161126b9061492a565b60405180910390fd5b348160040160008282546112889190614ef1565b925050819055503373ffffffffffffffffffffffffffffffffffffffff16827fc6ce62290e4c375126df2454eca7e50cd1b3593c0a107d72c8c6f14e905a1d73346040516112d691906145ec565b60405180910390a35050565b6000815111611326576040517f08c379a000000000000000000000000000000000000000000000000000000000815260040161131d90614f71565b60405180910390fd5b60006006826040516113389190614fc2565b908152602001604051809103902060009054906101000a900473ffffffffffffffffffffffffffffffffffffffff169050600073ffffffffffffffffffffffffffffffffffffffff168173ffffffffffffffffffffffffffffffffffffffff1614806113cf57503373ffffffffffffffffffffffffffffffffffffffff168173ffffffffffffffffffffffffffffffffffffffff16145b61140e576040517f08c379a000000000000000000000000000000000000000000000000000000000815260040161140590615025565b60405180910390fd5b6000600560003373ffffffffffffffffffffffffffffffffffffffff1673ffffffffffffffffffffffffffffffffffffffff168152602001908152602001600020600001805461145d906147d5565b80601f0160208091040260200160405190810160405280929190818152602001828054611489906147d5565b80156114d65780601f106114ab576101008083540402835291602001916114d6565b820191906000526020600020905b8154815290600101906020018083116114b957829003601f168201915b50505050509050600081511180156114fc57508280519060200120818051906020012014155b156115605760006006826040516115139190614fc2565b908152602001604051809103902060006101000a81548173ffffffffffffffffffffffffffffffffffffffff021916908373ffffffffffffffffffffffffffffffffffffffff1602179055505b82600560003373ffffffffffffffffffffffffffffffffffffffff1673ffffffffffffffffffffffffffffffffffffffff16815260200190815260200160002060000190816115af9190614c9d565b50336006846040516115c19190614fc2565b908152602001604051809103902060006101000a81548173ffffffffffffffffffffffffffffffffffffffff021916908373ffffffffffffffffffffffffffffffffffffffff1602179055503373ffffffffffffffffffffffffffffffffffffffff167f48cac28ad4dc618e15f4c2dd5e97751182f166de97b25618318b2112aa951a2f8460405161165391906145ca565b60405180910390a2505050565b6060600160008373ffffffffffffffffffffffffffffffffffffffff1673ffffffffffffffffffffffffffffffffffffffff1681526020019081526020016000208054806020026020016040519081016040528092919081815260200182805480156116eb57602002820191906000526020600020905b8154815260200190600101908083116116d7575b50505050509050919050565b60006020528060005260406000206000915090508060000160009054906101000a900473ffffffffffffffffffffffffffffffffffffffff16908060010160009054906101000a900473ffffffffffffffffffffffffffffffffffffffff16908060020154908060030154908060040160009054906101000a900460ff1690806005018054611785906147d5565b80601f01602080910402602001604051908101604052809291908181526020018280546117b1906147d5565b80156117fe5780601f106117d3576101008083540402835291602001916117fe565b820191906000526020600020905b8154815290600101906020018083116117e157829003601f168201915b5050505050905086565b6000606060008060008060606000600460008a815260200190815260200160002090508060010160009054906101000a900473ffffffffffffffffffffffffffffffffffffffff16816002018260030154836004015484600501548560070160009054906101000a900460ff1686600601858054611885906147d5565b80601f01602080910402602001604051908101604052809291908181526020018280546118b1906147d5565b80156118fe5780601f106118d3576101008083540402835291602001916118fe565b820191906000526020600020905b8154815290600101906020018083116118e157829003601f168201915b50505050509550808054611911906147d5565b80601f016020809104026020016040519081016040528092919081815260200182805461193d906147d5565b801561198a5780601f1061195f5761010080835404028352916020019161198a565b820191906000526020600020905b81548152906001019060200180831161196d57829003601f168201915b50505050509050975097509750975097509750975050919395979092949650565b60008086869050116119f2576040517f08c379a00000000000000000000000000000000000000000000000000000000081526004016119e990615091565b60405180910390fd5b60003387878787874244604051602001611a139897969594939291906150b1565b6040516020818303038152906040528051906020012090506040518061010001604052808281526020013373ffffffffffffffffffffffffffffffffffffffff16815260200188888080601f016020809104026020016040519081016040528093929190818152602001838380828437600081840152601f19601f8201169050808301925050505050505081526020018681526020016000815260200142815260200185858080601f016020809104026020016040519081016040528093929190818152602001838380828437600081840152601f19601f82011690508083019250505050505050815260200160006001811115611b1457611b13613afa565b5b815250600460008381526020019081526020016000206000820151816000015560208201518160010160006101000a81548173ffffffffffffffffffffffffffffffffffffffff021916908373ffffffffffffffffffffffffffffffffffffffff1602179055506040820151816002019081611b909190614c9d565b50606082015181600301556080820151816004015560a0820151816005015560c0820151816006019081611bc49190614c9d565b5060e08201518160070160006101000a81548160ff02191690836001811115611bf057611bef613afa565b5b0217905550905050600a60003373ffffffffffffffffffffffffffffffffffffffff1673ffffffffffffffffffffffffffffffffffffffff1681526020019081526020016000208190806001815401808255809150506001900390600052602060002001600090919091909150553373ffffffffffffffffffffffffffffffffffffffff16817fc37777608149a4bf6c4b972d5908ec69969eee6cf2853aad2d3aed7702932fc08989898989604051611cad95949392919061511d565b60405180910390a38091505095945050505050565b6000806003600085815260200190815260200160002060008473ffffffffffffffffffffffffffffffffffffffff1673ffffffffffffffffffffffffffffffffffffffff1681526020019081526020016000205411905092915050565b600073ffffffffffffffffffffffffffffffffffffffff168373ffffffffffffffffffffffffffffffffffffffff1603611d8e576040517f08c379a0000000000000000000000000000000000000000000000000000000008152600401611d8590614852565b60405180910390fd5b60003411611dd1576040517f08c379a0000000000000000000000000000000000000000000000000000000008152600401611dc89061492a565b60405180910390fd5b6000611e2333853486868080601f016020809104026020016040519081016040528093929190818152602001838380828437600081840152601f19601f820116905080830192505050505050506138d9565b90506040518060c001604052803373ffffffffffffffffffffffffffffffffffffffff1681526020018573ffffffffffffffffffffffffffffffffffffffff16815260200134815260200142815260200160006002811115611e8857611e87613afa565b5b815260200184848080601f016020809104026020016040519081016040528093929190818152602001838380828437600081840152601f19601f8201169050808301925050505050505081525060008083815260200190815260200160002060008201518160000160006101000a81548173ffffffffffffffffffffffffffffffffffffffff021916908373ffffffffffffffffffffffffffffffffffffffff16021790555060208201518160010160006101000a81548173ffffffffffffffffffffffffffffffffffffffff021916908373ffffffffffffffffffffffffffffffffffffffff160217905550604082015181600201556060820151816003015560808201518160040160006101000a81548160ff02191690836002811115611fb457611fb3613afa565b5b021790555060a0820151816005019081611fce9190614c9d565b50905050600160003373ffffffffffffffffffffffffffffffffffffffff1673ffffffffffffffffffffffffffffffffffffffff168152602001908152602001600020819080600181540180825580915050600190039060005260206000200160009091909190915055600760003373ffffffffffffffffffffffffffffffffffffffff1673ffffffffffffffffffffffffffffffffffffffff1681526020019081526020016000208190806001815401808255809150506001900390600052602060002001600090919091909150558373ffffffffffffffffffffffffffffffffffffffff163373ffffffffffffffffffffffffffffffffffffffff16827f173f4073d95dd46f8ea11fd8624f55bfa3ba38f211968d9b3c8811f3f531d8ef34878760405161210093929190615166565b60405180910390a450505050565b60008060008060008060008060606000600260008c815260200190815260200160002090508060010160009054906101000a900473ffffffffffffffffffffffffffffffffffffffff168160020160009054906101000a900473ffffffffffffffffffffffffffffffffffffffff16826003015483600401548460050154856006015486600701548760090160009054906101000a900460ff16886008018080546121b8906147d5565b80601f01602080910402602001604051908101604052809291908181526020018280546121e4906147d5565b80156122315780601f1061220657610100808354040283529160200191612231565b820191906000526020600020905b81548152906001019060200180831161221457829003601f168201915b50505050509050995099509950995099509950995099509950509193959799909294969850565b6060600560008373ffffffffffffffffffffffffffffffffffffffff1673ffffffffffffffffffffffffffffffffffffffff16815260200190815260200160002060000180546122a7906147d5565b80601f01602080910402602001604051908101604052809291908181526020018280546122d3906147d5565b80156123205780601f106122f557610100808354040283529160200191612320565b820191906000526020600020905b81548152906001019060200180831161230357829003601f168201915b50505050509050919050565b6000600260008381526020019081526020016000209050600073ffffffffffffffffffffffffffffffffffffffff168160010160009054906101000a900473ffffffffffffffffffffffffffffffffffffffff1673ffffffffffffffffffffffffffffffffffffffff16036123d6576040517f08c379a00000000000000000000000000000000000000000000000000000000081526004016123cd906151e4565b60405180910390fd5b600060018111156123ea576123e9613afa565b5b8160090160009054906101000a900460ff16600181111561240e5761240d613afa565b5b1461244e576040517f08c379a000000000000000000000000000000000000000000000000000000000815260040161244590615250565b60405180910390fd5b60003411612491576040517f08c379a00000000000000000000000000000000000000000000000000000000081526004016124889061492a565b60405180910390fd5b346003600084815260200190815260200160002060003373ffffffffffffffffffffffffffffffffffffffff1673ffffffffffffffffffffffffffffffffffffffff16815260200190815260200160002060008282546124f19190614ef1565b925050819055503481600601600082825461250c9190614ef1565b92505081905550600960003373ffffffffffffffffffffffffffffffffffffffff1673ffffffffffffffffffffffffffffffffffffffff1681526020019081526020016000208290806001815401808255809150506001900390600052602060002001600090919091909150553373ffffffffffffffffffffffffffffffffffffffff16827f8d82275ff5d7b750bbe51c079b9534d59f43e338c9050032980a925f56d820e4346040516125c091906145ec565b60405180910390a3806003015481600601541061275d5760018160090160006101000a81548160ff021916908360018111156125ff576125fe613afa565b5b02179055506000816006015490506000826006018190555060008260020160009054906101000a900473ffffffffffffffffffffffffffffffffffffffff1673ffffffffffffffffffffffffffffffffffffffff1682604051612661906152a1565b60006040518083038185875af1925050503d806000811461269e576040519150601f19603f3d011682016040523d82523d6000602084013e6126a3565b606091505b50509050806126e7576040517f08c379a00000000000000000000000000000000000000000000000000000000081526004016126de90615302565b60405180910390fd5b8260020160009054906101000a900473ffffffffffffffffffffffffffffffffffffffff1673ffffffffffffffffffffffffffffffffffffffff16847f556fd18f95929395205dd1f9d95eaa44e911b1d68470eddfb643af754b5167748460405161275291906145ec565b60405180910390a350505b5050565b60008060008060006060600080600089815260200190815260200160002090508060000160009054906101000a900473ffffffffffffffffffffffffffffffffffffffff168160010160009054906101000a900473ffffffffffffffffffffffffffffffffffffffff16826002015483600301548460040160009054906101000a900460ff16856005018080546127f7906147d5565b80601f0160208091040260200160405190810160405280929190818152602001828054612823906147d5565b80156128705780601f1061284557610100808354040283529160200191612870565b820191906000526020600020905b81548152906001019060200180831161285357829003601f168201915b505050505090509650965096509650965096505091939550919395565b60006003600084815260200190815260200160002060008373ffffffffffffffffffffffffffffffffffffffff1673ffffffffffffffffffffffffffffffffffffffff16815260200190815260200160002054905092915050565b6060806060806060600560008773ffffffffffffffffffffffffffffffffffffffff1673ffffffffffffffffffffffffffffffffffffffff168152602001908152602001600020600001600760008873ffffffffffffffffffffffffffffffffffffffff1673ffffffffffffffffffffffffffffffffffffffff168152602001908152602001600020600860008973ffffffffffffffffffffffffffffffffffffffff1673ffffffffffffffffffffffffffffffffffffffff168152602001908152602001600020600960008a73ffffffffffffffffffffffffffffffffffffffff1673ffffffffffffffffffffffffffffffffffffffff168152602001908152602001600020600a60008b73ffffffffffffffffffffffffffffffffffffffff1673ffffffffffffffffffffffffffffffffffffffff168152602001908152602001600020848054612a3a906147d5565b80601f0160208091040260200160405190810160405280929190818152602001828054612a66906147d5565b8015612ab35780601f10612a8857610100808354040283529160200191612ab3565b820191906000526020600020905b815481529060010190602001808311612a9657829003601f168201915b5050505050945083805480602002602001604051908101604052809291908181526020018280548015612b0557602002820191906000526020600020905b815481526020019060010190808311612af1575b5050505050935082805480602002602001604051908101604052809291908181526020018280548015612b5757602002820191906000526020600020905b815481526020019060010190808311612b43575b5050505050925081805480602002602001604051908101604052809291908181526020018280548015612ba957602002820191906000526020600020905b815481526020019060010190808311612b95575b5050505050915080805480602002602001604051908101604052809291908181526020018280548015612bfb57602002820191906000526020600020905b815481526020019060010190808311612be7575b505050505090509450945094509450945091939590929450565b6000600682604051612c279190614fc2565b908152602001604051809103902060009054906101000a900473ffffffffffffffffffffffffffffffffffffffff169050919050565b60016020528160005260406000208181548110612c7957600080fd5b90600052602060002001600091509150505481565b6005602052806000526040600020600091509050806000018054612cb1906147d5565b80601f0160208091040260200160405190810160405280929190818152602001828054612cdd906147d5565b8015612d2a5780601f10612cff57610100808354040283529160200191612d2a565b820191906000526020600020905b815481529060010190602001808311612d0d57829003601f168201915b5050505050905081565b60006004600083815260200190815260200160002090503373ffffffffffffffffffffffffffffffffffffffff168160010160009054906101000a900473ffffffffffffffffffffffffffffffffffffffff1673ffffffffffffffffffffffffffffffffffffffff1614612ddd576040517f08c379a0000000000000000000000000000000000000000000000000000000008152600401612dd49061536e565b60405180910390fd5b60006001811115612df157612df0613afa565b5b8160070160009054906101000a900460ff166001811115612e1557612e14613afa565b5b14612e55576040517f08c379a0000000000000000000000000000000000000000000000000000000008152600401612e4c90614ed1565b60405180910390fd5b60018160070160006101000a81548160ff02191690836001811115612e7d57612e7c613afa565b5b02179055506000816004015490506000826004018190555060003373ffffffffffffffffffffffffffffffffffffffff1682604051612ebb906152a1565b60006040518083038185875af1925050503d8060008114612ef8576040519150601f19603f3d011682016040523d82523d6000602084013e612efd565b606091505b5050905080612f41576040517f08c379a0000000000000000000000000000000000000000000000000000000008152600401612f38906153da565b60405180910390fd5b3373ffffffffffffffffffffffffffffffffffffffff16847faace9d1f49d903287c466e93c747ae08d8809dfebbc01979892725374a54b65984604051612f8891906145ec565b60405180910390a350505050565b6000806000838152602001908152602001600020905060006002811115612fc057612fbf613afa565b5b8160040160009054906101000a900460ff166002811115612fe457612fe3613afa565b5b14613024576040517f08c379a000000000000000000000000000000000000000000000000000000000815260040161301b90615446565b60405180910390fd5b8060000160009054906101000a900473ffffffffffffffffffffffffffffffffffffffff1673ffffffffffffffffffffffffffffffffffffffff163373ffffffffffffffffffffffffffffffffffffffff16146130b6576040517f08c379a00000000000000000000000000000000000000000000000000000000081526004016130ad906154b2565b60405180910390fd5b60028160040160006101000a81548160ff021916908360028111156130de576130dd613afa565b5b02179055506000816002015490506000826002018190555060008260000160009054906101000a900473ffffffffffffffffffffffffffffffffffffffff1673ffffffffffffffffffffffffffffffffffffffff1682604051613140906152a1565b60006040518083038185875af1925050503d806000811461317d576040519150601f19603f3d011682016040523d82523d6000602084013e613182565b606091505b50509050806131c6576040517f08c379a00000000000000000000000000000000000000000000000000000000081526004016131bd9061551e565b60405180910390fd5b8260000160009054906101000a900473ffffffffffffffffffffffffffffffffffffffff1673ffffffffffffffffffffffffffffffffffffffff16847f04f52f70a574c3facc8188d13efa4536b1ab3b9571e5ed36201886191c4686ce8460405161323191906145ec565b60405180910390a350505050565b6003602052816000526040600020602052806000526040600020600091509150505481565b6000600160008373ffffffffffffffffffffffffffffffffffffffff1673ffffffffffffffffffffffffffffffffffffffff168152602001908152602001600020905060005b81805490508110156133be5760008060008484815481106132ce576132cd614dea565b5b906000526020600020015481526020019081526020016000209050600060028111156132fd576132fc613afa565b5b8160040160009054906101000a900460ff16600281111561332157613320613afa565b5b14801561337d57503373ffffffffffffffffffffffffffffffffffffffff168160010160009054906101000a900473ffffffffffffffffffffffffffffffffffffffff1673ffffffffffffffffffffffffffffffffffffffff16145b156133b0576133a883838154811061339857613397614dea565b5b9060005260206000200154613630565b5050506133fa565b5080806001019150506132aa565b506040517f08c379a00000000000000000000000000000000000000000000000000000000081526004016133f19061558a565b60405180910390fd5b50565b6000600685856040516134119291906155aa565b908152602001604051809103902060009054906101000a900473ffffffffffffffffffffffffffffffffffffffff169050600073ffffffffffffffffffffffffffffffffffffffff168173ffffffffffffffffffffffffffffffffffffffff16036134b1576040517f08c379a00000000000000000000000000000000000000000000000000000000081526004016134a89061560f565b60405180910390fd5b6134bc818484611d1f565b5050505050565b6000600683836040516134d79291906155aa565b908152602001604051809103902060009054906101000a900473ffffffffffffffffffffffffffffffffffffffff169050600073ffffffffffffffffffffffffffffffffffffffff168173ffffffffffffffffffffffffffffffffffffffff1603613577576040517f08c379a000000000000000000000000000000000000000000000000000000000815260040161356e9061567b565b60405180910390fd5b3073ffffffffffffffffffffffffffffffffffffffff1663cc84aad3826040518263ffffffff1660e01b81526004016135b0919061467d565b600060405180830381600087803b1580156135ca57600080fd5b505af11580156135de573d6000803e3d6000fd5b50505050505050565b6006818051602081018201805184825260208301602085012081835280955050505050506000915054906101000a900473ffffffffffffffffffffffffffffffffffffffff1681565b600080600083815260200190815260200160002090506000600281111561365a57613659613afa565b5b8160040160009054906101000a900460ff16600281111561367e5761367d613afa565b5b146136be576040517f08c379a00000000000000000000000000000000000000000000000000000000081526004016136b590615446565b60405180910390fd5b8060010160009054906101000a900473ffffffffffffffffffffffffffffffffffffffff1673ffffffffffffffffffffffffffffffffffffffff163373ffffffffffffffffffffffffffffffffffffffff1614613750576040517f08c379a0000000000000000000000000000000000000000000000000000000008152600401613747906156e7565b60405180910390fd5b60018160040160006101000a81548160ff0219169083600281111561377857613777613afa565b5b02179055506000816002015490506000826002018190555060008260010160009054906101000a900473ffffffffffffffffffffffffffffffffffffffff1673ffffffffffffffffffffffffffffffffffffffff16826040516137da906152a1565b60006040518083038185875af1925050503d8060008114613817576040519150601f19603f3d011682016040523d82523d6000602084013e61381c565b606091505b5050905080613860576040517f08c379a000000000000000000000000000000000000000000000000000000000815260040161385790615753565b60405180910390fd5b8260010160009054906101000a900473ffffffffffffffffffffffffffffffffffffffff1673ffffffffffffffffffffffffffffffffffffffff16847f54e6888b93343929fb4c04c33f95a6f9df6993d77d70520adece23bf63fbd9bb846040516138cb91906145ec565b60405180910390a350505050565b60008484848442446040516020016138f696959493929190615773565b604051602081830303815290604052805190602001209050949350505050565b6040518060c00160405280600073ffffffffffffffffffffffffffffffffffffffff168152602001600073ffffffffffffffffffffffffffffffffffffffff16815260200160008152602001600081526020016000600281111561397d5761397c613afa565b5b8152602001606081525090565b6000604051905090565b600080fd5b600080fd5b6000819050919050565b6139b18161399e565b81146139bc57600080fd5b50565b6000813590506139ce816139a8565b92915050565b6000602082840312156139ea576139e9613994565b5b60006139f8848285016139bf565b91505092915050565b613a0a8161399e565b82525050565b600073ffffffffffffffffffffffffffffffffffffffff82169050919050565b6000613a3b82613a10565b9050919050565b613a4b81613a30565b82525050565b600081519050919050565b600082825260208201905092915050565b60005b83811015613a8b578082015181840152602081019050613a70565b60008484015250505050565b6000601f19601f8301169050919050565b6000613ab382613a51565b613abd8185613a5c565b9350613acd818560208601613a6d565b613ad681613a97565b840191505092915050565b6000819050919050565b613af481613ae1565b82525050565b7f4e487b7100000000000000000000000000000000000000000000000000000000600052602160045260246000fd5b60028110613b3a57613b39613afa565b5b50565b6000819050613b4b82613b29565b919050565b6000613b5b82613b3d565b9050919050565b613b6b81613b50565b82525050565b600061010082019050613b87600083018b613a01565b613b94602083018a613a42565b8181036040830152613ba68189613aa8565b9050613bb56060830188613aeb565b613bc26080830187613aeb565b613bcf60a0830186613aeb565b81810360c0830152613be18185613aa8565b9050613bf060e0830184613b62565b9998505050505050505050565b613c0681613a30565b8114613c1157600080fd5b50565b600081359050613c2381613bfd565b92915050565b613c3281613ae1565b8114613c3d57600080fd5b50565b600081359050613c4f81613c29565b92915050565b600080fd5b600080fd5b600080fd5b60008083601f840112613c7a57613c79613c55565b5b8235905067ffffffffffffffff811115613c9757613c96613c5a565b5b602083019150836001820283011115613cb357613cb2613c5f565b5b9250929050565b60008060008060608587031215613cd457613cd3613994565b5b6000613ce287828801613c14565b9450506020613cf387828801613c40565b935050604085013567ffffffffffffffff811115613d1457613d13613999565b5b613d2087828801613c64565b925092505092959194509250565b60028110613d3f57613d3e613afa565b5b50565b6000819050613d5082613d2e565b919050565b6000613d6082613d42565b9050919050565b613d7081613d55565b82525050565b600061014082019050613d8c600083018d613a01565b613d99602083018c613a42565b613da6604083018b613a42565b613db3606083018a613aeb565b613dc06080830189613aeb565b613dcd60a0830188613aeb565b613dda60c0830187613aeb565b613de760e0830186613aeb565b818103610100830152613dfa8185613aa8565b9050613e0a610120830184613d67565b9b9a5050505050505050505050565b600060208284031215613e2f57613e2e613994565b5b6000613e3d84828501613c14565b91505092915050565b600081519050919050565b600082825260208201905092915050565b6000819050602082019050919050565b613e7b81613a30565b82525050565b613e8a81613ae1565b82525050565b60038110613ea157613ea0613afa565b5b50565b6000819050613eb282613e90565b919050565b6000613ec282613ea4565b9050919050565b613ed281613eb7565b82525050565b600082825260208201905092915050565b6000613ef482613a51565b613efe8185613ed8565b9350613f0e818560208601613a6d565b613f1781613a97565b840191505092915050565b600060c083016000830151613f3a6000860182613e72565b506020830151613f4d6020860182613e72565b506040830151613f606040860182613e81565b506060830151613f736060860182613e81565b506080830151613f866080860182613ec9565b5060a083015184820360a0860152613f9e8282613ee9565b9150508091505092915050565b6000613fb78383613f22565b905092915050565b6000602082019050919050565b6000613fd782613e46565b613fe18185613e51565b935083602082028501613ff385613e62565b8060005b8581101561402f57848403895281516140108582613fab565b945061401b83613fbf565b925060208a01995050600181019050613ff7565b50829750879550505050505092915050565b6000602082019050818103600083015261405b8184613fcc565b905092915050565b600080fd5b7f4e487b7100000000000000000000000000000000000000000000000000000000600052604160045260246000fd5b6140a082613a97565b810181811067ffffffffffffffff821117156140bf576140be614068565b5b80604052505050565b60006140d261398a565b90506140de8282614097565b919050565b600067ffffffffffffffff8211156140fe576140fd614068565b5b61410782613a97565b9050602081019050919050565b82818337600083830152505050565b6000614136614131846140e3565b6140c8565b90508281526020810184848401111561415257614151614063565b5b61415d848285614114565b509392505050565b600082601f83011261417a57614179613c55565b5b813561418a848260208601614123565b91505092915050565b6000602082840312156141a9576141a8613994565b5b600082013567ffffffffffffffff8111156141c7576141c6613999565b5b6141d384828501614165565b91505092915050565b600081519050919050565b600082825260208201905092915050565b6000819050602082019050919050565b6142118161399e565b82525050565b60006142238383614208565b60208301905092915050565b6000602082019050919050565b6000614247826141dc565b61425181856141e7565b935061425c836141f8565b8060005b8381101561428d5781516142748882614217565b975061427f8361422f565b925050600181019050614260565b5085935050505092915050565b600060208201905081810360008301526142b4818461423c565b905092915050565b6142c581613eb7565b82525050565b600060c0820190506142e06000830189613a42565b6142ed6020830188613a42565b6142fa6040830187613aeb565b6143076060830186613aeb565b61431460808301856142bc565b81810360a08301526143268184613aa8565b9050979650505050505050565b600060e082019050614348600083018a613a42565b818103602083015261435a8189613aa8565b90506143696040830188613aeb565b6143766060830187613aeb565b6143836080830186613aeb565b61439060a0830185613b62565b81810360c08301526143a28184613aa8565b905098975050505050505050565b6000806000806000606086880312156143cc576143cb613994565b5b600086013567ffffffffffffffff8111156143ea576143e9613999565b5b6143f688828901613c64565b9550955050602061440988828901613c40565b935050604086013567ffffffffffffffff81111561442a57614429613999565b5b61443688828901613c64565b92509250509295509295909350565b600060208201905061445a6000830184613a01565b92915050565b6000806040838503121561447757614476613994565b5b6000614485858286016139bf565b925050602061449685828601613c14565b9150509250929050565b60008115159050919050565b6144b5816144a0565b82525050565b60006020820190506144d060008301846144ac565b92915050565b6000806000604084860312156144ef576144ee613994565b5b60006144fd86828701613c14565b935050602084013567ffffffffffffffff81111561451e5761451d613999565b5b61452a86828701613c64565b92509250509250925092565b60006101208201905061454c600083018c613a42565b614559602083018b613a42565b614566604083018a613aeb565b6145736060830189613aeb565b6145806080830188613aeb565b61458d60a0830187613aeb565b61459a60c0830186613aeb565b6145a760e0830185613d67565b8181036101008301526145ba8184613aa8565b90509a9950505050505050505050565b600060208201905081810360008301526145e48184613aa8565b905092915050565b60006020820190506146016000830184613aeb565b92915050565b600060a08201905081810360008301526146218188613aa8565b90508181036020830152614635818761423c565b90508181036040830152614649818661423c565b9050818103606083015261465d818561423c565b90508181036080830152614671818461423c565b90509695505050505050565b60006020820190506146926000830184613a42565b92915050565b600080604083850312156146af576146ae613994565b5b60006146bd85828601613c14565b92505060206146ce85828601613c40565b9150509250929050565b600080600080604085870312156146f2576146f1613994565b5b600085013567ffffffffffffffff8111156147105761470f613999565b5b61471c87828801613c64565b9450945050602085013567ffffffffffffffff81111561473f5761473e613999565b5b61474b87828801613c64565b925092505092959194509250565b600080602083850312156147705761476f613994565b5b600083013567ffffffffffffffff81111561478e5761478d613999565b5b61479a85828601613c64565b92509250509250929050565b7f4e487b7100000000000000000000000000000000000000000000000000000000600052602260045260246000fd5b600060028204905060018216806147ed57607f821691505b602082108103614800576147ff6147a6565b5b50919050565b7f62616420726563697069656e7400000000000000000000000000000000000000600082015250565b600061483c600d83613a5c565b915061484782614806565b602082019050919050565b6000602082019050818103600083015261486b8161482f565b9050919050565b7f6e756d3d30000000000000000000000000000000000000000000000000000000600082015250565b60006148a8600583613a5c565b91506148b382614872565b602082019050919050565b600060208201905081810360008301526148d78161489b565b9050919050565b7f6e6f2076616c7565000000000000000000000000000000000000000000000000600082015250565b6000614914600883613a5c565b915061491f826148de565b602082019050919050565b6000602082019050818103600083015261494381614907565b9050919050565b60008160601b9050919050565b60006149628261494a565b9050919050565b600061497482614957565b9050919050565b61498c61498782613a30565b614969565b82525050565b6000819050919050565b6149ad6149a882613ae1565b614992565b82525050565b600081905092915050565b60006149ca83856149b3565b93506149d7838584614114565b82840190509392505050565b60006149ef828b61497b565b6014820191506149ff828a61497b565b601482019150614a0f828961499c565b602082019150614a1f828861499c565b602082019150614a308286886149be565b9150614a3c828561499c565b602082019150614a4c828461499c565b6020820191508190509998505050505050505050565b7f4e487b7100000000000000000000000000000000000000000000000000000000600052601260045260246000fd5b7f4e487b7100000000000000000000000000000000000000000000000000000000600052601160045260246000fd5b6000614acb82613ae1565b9150614ad683613ae1565b925082614ae657614ae5614a62565b5b828204905092915050565b60008190508160005260206000209050919050565b60006020601f8301049050919050565b600082821b905092915050565b600060088302614b537fffffffffffffffffffffffffffffffffffffffffffffffffffffffffffffffff82614b16565b614b5d8683614b16565b95508019841693508086168417925050509392505050565b6000819050919050565b6000614b9a614b95614b9084613ae1565b614b75565b613ae1565b9050919050565b6000819050919050565b614bb483614b7f565b614bc8614bc082614ba1565b848454614b23565b825550505050565b600090565b614bdd614bd0565b614be8818484614bab565b505050565b5b81811015614c0c57614c01600082614bd5565b600181019050614bee565b5050565b601f821115614c5157614c2281614af1565b614c2b84614b06565b81016020851015614c3a578190505b614c4e614c4685614b06565b830182614bed565b50505b505050565b600082821c905092915050565b6000614c7460001984600802614c56565b1980831691505092915050565b6000614c8d8383614c63565b9150826002028217905092915050565b614ca682613a51565b67ffffffffffffffff811115614cbf57614cbe614068565b5b614cc982546147d5565b614cd4828285614c10565b600060209050601f831160018114614d075760008415614cf5578287015190505b614cff8582614c81565b865550614d67565b601f198416614d1586614af1565b60005b82811015614d3d57848901518255600182019150602085019450602081019050614d18565b86831015614d5a5784890151614d56601f891682614c63565b8355505b6001600288020188555050505b505050505050565b6000614d7b8385613a5c565b9350614d88838584614114565b614d9183613a97565b840190509392505050565b6000608082019050614db16000830188613a42565b614dbe6020830187613aeb565b614dcb6040830186613aeb565b8181036060830152614dde818486614d6f565b90509695505050505050565b7f4e487b7100000000000000000000000000000000000000000000000000000000600052603260045260246000fd5b7f6e6f20706f740000000000000000000000000000000000000000000000000000600082015250565b6000614e4f600683613a5c565b9150614e5a82614e19565b602082019050919050565b60006020820190508181036000830152614e7e81614e42565b9050919050565b7f6e6f742061637469766500000000000000000000000000000000000000000000600082015250565b6000614ebb600a83613a5c565b9150614ec682614e85565b602082019050919050565b60006020820190508181036000830152614eea81614eae565b9050919050565b6000614efc82613ae1565b9150614f0783613ae1565b9250828201905080821115614f1f57614f1e614a91565b5b92915050565b7f656d70747920757365726e616d65000000000000000000000000000000000000600082015250565b6000614f5b600e83613a5c565b9150614f6682614f25565b602082019050919050565b60006020820190508181036000830152614f8a81614f4e565b9050919050565b6000614f9c82613a51565b614fa681856149b3565b9350614fb6818560208601613a6d565b80840191505092915050565b6000614fce8284614f91565b915081905092915050565b7f74616b656e000000000000000000000000000000000000000000000000000000600082015250565b600061500f600583613a5c565b915061501a82614fd9565b602082019050919050565b6000602082019050818103600083015261503e81615002565b9050919050565b7f656d707479206e616d6500000000000000000000000000000000000000000000600082015250565b600061507b600a83613a5c565b915061508682615045565b602082019050919050565b600060208201905081810360008301526150aa8161506e565b9050919050565b60006150bd828b61497b565b6014820191506150ce82898b6149be565b91506150da828861499c565b6020820191506150eb8286886149be565b91506150f7828561499c565b602082019150615107828461499c565b6020820191508190509998505050505050505050565b60006060820190508181036000830152615138818789614d6f565b90506151476020830186613aeb565b818103604083015261515a818486614d6f565b90509695505050505050565b600060408201905061517b6000830186613aeb565b818103602083015261518e818486614d6f565b9050949350505050565b7f6e6f207061796d656e7400000000000000000000000000000000000000000000600082015250565b60006151ce600a83613a5c565b91506151d982615198565b602082019050919050565b600060208201905081810360008301526151fd816151c1565b9050919050565b7f646f6e6500000000000000000000000000000000000000000000000000000000600082015250565b600061523a600483613a5c565b915061524582615204565b602082019050919050565b600060208201905081810360008301526152698161522d565b9050919050565b600081905092915050565b50565b600061528b600083615270565b91506152968261527b565b600082019050919050565b60006152ac8261527e565b9150819050919050565b7f706179206661696c000000000000000000000000000000000000000000000000600082015250565b60006152ec600883613a5c565b91506152f7826152b6565b602082019050919050565b6000602082019050818103600083015261531b816152df565b9050919050565b7f6e6f74206f776e65720000000000000000000000000000000000000000000000600082015250565b6000615358600983613a5c565b915061536382615322565b602082019050919050565b600060208201905081810360008301526153878161534b565b9050919050565b7f7769746864726177206661696c00000000000000000000000000000000000000600082015250565b60006153c4600d83613a5c565b91506153cf8261538e565b602082019050919050565b600060208201905081810360008301526153f3816153b7565b9050919050565b7f6e6f742070656e64696e67000000000000000000000000000000000000000000600082015250565b6000615430600b83613a5c565b915061543b826153fa565b602082019050919050565b6000602082019050818103600083015261545f81615423565b9050919050565b7f6e6f742073656e64657200000000000000000000000000000000000000000000600082015250565b600061549c600a83613a5c565b91506154a782615466565b602082019050919050565b600060208201905081810360008301526154cb8161548f565b9050919050565b7f726566756e64206661696c000000000000000000000000000000000000000000600082015250565b6000615508600b83613a5c565b9150615513826154d2565b602082019050919050565b60006020820190508181036000830152615537816154fb565b9050919050565b7f6e6f2070656e64696e67207472616e7366657200000000000000000000000000600082015250565b6000615574601383613a5c565b915061557f8261553e565b602082019050919050565b600060208201905081810360008301526155a381615567565b9050919050565b60006155b78284866149be565b91508190509392505050565b7f756e6b6e6f776e20757365720000000000000000000000000000000000000000600082015250565b60006155f9600c83613a5c565b9150615604826155c3565b602082019050919050565b60006020820190508181036000830152615628816155ec565b9050919050565b7f756e6b6e6f776e2073656e646572000000000000000000000000000000000000600082015250565b6000615665600e83613a5c565b91506156708261562f565b602082019050919050565b6000602082019050818103600083015261569481615658565b9050919050565b7f6e6f7420726563697069656e7400000000000000000000000000000000000000600082015250565b60006156d1600d83613a5c565b91506156dc8261569b565b602082019050919050565b60006020820190508181036000830152615700816156c4565b9050919050565b7f7472616e73666572206661696c00000000000000000000000000000000000000600082015250565b600061573d600d83613a5c565b915061574882615707565b602082019050919050565b6000602082019050818103600083015261576c81615730565b9050919050565b600061577f828961497b565b60148201915061578f828861497b565b60148201915061579f828761499c565b6020820191506157af8286614f91565b91506157bb828561499c565b6020820191506157cb828461499c565b60208201915081905097965050505050505056fea264697066735822122066dbce10201b90449c0f795520033cea05ad4399e0f80c7b0175cb52a3558bf364736f6c634300081e0033",
  "linkReferences": {},
  "deployedLinkReferences": {}
}