{
  "_format": "hh-sol-artifact-1",
  "contractName": "ProtectedPay",
  "sourceName": "contracts/ProtectedPay.sol",
  "abi": [
    {
      "anonymous": false,
      "inputs": [
        {
          "indexed": true,
          "internalType": "bytes32",
          "name": "paymentId",
          "type": "bytes32"
        },
        {
          "indexed": true,
          "internalType": "address",
          "name": "recipient",
          "type": "address"
        },
        {
          "indexed": false,
          "internalType": "uint256",
          "name": "amount",
          "type": "uint256"
        }
      ],
      "name": "GroupPaymentCompleted",
      "type": "event"
    },
    {
      "anonymous": false,
      "inputs": [
        {
          "indexed": true,
          "internalType": "bytes32",
          "name": "paymentId",
          "type": "bytes32"
        },
        {
          "indexed": true,
          "internalType": "address",
          "name": "contributor",
          "type": "address"
        },
        {
          "indexed": false,
          "internalType": "uint256",
          "name": "amount",
          "type": "uint256"
        }
      ],
      "name": "GroupPaymentContributed",
      "type": "event"
    },
    {
      "anonymous": false,
      "inputs": [
        {
          "indexed": true,
          "internalType": "bytes32",
          "name": "paymentId",
          "type": "bytes32"
        },
        {
          "indexed": true,
          "internalType": "address",
          "name": "creator",
          "type": "address"
        },
        {
          "indexed": false,
          "internalType": "address",
          "name": "recipient",
          "type": "address"
        },
        {
          "indexed": false,
          "internalType": "uint256",
          "name": "totalAmount",
          "type": "uint256"
        },
        {
          "indexed": false,
          "internalType": "uint256",
          "name": "numParticipants",
          "type": "uint256"
        },
        {
          "indexed": false,
          "internalType": "string",
          "name": "remarks",
          "type": "string"
        }
      ],
      "name": "GroupPaymentCreated",
      "type": "event"
    },
    {
      "anonymous": false,
      "inputs": [
        {
          "indexed": true,
          "internalType": "bytes32",
          "name": "potId",
          "type": "bytes32"
        },
        {
          "indexed": true,
          "internalType": "address",
          "name": "owner",
          "type": "address"
        },
        {
          "indexed": false,
          "internalType": "uint256",
          "name": "amount",
          "type": "uint256"
        }
      ],
      "name": "PotBroken",
      "type": "event"
    },
    {
      "anonymous": false,
      "inputs": [
        {
          "indexed": true,
          "internalType": "bytes32",
          "name": "potId",
          "type": "bytes32"
        },
        {
          "indexed": true,
          "internalType": "address",
          "name": "contributor",
          "type": "address"
        },
        {
          "indexed": false,
          "internalType": "uint256",
          "name": "amount",
          "type": "uint256"
        }
      ],
      "name": "PotContribution",
      "type": "event"
    },
    {
      "anonymous": false,
      "inputs": [
        {
          "indexed": true,
          "internalType": "bytes32",
          "name": "potId",
          "type": "bytes32"
        },
        {
          "indexed": true,
          "internalType": "address",
          "name": "owner",
          "type": "address"
        },
        {
          "indexed": false,
          "internalType": "string",
          "name": "name",
          "type": "string"
        },
        {
          "indexed": false,
          "internalType": "uint256",
          "name": "targetAmount",
          "type": "uint256"
        },
        {
          "indexed": false,
          "internalType": "string",
          "name": "remarks",
          "type": "string"
        }
      ],
      "name": "SavingsPotCreated",
      "type": "event"
    },
    {
      "anonymous": false,
      "inputs": [
        {
          "indexed": true,
          "internalType": "bytes32",
          "name": "transferId",
          "type": "bytes32"
        },
        {
          "indexed": true,
          "internalType": "address",
          "name": "recipient",
          "type": "address"
        },
        {
          "indexed": false,
          "internalType": "uint256",
          "name": "amount",
          "type": "uint256"
        }
      ],
      "name": "TransferClaimed",
      "type": "event"
    },
    {
      "anonymous": false,
      "inputs": [
        {
          "indexed": true,
          "internalType": "bytes32",
          "name": "transferId",
          "type": "bytes32"
        },
        {
          "indexed": true,
          "internalType": "address",
          "name": "sender",
          "type": "address"
        },
        {
          "indexed": true,
          "internalType": "address",
          "name": "recipient",
          "type": "address"
        },
        {
          "indexed": false,
          "internalType": "uint256",
          "name": "amount",
          "type": "uint256"
        },
        {
          "indexed": false,
          "internalType": "string",
          "name": "remarks",
          "type": "string"
        }
      ],
      "name": "TransferInitiated",
      "type": "event"
    },
    {
      "anonymous": false,
      "inputs": [
        {
          "indexed": true,
          "internalType": "bytes32",
          "name": "transferId",
          "type": "bytes32"
        },
        {
          "indexed": true,
          "internalType": "address",
          "name": "sender",
          "type": "address"
        },
        {
          "indexed": false,
          "internalType": "uint256",
          "name": "amount",
          "type": "uint256"
        }
      ],
      "name": "TransferRefunded",
      "type": "event"
    },
    {
      "anonymous": false,
      "inputs": [
        {
          "indexed": true,
          "internalType": "address",
          "name": "userAddress",
          "type": "address"
        },
        {
          "indexed": false,
          "internalType": "string",
          "name": "username",
          "type": "string"
        }
      ],
      "name": "UserRegistered",
      "type": "event"
    },
    {
      "inputs": [
        {
          "internalType": "bytes32",
          "name": "id",
          "type": "bytes32"
        }
      ],
      "name": "breakPot",
      "outputs": [],
      "stateMutability": "nonpayable",
      "type": "function"
    },
    {
      "inputs": [
        {
          "internalType": "address",
          "name": "s",
          "type": "address"
        }
      ],
      "name": "claimTransferByAddress",
      "outputs": [],
      "stateMutability": "nonpayable",
      "type": "function"
    },
    {
      "inputs": [
        {
          "internalType": "bytes32",
          "name": "id",
          "type": "bytes32"
        }
      ],
      "name": "claimTransferById",
      "outputs": [],
      "stateMutability": "nonpayable",
      "type": "function"
    },
    {
      "inputs": [
        {
          "internalType": "string",
          "name": "su",
          "type": "string"
        }
      ],
      "name": "claimTransferByUsername",
      "outputs": [],
      "stateMutability": "nonpayable",
      "type": "function"
    },
    {
      "inputs": [
        {
          "internalType": "bytes32",
          "name": "id",
          "type": "bytes32"
        }
      ],
      "name": "contributeToGroupPayment",
      "outputs": [],
      "stateMutability": "payable",
      "type": "function"
    },
    {
      "inputs": [
        {
          "internalType": "bytes32",
          "name": "id",
          "type": "bytes32"
        }
      ],
      "name": "contributeToSavingsPot",
      "outputs": [],
      "stateMutability": "payable",
      "type": "function"
    },
    {
      "inputs": [
        {
          "internalType": "address",
          "name": "r",
          "type": "address"
        },
        {
          "internalType": "uint256",
          "name": "n",
          "type": "uint256"
        },
        {
          "internalType": "string",
          "name": "rem",
          "type": "string"
        }
      ],
      "name": "createGroupPayment",
      "outputs": [],
      "stateMutability": "payable",
      "type": "function"
    },
    {
      "inputs": [
        {
          "internalType": "string",
          "name": "name",
          "type": "string"
        },
        {
          "internalType": "uint256",
          "name": "target",
          "type": "uint256"
        },
        {
          "internalType": "string",
          "name": "rem",
          "type": "string"
        }
      ],
      "name": "createSavingsPot",
      "outputs": [
        {
          "internalType": "bytes32",
          "name": "",
          "type": "bytes32"
        }
      ],
      "stateMutability": "nonpayable",
      "type": "function"
    },
    {
      "inputs": [
        {
          "internalType": "bytes32",
          "name": "id",
          "type": "bytes32"
        },
        {
          "internalType": "address",
          "name": "u",
          "type": "address"
        }
      ],
      "name": "getGroupPaymentContribution",
      "outputs": [
        {
          "internalType": "uint256",
          "name": "",
          "type": "uint256"
        }
      ],
      "stateMutability": "view",
      "type": "function"
    },
    {
      "inputs": [
        {
          "internalType": "bytes32",
          "name": "id",
          "type": "bytes32"
        }
      ],
      "name": "getGroupPaymentDetails",
      "outputs": [
        {
          "internalType": "address",
          "name": "",
          "type": "address"
        },
        {
          "internalType": "address",
          "name": "",
          "type": "address"
        },
        {
          "internalType": "uint256",
          "name": "",
          "type": "uint256"
        },
        {
          "internalType": "uint256",
          "name": "",
          "type": "uint256"
        },
        {
          "internalType": "uint256",
          "name": "",
          "type": "uint256"
        },
        {
          "internalType": "uint256",
          "name": "",
          "type": "uint256"
        },
        {
          "internalType": "uint256",
          "name": "",
          "type": "uint256"
        },
        {
          "internalType": "enum ProtectedPay.GroupPaymentStatus",
          "name": "",
          "type": "uint8"
        },
        {
          "internalType": "string",
          "name": "",
          "type": "string"
        }
      ],
      "stateMutability": "view",
      "type": "function"
    },
    {
      "inputs": [
        {
          "internalType": "address",
          "name": "s",
          "type": "address"
        }
      ],
      "name": "getPendingTransfers",
      "outputs": [
        {
          "internalType": "bytes32[]",
          "name": "",
          "type": "bytes32[]"
        }
      ],
      "stateMutability": "view",
      "type": "function"
    },
    {
      "inputs": [
        {
          "internalType": "bytes32",
          "name": "id",
          "type": "bytes32"
        }
      ],
      "name": "getSavingsPotDetails",
      "outputs": [
        {
          "internalType": "address",
          "name": "",
          "type": "address"
        },
        {
          "internalType": "string",
          "name": "",
          "type": "string"
        },
        {
          "internalType": "uint256",
          "name": "",
          "type": "uint256"
        },
        {
          "internalType": "uint256",
          "name": "",
          "type": "uint256"
        },
        {
          "internalType": "uint256",
          "name": "",
          "type": "uint256"
        },
        {
          "internalType": "enum ProtectedPay.PotStatus",
          "name": "",
          "type": "uint8"
        },
        {
          "internalType": "string",
          "name": "",
          "type": "string"
        }
      ],
      "stateMutability": "view",
      "type": "function"
    },
    {
      "inputs": [
        {
          "internalType": "bytes32",
          "name": "id",
          "type": "bytes32"
        }
      ],
      "name": "getTransferDetails",
      "outputs": [
        {
          "internalType": "address",
          "name": "",
          "type": "address"
        },
        {
          "internalType": "address",
          "name": "",
          "type": "address"
        },
        {
          "internalType": "uint256",
          "name": "",
          "type": "uint256"
        },
        {
          "internalType": "uint256",
          "name": "",
          "type": "uint256"
        },
        {
          "internalType": "enum ProtectedPay.TransferStatus",
          "name": "",
          "type": "uint8"
        },
        {
          "internalType": "string",
          "name": "",
          "type": "string"
        }
      ],
      "stateMutability": "view",
      "type": "function"
    },
    {
      "inputs": [
        {
          "internalType": "address",
          "name": "a",
          "type": "address"
        }
      ],
      "name": "getUserByAddress",
      "outputs": [
        {
          "internalType": "string",
          "name": "",
          "type": "string"
        }
      ],
      "stateMutability": "view",
      "type": "function"
    },
    {
      "inputs": [
        {
          "internalType": "string",
          "name": "u",
          "type": "string"
        }
      ],
      "name": "getUserByUsername",
      "outputs": [
        {
          "internalType": "address",
          "name": "",
          "type": "address"
        }
      ],
      "stateMutability": "view",
      "type": "function"
    },
    {
      "inputs": [
        {
          "internalType": "address",
          "name": "u",
          "type": "address"
        }
      ],
      "name": "getUserProfile",
      "outputs": [
        {
          "internalType": "string",
          "name": "",
          "type": "string"
        },
        {
          "internalType": "bytes32[]",
          "name": "",
          "type": "bytes32[]"
        },
        {
          "internalType": "bytes32[]",
          "name": "",
          "type": "bytes32[]"
        },
        {
          "internalType": "bytes32[]",
          "name": "",
          "type": "bytes32[]"
        },
        {
          "internalType": "bytes32[]",
          "name": "",
          "type": "bytes32[]"
        }
      ],
      "stateMutability": "view",
      "type": "function"
    },
    {
      "inputs": [
        {
          "internalType": "address",
          "name": "u",
          "type": "address"
        }
      ],
      "name": "getUserTransfers",
      "outputs": [
        {
          "components": [
            {
              "internalType": "address",
              "name": "sender",
              "type": "address"
            },
            {
              "internalType": "address",
              "name": "recipient",
              "type": "address"
            },
            {
              "internalType": "uint256",
              "name": "amount",
              "type": "uint256"
            },
            {
              "internalType": "uint256",
              "name": "timestamp",
              "type": "uint256"
            },
            {
              "internalType": "enum ProtectedPay.TransferStatus",
              "name": "status",
              "type": "uint8"
            },
            {
              "internalType": "string",
              "name": "remarks",
              "type": "string"
            }
          ],
          "internalType": "struct ProtectedPay.Transfer[]",
          "name": "",
          "type": "tuple[]"
        }
      ],
      "stateMutability": "view",
      "type": "function"
    },
    {
      "inputs": [
        {
          "internalType": "bytes32",
          "name": "",
          "type": "bytes32"
        },
        {
          "internalType": "address",
          "name": "",
          "type": "address"
        }
      ],
      "name": "groupPaymentContributions",
      "outputs": [
        {
          "internalType": "uint256",
          "name": "",
          "type": "uint256"
        }
      ],
      "stateMutability": "view",
      "type": "function"
    },
    {
      "inputs": [
        {
          "internalType": "bytes32",
          "name": "",
          "type": "bytes32"
        }
      ],
      "name": "groupPayments",
      "outputs": [
        {
          "internalType": "bytes32",
          "name": "paymentId",
          "type": "bytes32"
        },
        {
          "internalType": "address",
          "name": "creator",
          "type": "address"
        },
        {
          "internalType": "address",
          "name": "recipient",
          "type": "address"
        },
        {
          "internalType": "uint256",
          "name": "totalAmount",
          "type": "uint256"
        },
        {
          "internalType": "uint256",
          "name": "amountPerPerson",
          "type": "uint256"
        },
        {
          "internalType": "uint256",
          "name": "numParticipants",
          "type": "uint256"
        },
        {
          "internalType": "uint256",
          "name": "amountCollected",
          "type": "uint256"
        },
        {
          "internalType": "uint256",
          "name": "timestamp",
          "type": "uint256"
        },
        {
          "internalType": "string",
          "name": "remarks",
          "type": "string"
        },
        {
          "internalType": "enum ProtectedPay.GroupPaymentStatus",
          "name": "status",
          "type": "uint8"
        }
      ],
      "stateMutability": "view",
      "type": "function"
    },
    {
      "inputs": [
        {
          "internalType": "bytes32",
          "name": "id",
          "type": "bytes32"
        },
        {
          "internalType": "address",
          "name": "u",
          "type": "address"
        }
      ],
      "name": "hasContributedToGroupPayment",
      "outputs": [
        {
          "internalType": "bool",
          "name": "",
          "type": "bool"
        }
      ],
      "stateMutability": "view",
      "type": "function"
    },
    {
      "inputs": [
        {
          "internalType": "address",
          "name": "",
          "type": "address"
        },
        {
          "internalType": "uint256",
          "name": "",
          "type": "uint256"
        }
      ],
      "name": "pendingTransfersBySender",
      "outputs": [
        {
          "internalType": "bytes32",
          "name": "",
          "type": "bytes32"
        }
      ],
      "stateMutability": "view",
      "type": "function"
    },
    {
      "inputs": [
        {
          "internalType": "bytes32",
          "name": "id",
          "type": "bytes32"
        }
      ],
      "name": "refundTransfer",
      "outputs": [],
      "stateMutability": "nonpayable",
      "type": "function"
    },
    {
      "inputs": [
        {
          "internalType": "string",
          "name": "u",
          "type": "string"
        }
      ],
      "name": "registerUsername",
      "outputs": [],
      "stateMutability": "nonpayable",
      "type": "function"
    },
    {
      "inputs": [
        {
          "internalType": "bytes32",
          "name": "",
          "type": "bytes32"
        }
      ],
      "name": "savingsPots",
      "outputs": [
        {
          "internalType": "bytes32",
          "name": "potId",
          "type": "bytes32"
        },
        {
          "internalType": "address",
          "name": "owner",
          "type": "address"
        },
        {
          "internalType": "string",
          "name": "name",
          "type": "string"
        },
        {
          "internalType": "uint256",
          "name": "targetAmount",
          "type": "uint256"
        },
        {
          "internalType": "uint256",
          "name": "currentAmount",
          "type": "uint256"
        },
        {
          "internalType": "uint256",
          "name": "timestamp",
          "type": "uint256"
        },
        {
          "internalType": "string",
          "name": "remarks",
          "type": "string"
        },
        {
          "internalType": "enum ProtectedPay.PotStatus",
          "name": "status",
          "type": "uint8"
        }
      ],
      "stateMutability": "view",
      "type": "function"
    },
    {
      "inputs": [
        {
          "internalType": "address",
          "name": "r",
          "type": "address"
        },
        {
          "internalType": "string",
          "name": "rem",
          "type": "string"
        }
      ],
      "name": "sendToAddress",
      "outputs": [],
      "stateMutability": "payable",
      "type": "function"
    },
    {
      "inputs": [
        {
          "internalType": "string",
          "name": "u",
          "type": "string"
        },
        {
          "internalType": "string",
          "name": "rem",
          "type": "string"
        }
      ],
      "name": "sendToUsername",
      "outputs": [],
      "stateMutability": "payable",
      "type": "function"
    },
    {
      "inputs": [
        {
          "internalType": "bytes32",
          "name": "",
          "type": "bytes32"
        }
      ],
      "name": "transfers",
      "outputs": [
        {
          "internalType": "address",
          "name": "sender",
          "type": "address"
        },
        {
          "internalType": "address",
          "name": "recipient",
          "type": "address"
        },
        {
          "internalType": "uint256",
          "name": "amount",
          "type": "uint256"
        },
        {
          "internalType": "uint256",
          "name": "timestamp",
          "type": "uint256"
        },
        {
          "internalType": "enum ProtectedPay.TransferStatus",
          "name": "status",
          "type": "uint8"
        },
        {
          "internalType": "string",
          "name": "remarks",
          "type": "string"
        }
      ],
      "stateMutability": "view",
      "type": "function"
    },
    {
      "inputs": [
        {
          "internalType": "string",
          "name": "",
          "type": "string"
        }
      ],
      "name": "usernameToAddress",
      "outputs": [
        {
          "internalType": "address",
          "name": "",
          "type": "address"
        }
      ],
      "stateMutability": "view",
      "type": "function"
    },
    {
      "inputs": [
        {
          "internalType": "address",
          "name": "",
          "type": "address"
        }
      ],
      "name": "users",
      "outputs": [
        {
          "internalType": "string",
          "name": "username",
          "type": "string"
        }
      ],
      "stateMutability": "view",
      "type": "function"
    }
  ],
  "bytecode": "0x6080806040523460155761260a908161001b8239f35b600080fdfe6080604052600436101561001257600080fd5b6000803560e01c8063166acd3e14611abf57806319926325146117435780632b33cfcc1461167f578063335d3410146114725780633588a527146113b357806336a94134146110e1578063376f383d146110925780633c64f04b1461079a5780634f9f4c0f14610fea578063538845df14610b1b57806354a4d69214610ad557806354f4f17914610a93578063693330e5146109dc57806369c212f614610607578063741d1d361461080057806392a050871461079a57806396115f231461037d578063987ee156146106b15780639f42af631461017e578063a804a8ba1461065a578063a87430ba14610607578063ac75c4c3146104f6578063ad991c15146103c1578063b0c49df21461037d578063cc84aad31461035b578063f2bd47d2146102a3578063f2cf7a16146101c5578063f825f1431461017e5763fb89384b1461015c57600080fd5b3461017b57602036600319011261017b576101786004356124b8565b80f35b80fd5b503461017b57602061018f36611dcd565b816101a36040519283815193849201611ca8565b600690820190815281900382019020546040516001600160a01b039091168152f35b503461017b57602036600319011261017b576004356001600160401b038111610269576101f6903690600401611d41565b8060405192833760069082019081528190036020019020546001600160a01b0316801561026d57303b15610269576040519063cc84aad360e01b8252600482015281808260248183305af1801561025c5761024e5780f35b61025791611be3565b388180f35b50604051903d90823e3d90fd5b5080fd5b60405162461bcd60e51b815260206004820152600e60248201526d3ab735b737bbb71039b2b73232b960911b6044820152606490fd5b50604036600319011261017b576004356001600160401b038111610269576102cf903690600401611d41565b906024356001600160401b038111610357576102ef903690600401611d41565b9190928060405192833760069082019081528190036020019020546001600160a01b0316918215610323576101789261206d565b60405162461bcd60e51b815260206004820152600c60248201526b3ab735b737bbb7103ab9b2b960a11b6044820152606490fd5b8380fd5b503461017b57602036600319011261017b57610178610378611d10565b6123e7565b503461017b57604036600319011261017b57604060209161039c611d2b565b6004358252600384528282206001600160a01b03909116825283522054604051908152f35b503461017b57602036600319011261017b576004358082528160205260408220906004820160ff81541660038110156104e2576103fe90156123ad565b82546001600160a01b031633036104b057600260ff1982541617905560028201918383549355838080808660018060a01b038654165af161043d61237d565b501561047d57546040519283526001600160a01b0316917f04f52f70a574c3facc8188d13efa4536b1ab3b9571e5ed36201886191c4686ce90602090a380f35b60405162461bcd60e51b815260206004820152600b60248201526a1c99599d5b990819985a5b60aa1b6044820152606490fd5b60405162461bcd60e51b815260206004820152600a6024820152693737ba1039b2b73232b960b11b6044820152606490fd5b634e487b7160e01b85526021600452602485fd5b503461017b57602036600319011261017b57600480358083526020919091526040822060018101546001600160a01b031633036105d657806007600492016001815461054e60ff821661054881611cf0565b15611fc6565b60ff1916179055019082825492558280808085335af161056c61237d565b50156105a1576040519182527faace9d1f49d903287c466e93c747ae08d8809dfebbc01979892725374a54b65960203393a380f35b60405162461bcd60e51b815260206004820152600d60248201526c1dda5d1a191c985dc819985a5b609a1b6044820152606490fd5b60405162461bcd60e51b81526020600482015260096024820152683737ba1037bbb732b960b91b6044820152606490fd5b503461017b57602036600319011261017b5761065690610642906040906001600160a01b03610634611d10565b168152600560205220611c04565b604051918291602083526020830190611ccb565b0390f35b503461017b57604036600319011261017b57610674611d10565b6001600160a01b031681526001602052604081208054602435929083101561017b5760206106a28484611e87565b90549060031b1c604051908152f35b503461017b57602036600319011261017b57610762906106566001600160a01b036106da611d10565b1691828152600560205261078c60408220848352600760205261077e6040842095808552600860205261077061074d61074761074161073b6107356040808c209b8881526009602052818120988152600a6020522098611c04565b9b612022565b98612022565b93612022565b94612022565b95604051998a9960a08b5260a08b0190611ccb565b9089820360208b0152611e0b565b908782036040890152611e0b565b908582036060870152611e0b565b908382036080850152611e0b565b503461017b57602036600319011261017b576040906004358152806020522060018060a01b0381541661065660018060a01b036001840154169260028101549060038101546107f3600560ff6004850154169301611c04565b9260405196879687611e3f565b50602036600319011261017b5760043580825260026020526040822060018101549091906001600160a01b0316156109aa576009820160ff81541661084481611cf0565b61097f57610853341515611ef1565b81845260036020908152604080862033875290915284208054610877903490611fff565b90556006830192610889348554611fff565b845533855260096020526108a08360408720611f40565b604051348152837f8d82275ff5d7b750bbe51c079b9534d59f43e338c9050032980a925f56d820e460203393a38484549460038301548610156108e1575080f35b600293600160ff198254161790555501838080808660018060a01b038654165af161090a61237d565b501561094f57546040519283526001600160a01b0316917f556fd18f95929395205dd1f9d95eaa44e911b1d68470eddfb643af754b51677490602090a3388080808480f35b60405162461bcd60e51b81526020600482015260086024820152671c185e4819985a5b60c21b6044820152606490fd5b606460405162461bcd60e51b8152602060048201526004602482015263646f6e6560e01b6044820152fd5b60405162461bcd60e51b815260206004820152600a6024820152691b9bc81c185e5b595b9d60b21b6044820152606490fd5b503461017b57602036600319011261017b57604090600435815260026020522060018060a01b0360018201541661065660018060a01b036002840154169260038101549060048101546005820154600683015490600784015492610a4a600860ff6009880154169601611c04565b95604051998a998a5260208a015260408901526060880152608087015260a086015260c0850152610a7a81611cf0565b60e0840152610120610100840152610120830190611ccb565b50604036600319011261017b57610aa8611d10565b602435906001600160401b038211610ad157610acb610178923690600401611d41565b9161206d565b8280fd5b503461017b57604036600319011261017b576040602091610af4611d2b565b6004358252600384528282206001600160a01b039091168252835220546040519015158152f35b503461017b57606036600319011261017b576004356001600160401b03811161026957610b4c903690600401611d41565b906044356001600160401b03811161035757610b6c903690600401611d41565b90918315610fb85760405160208101903360601b825285836034830137610bc060406020836034888b830160243583820152818c605483013701014283820152448482015203016020810184520182611be3565b519020936040519261010084018481106001600160401b03821117610fa45760405285845260208401338152610bf7368486611d96565b6040860190815260243560608701528860808701524260a0870152610c1d368489611d96565b60c087015260e086018990528789526004602052604089208651815591516001830180546001600160a01b0319166001600160a01b0392909216919091179055518051906001600160401b038211610f90578190610c7e6002850154611b78565b601f8111610f3f575b50602090601f8311600114610ed6578b92610ecb575b50508160011b916000199060031b1c19161760028201555b606085015160038201556080850151600482015560a085015160058201556006810160c08601518051906001600160401b038211610eb757610cf78354611b78565b601f8111610e72575b50918996959493918b9360209c508c90601f8311600114610dd557610d9194600760e08c9d7fc37777608149a4bf6c4b972d5908ec69969eee6cf2853aad2d3aed7702932fc09d97876040988c98610d8498610dbf9f9e92610dca575b50508160011b916000199060031b1c19161790555b015191610d7e83611cf0565b01611f28565b338152600a8d5220611f40565b610da8604051948594606086526060860191611f7a565b906024358a85015283820360408501523397611f7a565b0390a3604051908152f35b015190503880610d5d565b8386528186209190601f198416875b818110610e57575060e08c9d7fc37777608149a4bf6c4b972d5908ec69969eee6cf2853aad2d3aed7702932fc09d97600188610dbf9d9c98610d8498610d919d9860409c60079910610e3e575b505050811b019055610d72565b015160001960f88460031b161c19169055388080610e31565b8383015185558f9c5060019094019360209384019301610de4565b838c5260208c20601f840160051c81019160208510610ead575b601f0160051c01905b818110610ea25750610d00565b8c8155600101610e95565b9091508190610e8c565b634e487b7160e01b8b52604160045260248bfd5b015190503880610c9d565b600285018c52818c209250601f1984168c5b818110610f275750908460019594939210610f0e575b505050811b016002820155610cb5565b015160001960f88460031b161c19169055388080610efe565b92936020600181928786015181550195019301610ee8565b909150600284018b5260208b20601f840160051c810160208510610f89575b90849392915b8d601f840160051c83018210610f7c57505050610c87565b8155859450600101610f64565b5080610f5e565b634e487b7160e01b8a52604160045260248afd5b634e487b7160e01b88526041600452602488fd5b60405162461bcd60e51b815260206004820152600a602482015269656d707479206e616d6560b01b6044820152606490fd5b503461017b57602036600319011261017b57604090600435815260046020522060018060a01b0360018201541661065660038301546004840154600585015460ff6007870154169061104a600661104360028a01611c04565b9801611c04565b92611067604051988998895260e060208a015260e0890190611ccb565b9460408801526060870152608086015261108081611cf0565b60a085015283820360c0850152611ccb565b503461017b57602036600319011261017b57610656906110cd906040906001600160a01b036110bf611d10565b168152600160205220612022565b604051918291602083526020830190611e0b565b503461017b576110f036611dcd565b80511561137d57604051815190602083019161110d818385611ca8565b60069082019081528190036020019020546001600160a01b03168015908115611373575b501561134657338352600560205261114b60408420611c04565b805180151580611334575b6112fd575b505033835260056020526040832082516001600160401b0381116112e9576111838254611b78565b601f81116112a4575b506020601f821160011461123d5791816111d094926020948891611232575b508160011b916000199060031b1c19161790555b604051809381928651928391611ca8565b8101600681520301902060018060a01b0333166001600160601b0360a01b8254161790557f48cac28ad4dc618e15f4c2dd5e97751182f166de97b25618318b2112aa951a2f604051602081528061122c33946020830190611ccb565b0390a280f35b9050860151386111ab565b82865280862090601f198316875b81811061128c57509260209492600192826111d0989610611273575b5050811b0190556111bf565b88015160001960f88460031b161c191690553880611267565b9192602060018192868b01518155019401920161124b565b82865260208620601f830160051c810191602084106112df575b601f0160051c01905b8181106112d4575061118c565b8681556001016112c7565b90915081906112be565b634e487b7160e01b85526041600452602485fd5b6020918161131384936040518096819501611ca8565b810160068152030190206001600160601b0360a01b8154169055388061115b565b50806020830120845184201415611156565b60405162461bcd60e51b81526020600482015260056024820152643a30b5b2b760d91b6044820152606490fd5b9050331438611131565b60405162461bcd60e51b815260206004820152600e60248201526d656d70747920757365726e616d6560901b6044820152606490fd5b50602036600319011261017b57600480358083526020919091526040822060018101546001600160a01b03161561144457806113fb60ff600760049401541661054881611cf0565b611406341515611ef1565b01611412348254611fff565b9055604051903482527fc6ce62290e4c375126df2454eca7e50cd1b3593c0a107d72c8c6f14e905a1d7360203393a380f35b60405162461bcd60e51b81526020600482015260066024820152651b9bc81c1bdd60d21b6044820152606490fd5b503461017b57602036600319011261017b576001600160a01b03611494611d10565b16815260076020526040812080546114ab81611f9b565b916114b96040519384611be3565b818352601f196114c883611f9b565b01845b818110611643575050835b8281106115915783856040519182916020830160208452825180915260408401602060408360051b870101940192905b82821061151557505050500390f35b919360019193955060206115818192603f198a820301865260c060a08a518780831b0381511684528780831b03868201511686850152604081015160408501526060810151606085015261157160808201516080860190611d6e565b0151918160a08201520190611ccb565b9601920192018594939192611506565b61159b8183611e87565b90549060031b1c85528460205260408520604051906115b982611bb2565b80546001600160a01b0390811683526001820154166020830152600281015460408301526003808201546060840152600482015460ff169081101561162f576005839261160e92608060019796015201611c04565b60a082015261161d8287611fb2565b526116288186611fb2565b50016114d6565b634e487b7160e01b88526021600452602488fd5b60209060405161165281611bb2565b8781528783820152876040820152876060820152876080820152606060a0820152828288010152016114cb565b503461017b57602036600319011261017b576040906004358152600260205220805460018060a01b036001830154169161172f60018060a01b036002830154169160038101546004820154600583015460068401549160078501549360ff60096116eb60088901611c04565b97015416976040519a8b9a8b5260208b015260408a01526060890152608088015260a087015260c086015260e0850152610140610100850152610140840190611ccb565b9061173981611cf0565b6101208301520390f35b50606036600319011261017b57611758611d10565b602435906044356001600160401b0381116103575761177b903690600401611d41565b9290916001600160a01b03811690611794821515611eb5565b8215611a92576117a5341515611ef1565b60405160208101913360601b83526001600160601b03199060601b166034820152346048820152836068820152858560888301376117fe604060888389810142838201524460a882015203016020810184520182611be3565b5190209260405161014081018181106001600160401b03821117610fa45760405284815284878760208401338152604085018781526060860134815260808701908a3404825260a08801928b845260c089019487865260406118698c60e08d0199428b523691611d96565b6101008c019081526101208c018a81529a8a5260026020819052919099209a518b55905160018b0180546001600160a01b03199081166001600160a01b03938416179091559251918b018054909316911617905551600388015551600487015551600586015551600685015551600784015551805160088401916001600160401b038211610eb7576118fb8354611b78565b601f8111611a4d575b506020908b601f84116001146119ba5793836119a997946009947f9f67526ceae30d6bfe53a19736fbd08c082b42e6c27a8d66ff93013e3686f0669c9b9a989461196e98926119af575b50508160011b916000199060031b1c19161790555b5191610d7e83611cf0565b33885260086020526119838660408a20611f40565b604051938493845234602085015260408401526080606084015233966080840191611f7a565b0390a380f35b01519050388061194e565b50838c52818c209190601f1984168d5b818110611a355750846009947f9f67526ceae30d6bfe53a19736fbd08c082b42e6c27a8d66ff93013e3686f0669c9b9a989461196e98946119a99b9860019510611a1c575b505050811b019055611963565b015160001960f88460031b161c19169055388080611a0f565b929360206001819287860151815501950193016119ca565b838c5260208c20601f840160051c81019160208510611a88575b601f0160051c01905b818110611a7d5750611904565b8c8155600101611a70565b9091508190611a67565b60405162461bcd60e51b815260206004820152600560248201526406e756d3d360dc1b6044820152606490fd5b503461017b57602036600319011261017b5760048035825260205260409020805460018201546001600160a01b031691611b65611afe60028301611c04565b916003810154906004810154600582015490611b4860ff6007611b2360068701611c04565b9501541696604051998a998a5260208a015261010060408a0152610100890190611ccb565b936060880152608087015260a086015284820360c0860152611ccb565b90611b6f81611cf0565b60e08301520390f35b90600182811c92168015611ba8575b6020831014611b9257565b634e487b7160e01b600052602260045260246000fd5b91607f1691611b87565b60c081019081106001600160401b03821117611bcd57604052565b634e487b7160e01b600052604160045260246000fd5b90601f801991011681019081106001600160401b03821117611bcd57604052565b9060405191826000825492611c1884611b78565b8084529360018116908115611c865750600114611c3f575b50611c3d92500383611be3565b565b90506000929192526020600020906000915b818310611c6a575050906020611c3d9282010138611c30565b6020919350806001915483858901015201910190918492611c51565b905060209250611c3d94915060ff191682840152151560051b82010138611c30565b60005b838110611cbb5750506000910152565b8181015183820152602001611cab565b90602091611ce481518092818552858086019101611ca8565b601f01601f1916010190565b60021115611cfa57565b634e487b7160e01b600052602160045260246000fd5b600435906001600160a01b0382168203611d2657565b600080fd5b602435906001600160a01b0382168203611d2657565b9181601f84011215611d26578235916001600160401b038311611d265760208381860195010111611d2657565b906003821015611cfa5752565b6001600160401b038111611bcd57601f01601f191660200190565b929192611da282611d7b565b91611db06040519384611be3565b829481845281830111611d26578281602093846000960137010152565b6020600319820112611d2657600435906001600160401b038211611d265780602383011215611d2657816024611e0893600401359101611d96565b90565b906020808351928381520192019060005b818110611e295750505090565b8251845260209384019390920191600101611e1c565b6001600160a01b0391821681529116602082015260408101919091526060810191909152611e08929160c09190611e7a906080830190611d6e565b8160a08201520190611ccb565b8054821015611e9f5760005260206000200190600090565b634e487b7160e01b600052603260045260246000fd5b15611ebc57565b60405162461bcd60e51b815260206004820152600d60248201526c189859081c9958da5c1a595b9d609a1b6044820152606490fd5b15611ef857565b60405162461bcd60e51b81526020600482015260086024820152676e6f2076616c756560c01b6044820152606490fd5b90611f3281611cf0565b60ff80198354169116179055565b805468010000000000000000811015611bcd57611f6291600182018155611e87565b819291549060031b91821b91600019901b1916179055565b908060209392818452848401376000828201840152601f01601f1916010190565b6001600160401b038111611bcd5760051b60200190565b8051821015611e9f5760209160051b010190565b15611fcd57565b60405162461bcd60e51b815260206004820152600a6024820152696e6f742061637469766560b01b6044820152606490fd5b9190820180921161200c57565b634e487b7160e01b600052601160045260246000fd5b906040519182815491828252602082019060005260206000209260005b818110612054575050611c3d92500383611be3565b845483526001948501948794506020909301920161203f565b6001600160a01b038116929190612085841515611eb5565b612090341515611ef1565b61209b368484611d96565b6120f9604060688151809460208201963360601b88526001600160601b03199060601b1660348301523460488301526120dd8151809260208686019101611ca8565b8101428382015244608882015203016020810184520182611be3565b5190209060405161210981611bb2565b338152602081018581526040820134815260608301428152608084019160008352612135368988611d96565b60a086019081526000888152602081905260409020955186546001600160a01b03199081166001600160a01b039283161788559551600188018054909716911617909455516002850155516003808501919091559051926004810191841015611cfa5760059160009460ff801983541691161790550190518051906001600160401b038211612369579082916121cd87959454611b78565b601f8111612313575b50602090601f83116001146122805793612254938361227097946040947f173f4073d95dd46f8ea11fd8624f55bfa3ba38f211968d9b3c8811f3f531d8ef9a988592612275575b50508160011b916000199060031b1c19161790555b338152600160205261224683838320611f40565b338152600760205220611f40565b6040519182913483526040602084015233966040840191611f7a565b0390a4565b01519050388061221d565b8385528185209190601f198416865b8181106122f85750846040947f173f4073d95dd46f8ea11fd8624f55bfa3ba38f211968d9b3c8811f3f531d8ef9a989461225498946122709b98600195106122df575b505050811b019055612232565b015160001960f88460031b161c191690553880806122d2565b8284015185558a98506001909401936020938401930161228f565b90919284819596505260208520601f840160051c8101916020851061235f575b90601f899796959493920160051c01905b81811061235157506121d6565b858155889650600101612344565b9091508190612333565b634e487b7160e01b84526041600452602484fd5b3d156123a8573d9061238e82611d7b565b9161239c6040519384611be3565b82523d6000602084013e565b606090565b156123b457565b60405162461bcd60e51b815260206004820152600b60248201526a6e6f742070656e64696e6760a81b6044820152606490fd5b6001600160a01b03166000908152600160205260408120905b815481101561247d576124138183611e87565b90549060031b1c6000526000602052604060002060ff6004820154166003811015611cfa57159081612466575b5061244d57600101612400565b61245a90611c3d92611e87565b90549060031b1c6124b8565b600101546001600160a01b03163314905038612440565b60405162461bcd60e51b81526020600482015260136024820152723737903832b73234b733903a3930b739b332b960691b6044820152606490fd5b8060005260006020526040600020906004820160ff8154166003811015611cfa576124e390156123ad565b6001830180549093906001600160a01b0316330361259f57600291600160ff19825416179055019160008354935560008080808660018060a01b038654165af161252b61237d565b501561256a57546040519283526001600160a01b0316917f54e6888b93343929fb4c04c33f95a6f9df6993d77d70520adece23bf63fbd9bb90602090a3565b60405162461bcd60e51b815260206004820152600d60248201526c1d1c985b9cd9995c8819985a5b609a1b6044820152606490fd5b60405162461bcd60e51b815260206004820152600d60248201526c1b9bdd081c9958da5c1a595b9d609a1b6044820152606490fdfea2646970667358221220c392bdcd094adf2590ca0c45c1774b50d51922c60e6c38afe88843931157428964736f6c634300081e0033",
  "linkReferences": {},
  "deployedLinkReferences": {}
}