{
  "_format": "hh-sol-artifact-1",
  "contractName": "OrbitalMathHelperEVM",
  "sourceName": "contracts/OrbitalMathHelperEVM.sol",
  "abi": [
    {
      "inputs": [
        {
          "internalType": "uint256",
          "name": "r",
          "type": "uint256"
        },
        {
          "internalType": "uint256",
          "name": "",
          "type": "uint256"
        }
      ],
      "name": "calculateBoundaryTickS",
      "outputs": [
        {
          "internalType": "uint256",
          "name": "",
          "type": "uint256"
        }
      ],
      "stateMutability": "pure",
      "type": "function"
    },
    {
      "inputs": [
        {
          "internalType": "uint256[]",
          "name": "reserves",
          "type": "uint256[]"
        }
      ],
      "name": "calculateRadius",
      "outputs": [
        {
          "internalType": "uint256",
          "name": "",
          "type": "uint256"
        }
      ],
      "stateMutability": "pure",
      "type": "function"
    },
    {
      "inputs": [
        {
          "internalType": "uint256",
          "name": "sum_interior_reserves",
          "type": "uint256"
        },
        {
          "internalType": "uint256",
          "name": "interior_consolidated_radius",
          "type": "uint256"
        },
        {
          "internalType": "uint256",
          "name": "boundary_consolidated_radius",
          "type": "uint256"
        },
        {
          "internalType": "uint256",
          "name": "boundary_total_k_bound",
          "type": "uint256"
        },
        {
          "internalType": "uint256[]",
          "name": "total_reserves",
          "type": "uint256[]"
        },
        {
          "internalType": "uint256",
          "name": "token_in_index",
          "type": "uint256"
        },
        {
          "internalType": "uint256",
          "name": "token_out_index",
          "type": "uint256"
        },
        {
          "internalType": "uint256",
          "name": "amount_in_after_fee",
          "type": "uint256"
        }
      ],
      "name": "solveTorusInvariant",
      "outputs": [
        {
          "internalType": "uint256",
          "name": "",
          "type": "uint256"
        }
      ],
      "stateMutability": "pure",
      "type": "function"
    }
  ],
  "bytecode": "0x60808060405234601557610433908161001b8239f35b600080fdfe6080604052600436101561001257600080fd5b60003560e01c806319be0803146100a257806350272f1c1461005f57636bec96e01461003d57600080fd5b3461005a57604036600319011261005a5760206040516004358152f35b600080fd5b3461005a57602036600319011261005a5760043567ffffffffffffffff811161005a5761009a61009560209236906004016100ea565b61033d565b604051908152f35b3461005a5761010036600319011261005a5760843567ffffffffffffffff811161005a5761009a6100d960209236906004016100ea565b60e4359060c4359060a435906101c8565b9080601f8301121561005a5781359167ffffffffffffffff8311610165578260051b9060405193601f19603f840116850185811067ffffffffffffffff82111761016557604052845260208085019282010192831161005a57602001905b8282106101555750505090565b8135815260209182019101610148565b634e487b7160e01b600052604160045260246000fd5b805182101561018f5760209160051b010190565b634e487b7160e01b600052603260045260246000fd5b919082039182116101b257565b634e487b7160e01b600052601160045260246000fd5b91825180156103105780831015610310578110156102c0578082146102c0576101f46101fb928461017b565b519261017b565b519180159081158281610335575b801561032d575b6103105784158015908161031a575b5061031057848002938184816102fd575b506102f25782026001600160ff1b0381116102f25760011b92816102c9575b506102c057800290811981116102c0570190808210156102b85761027b91610276916101a5565b6103a4565b818110156102b15761028d90826101a5565b9081159081156102a6575b506102a05790565b50600090565b905081101538610298565b5050600090565b505050600090565b50505050600090565b90506102dc57806000190481113861024f565b634e487b7160e01b600052601260045260246000fd5b505050505050600090565b90506102dc578260001904811184610230565b5050505050600090565b90506102dc57846000190485113861021f565b508415610210565b508315610209565b8051156102a0576000805b82518210156103955761035b828461017b565b51801580159081610382575b506102c0578002801982116102c05760019101910190610348565b90506102dc578060001904811138610367565b90506103a191506103a4565b90565b80156102a057600181018082116101b25760011c815b8282106103c657505090565b90915081600081156103e957508082049081018091116101b25760011c906103ba565b634e487b7160e01b81526012600452602490fdfea2646970667358221220b13573b530ebe0b20a9935c39991892d0811aba0e4f1a7c16e2f19ed5fdd80c864736f6c634300081e0033",
  "linkReferences": {},
  "deployedLinkReferences": {}
}