{
  "_format": "hh-sol-artifact-1",
  "contractName": "OrbitalMathHelperEVM",
  "sourceName": "contracts/OrbitalMathHelperEVM.sol",
  "abi": [
    {
      "inputs": [
        {
          "internalType": "uint256",
          "name": "sum_interior_reserves",
          "type": "uint256"
        },
        {
          "internalType": "uint256",
          "name": "interior_consolidated_radius",
          "type": "uint256"
        },
        {
          "internalType": "uint256",
          "name": "boundary_consolidated_radius",
          "type": "uint256"
        },
        {
          "internalType": "uint256",
          "name": "boundary_total_k_bound",
          "type": "uint256"
        },
        {
          "internalType": "uint256[]",
          "name": "total_reserves",
          "type": "uint256[]"
        },
        {
          "internalType": "uint256",
          "name": "token_in_index",
          "type": "uint256"
        },
        {
          "internalType": "uint256",
          "name": "token_out_index",
          "type": "uint256"
        },
        {
          "internalType": "uint256",
          "name": "amount_in_after_fee",
          "type": "uint256"
        }
      ],
      "name": "solveTorusInvariant",
      "outputs": [
        {
          "internalType": "uint256",
          "name": "",
          "type": "uint256"
        }
      ],
      "stateMutability": "pure",
      "type": "function"
    }
  ],
  "bytecode": "0x6080604052348015600f57600080fd5b506107c38061001f6000396000f3fe608060405234801561001057600080fd5b506004361061002b5760003560e01c806319be080314610030575b600080fd5b61004a6004803603810190610045919061056b565b610060565b604051610057919061064c565b60405180910390f35b6000808551036100735760009050610347565b845184106100845760009050610347565b845183106100955760009050610347565b8284036100a55760009050610347565b60008585815181106100ba576100b9610667565b5b6020026020010151905060008685815181106100d9576100d8610667565b5b60200260200101519050600084905060008114806100f75750600083145b806101025750600082145b156101135760009350505050610347565b60008083141580156101545750827fffffffffffffffffffffffffffffffffffffffffffffffffffffffffffffffff816101505761014f610696565b5b0483115b15610166576000945050505050610347565b828302905060008083141580156101ac5750827fffffffffffffffffffffffffffffffffffffffffffffffffffffffffffffffff816101a8576101a7610696565b5b0485115b156101bf57600095505050505050610347565b8285029050600060027fffffffffffffffffffffffffffffffffffffffffffffffffffffffffffffffff816101f7576101f6610696565b5b0482111561020e5760009650505050505050610347565b60028202905060008085141580156102555750847fffffffffffffffffffffffffffffffffffffffffffffffffffffffffffffffff8161025157610250610696565b5b0485115b1561026a576000975050505050505050610347565b84850290506000817fffffffffffffffffffffffffffffffffffffffffffffffffffffffffffffffff038311156102ac57600098505050505050505050610347565b81830190508481106102c957600098505050505050505050610347565b600081866102d791906106f4565b905060006102e482610353565b90508881106103005760009a5050505050505050505050610347565b6000818a61030e91906106f4565b9050600081148061031f5750898110155b156103385760009b505050505050505050505050610347565b809b5050505050505050505050505b98975050505050505050565b600080820361036557600090506103c3565b600060026001846103769190610728565b610380919061075c565b905060008390505b808210156103bd5781905060028283866103a2919061075c565b6103ac9190610728565b6103b6919061075c565b9150610388565b80925050505b919050565b6000604051905090565b600080fd5b600080fd5b6000819050919050565b6103ef816103dc565b81146103fa57600080fd5b50565b60008135905061040c816103e6565b92915050565b600080fd5b6000601f19601f8301169050919050565b7f4e487b7100000000000000000000000000000000000000000000000000000000600052604160045260246000fd5b61046082610417565b810181811067ffffffffffffffff8211171561047f5761047e610428565b5b80604052505050565b60006104926103c8565b905061049e8282610457565b919050565b600067ffffffffffffffff8211156104be576104bd610428565b5b602082029050602081019050919050565b600080fd5b60006104e76104e2846104a3565b610488565b9050808382526020820190506020840283018581111561050a576105096104cf565b5b835b81811015610533578061051f88826103fd565b84526020840193505060208101905061050c565b5050509392505050565b600082601f83011261055257610551610412565b5b81356105628482602086016104d4565b91505092915050565b600080600080600080600080610100898b03121561058c5761058b6103d2565b5b600061059a8b828c016103fd565b98505060206105ab8b828c016103fd565b97505060406105bc8b828c016103fd565b96505060606105cd8b828c016103fd565b955050608089013567ffffffffffffffff8111156105ee576105ed6103d7565b5b6105fa8b828c0161053d565b94505060a061060b8b828c016103fd565b93505060c061061c8b828c016103fd565b92505060e061062d8b828c016103fd565b9150509295985092959890939650565b610646816103dc565b82525050565b6000602082019050610661600083018461063d565b92915050565b7f4e487b7100000000000000000000000000000000000000000000000000000000600052603260045260246000fd5b7f4e487b7100000000000000000000000000000000000000000000000000000000600052601260045260246000fd5b7f4e487b7100000000000000000000000000000000000000000000000000000000600052601160045260246000fd5b60006106ff826103dc565b915061070a836103dc565b9250828203905081811115610722576107216106c5565b5b92915050565b6000610733826103dc565b915061073e836103dc565b9250828201905080821115610756576107556106c5565b5b92915050565b6000610767826103dc565b9150610772836103dc565b92508261078257610781610696565b5b82820490509291505056fea2646970667358221220248b3bb859a82a95125e6e4305957949aaf7fc49404e6ffbf5c63d3abd1d58e564736f6c634300081e0033",
  "linkReferences": {},
  "deployedLinkReferences": {}
}