{
  "_format": "hh-sol-artifact-1",
  "contractName": "MockStableOracle",
  "sourceName": "contracts/MockStableOracle.sol",
  "abi": [
    {
      "inputs": [
        {
          "internalType": "address",
          "name": "owner_",
          "type": "address"
        }
      ],
      "stateMutability": "nonpayable",
      "type": "constructor"
    },
    {
      "inputs": [
        {
          "internalType": "address",
          "name": "owner",
          "type": "address"
        }
      ],
      "name": "OwnableInvalidOwner",
      "type": "error"
    },
    {
      "inputs": [
        {
          "internalType": "address",
          "name": "account",
          "type": "address"
        }
      ],
      "name": "OwnableUnauthorizedAccount",
      "type": "error"
    },
    {
      "anonymous": false,
      "inputs": [
        {
          "indexed": true,
          "internalType": "address",
          "name": "previousOwner",
          "type": "address"
        },
        {
          "indexed": true,
          "internalType": "address",
          "name": "newOwner",
          "type": "address"
        }
      ],
      "name": "OwnershipTransferred",
      "type": "event"
    },
    {
      "inputs": [
        {
          "internalType": "bytes32",
          "name": "symbol",
          "type": "bytes32"
        }
      ],
      "name": "localPerUSDT",
      "outputs": [
        {
          "internalType": "uint256",
          "name": "",
          "type": "uint256"
        }
      ],
      "stateMutability": "view",
      "type": "function"
    },
    {
      "inputs": [],
      "name": "owner",
      "outputs": [
        {
          "internalType": "address",
          "name": "",
          "type": "address"
        }
      ],
      "stateMutability": "view",
      "type": "function"
    },
    {
      "inputs": [
        {
          "internalType": "bytes32",
          "name": "",
          "type": "bytes32"
        }
      ],
      "name": "price",
      "outputs": [
        {
          "internalType": "uint256",
          "name": "",
          "type": "uint256"
        }
      ],
      "stateMutability": "view",
      "type": "function"
    },
    {
      "inputs": [],
      "name": "renounceOwnership",
      "outputs": [],
      "stateMutability": "nonpayable",
      "type": "function"
    },
    {
      "inputs": [
        {
          "internalType": "bytes32",
          "name": "symbol",
          "type": "bytes32"
        },
        {
          "internalType": "uint256",
          "name": "localPerUsdt1e18",
          "type": "uint256"
        }
      ],
      "name": "setPrice",
      "outputs": [],
      "stateMutability": "nonpayable",
      "type": "function"
    },
    {
      "inputs": [
        {
          "internalType": "address",
          "name": "newOwner",
          "type": "address"
        }
      ],
      "name": "transferOwnership",
      "outputs": [],
      "stateMutability": "nonpayable",
      "type": "function"
    }
  ],
  "bytecode": "0x608060405234801561001057600080fd5b506040516107d13803806107d1833981810160405281019061003291906101e2565b80600073ffffffffffffffffffffffffffffffffffffffff168173ffffffffffffffffffffffffffffffffffffffff16036100a55760006040517f1e4fbdf700000000000000000000000000000000000000000000000000000000815260040161009c919061021e565b60405180910390fd5b6100b4816100bb60201b60201c565b5050610239565b60008060009054906101000a900473ffffffffffffffffffffffffffffffffffffffff169050816000806101000a81548173ffffffffffffffffffffffffffffffffffffffff021916908373ffffffffffffffffffffffffffffffffffffffff1602179055508173ffffffffffffffffffffffffffffffffffffffff168173ffffffffffffffffffffffffffffffffffffffff167f8be0079c531659141344cd1fd0a4f28419497f9722a3daafe3b4186f6b6457e060405160405180910390a35050565b600080fd5b600073ffffffffffffffffffffffffffffffffffffffff82169050919050565b60006101af82610184565b9050919050565b6101bf816101a4565b81146101ca57600080fd5b50565b6000815190506101dc816101b6565b92915050565b6000602082840312156101f8576101f761017f565b5b6000610206848285016101cd565b91505092915050565b610218816101a4565b82525050565b6000602082019050610233600083018461020f565b92915050565b610589806102486000396000f3fe608060405234801561001057600080fd5b50600436106100625760003560e01c806310d8d74d14610067578063715018a61461008357806388f3543a1461008d5780638da5cb5b146100bd578063a71f25f6146100db578063f2fde38b1461010b575b600080fd5b610081600480360381019061007c9190610407565b610127565b005b61008b61014b565b005b6100a760048036038101906100a29190610447565b61015f565b6040516100b49190610483565b60405180910390f35b6100c5610177565b6040516100d291906104df565b60405180910390f35b6100f560048036038101906100f09190610447565b6101a0565b6040516101029190610483565b60405180910390f35b61012560048036038101906101209190610526565b6101bd565b005b61012f610243565b8060016000848152602001908152602001600020819055505050565b610153610243565b61015d60006102ca565b565b60016020528060005260406000206000915090505481565b60008060009054906101000a900473ffffffffffffffffffffffffffffffffffffffff16905090565b600060016000838152602001908152602001600020549050919050565b6101c5610243565b600073ffffffffffffffffffffffffffffffffffffffff168173ffffffffffffffffffffffffffffffffffffffff16036102375760006040517f1e4fbdf700000000000000000000000000000000000000000000000000000000815260040161022e91906104df565b60405180910390fd5b610240816102ca565b50565b61024b61038e565b73ffffffffffffffffffffffffffffffffffffffff16610269610177565b73ffffffffffffffffffffffffffffffffffffffff16146102c85761028c61038e565b6040517f118cdaa70000000000000000000000000000000000000000000000000000000081526004016102bf91906104df565b60405180910390fd5b565b60008060009054906101000a900473ffffffffffffffffffffffffffffffffffffffff169050816000806101000a81548173ffffffffffffffffffffffffffffffffffffffff021916908373ffffffffffffffffffffffffffffffffffffffff1602179055508173ffffffffffffffffffffffffffffffffffffffff168173ffffffffffffffffffffffffffffffffffffffff167f8be0079c531659141344cd1fd0a4f28419497f9722a3daafe3b4186f6b6457e060405160405180910390a35050565b600033905090565b600080fd5b6000819050919050565b6103ae8161039b565b81146103b957600080fd5b50565b6000813590506103cb816103a5565b92915050565b6000819050919050565b6103e4816103d1565b81146103ef57600080fd5b50565b600081359050610401816103db565b92915050565b6000806040838503121561041e5761041d610396565b5b600061042c858286016103bc565b925050602061043d858286016103f2565b9150509250929050565b60006020828403121561045d5761045c610396565b5b600061046b848285016103bc565b91505092915050565b61047d816103d1565b82525050565b60006020820190506104986000830184610474565b92915050565b600073ffffffffffffffffffffffffffffffffffffffff82169050919050565b60006104c98261049e565b9050919050565b6104d9816104be565b82525050565b60006020820190506104f460008301846104d0565b92915050565b610503816104be565b811461050e57600080fd5b50565b600081359050610520816104fa565b92915050565b60006020828403121561053c5761053b610396565b5b600061054a84828501610511565b9150509291505056fea26469706673582212202a1c787bdd3cdf4fcfe1d8a3d3521ef77ef1235c2dc2fc505a4e82ebb5d41db164736f6c634300081e0033",
  "linkReferences": {},
  "deployedLinkReferences": {}
}