{
  "_format": "hh-sol-artifact-1",
  "contractName": "StableCoins",
  "sourceName": "contracts/StableCoins.sol",
  "abi": [
    {
      "inputs": [
        {
          "internalType": "address",
          "name": "owner_",
          "type": "address"
        },
        {
          "internalType": "address",
          "name": "usdt_",
          "type": "address"
        },
        {
          "internalType": "address",
          "name": "oracle_",
          "type": "address"
        },
        {
          "internalType": "bytes32[]",
          "name": "initialSymbols",
          "type": "bytes32[]"
        }
      ],
      "stateMutability": "nonpayable",
      "type": "constructor"
    },
    {
      "inputs": [
        {
          "internalType": "address",
          "name": "owner",
          "type": "address"
        }
      ],
      "name": "OwnableInvalidOwner",
      "type": "error"
    },
    {
      "inputs": [
        {
          "internalType": "address",
          "name": "account",
          "type": "address"
        }
      ],
      "name": "OwnableUnauthorizedAccount",
      "type": "error"
    },
    {
      "anonymous": false,
      "inputs": [
        {
          "indexed": true,
          "internalType": "address",
          "name": "user",
          "type": "address"
        },
        {
          "indexed": true,
          "internalType": "bytes32",
          "name": "symbol",
          "type": "bytes32"
        },
        {
          "indexed": false,
          "internalType": "uint256",
          "name": "amountLocal",
          "type": "uint256"
        },
        {
          "indexed": false,
          "internalType": "uint256",
          "name": "releasedUSDT",
          "type": "uint256"
        }
      ],
      "name": "Burn",
      "type": "event"
    },
    {
      "anonymous": false,
      "inputs": [
        {
          "indexed": true,
          "internalType": "address",
          "name": "user",
          "type": "address"
        },
        {
          "indexed": true,
          "internalType": "bytes32",
          "name": "symbol",
          "type": "bytes32"
        },
        {
          "indexed": false,
          "internalType": "uint256",
          "name": "amountLocal",
          "type": "uint256"
        },
        {
          "indexed": false,
          "internalType": "uint256",
          "name": "requiredUSDT",
          "type": "uint256"
        }
      ],
      "name": "Mint",
      "type": "event"
    },
    {
      "anonymous": false,
      "inputs": [
        {
          "indexed": true,
          "internalType": "address",
          "name": "oracle",
          "type": "address"
        }
      ],
      "name": "OracleSet",
      "type": "event"
    },
    {
      "anonymous": false,
      "inputs": [
        {
          "indexed": true,
          "internalType": "address",
          "name": "previousOwner",
          "type": "address"
        },
        {
          "indexed": true,
          "internalType": "address",
          "name": "newOwner",
          "type": "address"
        }
      ],
      "name": "OwnershipTransferred",
      "type": "event"
    },
    {
      "anonymous": false,
      "inputs": [
        {
          "indexed": true,
          "internalType": "bytes32",
          "name": "symbol",
          "type": "bytes32"
        },
        {
          "indexed": false,
          "internalType": "uint256",
          "name": "amountUSDT",
          "type": "uint256"
        }
      ],
      "name": "ReserveFunded",
      "type": "event"
    },
    {
      "anonymous": false,
      "inputs": [
        {
          "indexed": true,
          "internalType": "bytes32",
          "name": "symbol",
          "type": "bytes32"
        },
        {
          "indexed": true,
          "internalType": "address",
          "name": "to",
          "type": "address"
        },
        {
          "indexed": false,
          "internalType": "uint256",
          "name": "amountUSDT",
          "type": "uint256"
        }
      ],
      "name": "ReserveWithdrawn",
      "type": "event"
    },
    {
      "anonymous": false,
      "inputs": [
        {
          "indexed": true,
          "internalType": "bytes32",
          "name": "symbol",
          "type": "bytes32"
        },
        {
          "indexed": false,
          "internalType": "bool",
          "name": "isSupported",
          "type": "bool"
        }
      ],
      "name": "SupportedSet",
      "type": "event"
    },
    {
      "inputs": [],
      "name": "DECIMALS",
      "outputs": [
        {
          "internalType": "uint8",
          "name": "",
          "type": "uint8"
        }
      ],
      "stateMutability": "view",
      "type": "function"
    },
    {
      "inputs": [
        {
          "internalType": "address",
          "name": "user",
          "type": "address"
        },
        {
          "internalType": "bytes32",
          "name": "symbol",
          "type": "bytes32"
        }
      ],
      "name": "balanceOf",
      "outputs": [
        {
          "internalType": "uint256",
          "name": "",
          "type": "uint256"
        }
      ],
      "stateMutability": "view",
      "type": "function"
    },
    {
      "inputs": [
        {
          "internalType": "bytes32",
          "name": "symbol",
          "type": "bytes32"
        },
        {
          "internalType": "uint256",
          "name": "amountLocal",
          "type": "uint256"
        }
      ],
      "name": "burn",
      "outputs": [],
      "stateMutability": "nonpayable",
      "type": "function"
    },
    {
      "inputs": [
        {
          "internalType": "bytes32",
          "name": "symbol",
          "type": "bytes32"
        },
        {
          "internalType": "uint256",
          "name": "amountUSDT",
          "type": "uint256"
        }
      ],
      "name": "fundReserves",
      "outputs": [],
      "stateMutability": "nonpayable",
      "type": "function"
    },
    {
      "inputs": [
        {
          "internalType": "bytes32",
          "name": "symbol",
          "type": "bytes32"
        }
      ],
      "name": "isSupported",
      "outputs": [
        {
          "internalType": "bool",
          "name": "",
          "type": "bool"
        }
      ],
      "stateMutability": "view",
      "type": "function"
    },
    {
      "inputs": [
        {
          "internalType": "bytes32",
          "name": "",
          "type": "bytes32"
        }
      ],
      "name": "liabilitiesUSDT",
      "outputs": [
        {
          "internalType": "uint256",
          "name": "",
          "type": "uint256"
        }
      ],
      "stateMutability": "view",
      "type": "function"
    },
    {
      "inputs": [],
      "name": "listSymbols",
      "outputs": [
        {
          "internalType": "bytes32[]",
          "name": "",
          "type": "bytes32[]"
        }
      ],
      "stateMutability": "view",
      "type": "function"
    },
    {
      "inputs": [
        {
          "internalType": "bytes32",
          "name": "symbol",
          "type": "bytes32"
        },
        {
          "internalType": "uint256",
          "name": "amountLocal",
          "type": "uint256"
        }
      ],
      "name": "mint",
      "outputs": [],
      "stateMutability": "nonpayable",
      "type": "function"
    },
    {
      "inputs": [],
      "name": "oracle",
      "outputs": [
        {
          "internalType": "contract IStableOracle",
          "name": "",
          "type": "address"
        }
      ],
      "stateMutability": "view",
      "type": "function"
    },
    {
      "inputs": [],
      "name": "owner",
      "outputs": [
        {
          "internalType": "address",
          "name": "",
          "type": "address"
        }
      ],
      "stateMutability": "view",
      "type": "function"
    },
    {
      "inputs": [],
      "name": "renounceOwnership",
      "outputs": [],
      "stateMutability": "nonpayable",
      "type": "function"
    },
    {
      "inputs": [
        {
          "internalType": "bytes32",
          "name": "",
          "type": "bytes32"
        }
      ],
      "name": "reservesUSDT",
      "outputs": [
        {
          "internalType": "uint256",
          "name": "",
          "type": "uint256"
        }
      ],
      "stateMutability": "view",
      "type": "function"
    },
    {
      "inputs": [
        {
          "internalType": "address",
          "name": "oracle_",
          "type": "address"
        }
      ],
      "name": "setOracle",
      "outputs": [],
      "stateMutability": "nonpayable",
      "type": "function"
    },
    {
      "inputs": [
        {
          "internalType": "bytes32",
          "name": "symbol",
          "type": "bytes32"
        },
        {
          "internalType": "bool",
          "name": "isOn",
          "type": "bool"
        }
      ],
      "name": "setSupported",
      "outputs": [],
      "stateMutability": "nonpayable",
      "type": "function"
    },
    {
      "inputs": [
        {
          "internalType": "bytes32",
          "name": "",
          "type": "bytes32"
        }
      ],
      "name": "supported",
      "outputs": [
        {
          "internalType": "bool",
          "name": "",
          "type": "bool"
        }
      ],
      "stateMutability": "view",
      "type": "function"
    },
    {
      "inputs": [
        {
          "internalType": "uint256",
          "name": "",
          "type": "uint256"
        }
      ],
      "name": "symbols",
      "outputs": [
        {
          "internalType": "bytes32",
          "name": "",
          "type": "bytes32"
        }
      ],
      "stateMutability": "view",
      "type": "function"
    },
    {
      "inputs": [
        {
          "internalType": "address",
          "name": "newOwner",
          "type": "address"
        }
      ],
      "name": "transferOwnership",
      "outputs": [],
      "stateMutability": "nonpayable",
      "type": "function"
    },
    {
      "inputs": [],
      "name": "usdt",
      "outputs": [
        {
          "internalType": "contract IERC20",
          "name": "",
          "type": "address"
        }
      ],
      "stateMutability": "view",
      "type": "function"
    },
    {
      "inputs": [
        {
          "internalType": "bytes32",
          "name": "symbol",
          "type": "bytes32"
        },
        {
          "internalType": "address",
          "name": "to",
          "type": "address"
        },
        {
          "internalType": "uint256",
          "name": "amountUSDT",
          "type": "uint256"
        }
      ],
      "name": "withdrawExcess",
      "outputs": [],
      "stateMutability": "nonpayable",
      "type": "function"
    }
  ],
  "bytecode": "0x60a060405234801561001057600080fd5b5060405161271e38038061271e83398181016040528101906100329190610598565b83600073ffffffffffffffffffffffffffffffffffffffff168173ffffffffffffffffffffffffffffffffffffffff16036100a55760006040517f1e4fbdf700000000000000000000000000000000000000000000000000000000815260040161009c919061062a565b60405180910390fd5b6100b4816102d360201b60201c565b50600073ffffffffffffffffffffffffffffffffffffffff168373ffffffffffffffffffffffffffffffffffffffff1603610124576040517f08c379a000000000000000000000000000000000000000000000000000000000815260040161011b906106a2565b60405180910390fd5b8273ffffffffffffffffffffffffffffffffffffffff1660808173ffffffffffffffffffffffffffffffffffffffff168152505081600160006101000a81548173ffffffffffffffffffffffffffffffffffffffff021916908373ffffffffffffffffffffffffffffffffffffffff16021790555060005b81518110156102865760008282815181106101ba576101b96106c2565b5b602002602001015190506003600082815260200190815260200160002060009054906101000a900460ff166102785760016003600083815260200190815260200160002060006101000a81548160ff0219169083151502179055506004819080600181540180825580915050600190039060005260206000200160009091909190915055807f9cc6a6aef361ee416b338297a612c4aec82414fc0b7a18cb27f50854d0a76fc4600160405161026f919061070c565b60405180910390a25b50808060010191505061019c565b508173ffffffffffffffffffffffffffffffffffffffff167f3f32684a32a11dabdbb8c0177de80aa3ae36a004d75210335b49e544e48cd0aa60405160405180910390a250505050610727565b60008060009054906101000a900473ffffffffffffffffffffffffffffffffffffffff169050816000806101000a81548173ffffffffffffffffffffffffffffffffffffffff021916908373ffffffffffffffffffffffffffffffffffffffff1602179055508173ffffffffffffffffffffffffffffffffffffffff168173ffffffffffffffffffffffffffffffffffffffff167f8be0079c531659141344cd1fd0a4f28419497f9722a3daafe3b4186f6b6457e060405160405180910390a35050565b6000604051905090565b600080fd5b600080fd5b600073ffffffffffffffffffffffffffffffffffffffff82169050919050565b60006103d6826103ab565b9050919050565b6103e6816103cb565b81146103f157600080fd5b50565b600081519050610403816103dd565b92915050565b600080fd5b6000601f19601f8301169050919050565b7f4e487b7100000000000000000000000000000000000000000000000000000000600052604160045260246000fd5b6104578261040e565b810181811067ffffffffffffffff821117156104765761047561041f565b5b80604052505050565b6000610489610397565b9050610495828261044e565b919050565b600067ffffffffffffffff8211156104b5576104b461041f565b5b602082029050602081019050919050565b600080fd5b6000819050919050565b6104de816104cb565b81146104e957600080fd5b50565b6000815190506104fb816104d5565b92915050565b600061051461050f8461049a565b61047f565b90508083825260208201905060208402830185811115610537576105366104c6565b5b835b81811015610560578061054c88826104ec565b845260208401935050602081019050610539565b5050509392505050565b600082601f83011261057f5761057e610409565b5b815161058f848260208601610501565b91505092915050565b600080600080608085870312156105b2576105b16103a1565b5b60006105c0878288016103f4565b94505060206105d1878288016103f4565b93505060406105e2878288016103f4565b925050606085015167ffffffffffffffff811115610603576106026103a6565b5b61060f8782880161056a565b91505092959194509250565b610624816103cb565b82525050565b600060208201905061063f600083018461061b565b92915050565b600082825260208201905092915050565b7f757364743d300000000000000000000000000000000000000000000000000000600082015250565b600061068c600683610645565b915061069782610656565b602082019050919050565b600060208201905081810360008301526106bb8161067f565b9050919050565b7f4e487b7100000000000000000000000000000000000000000000000000000000600052603260045260246000fd5b60008115159050919050565b610706816106f1565b82525050565b600060208201905061072160008301846106fd565b92915050565b608051611fc061075e600039600081816103b10152818161073201528181610b6201528181610d510152610fd40152611fc06000f3fe608060405234801561001057600080fd5b50600436106101215760003560e01c80637a408454116100ad578063c55a15f311610071578063c55a15f31461030a578063ccce413b14610326578063e1856ff414610356578063ebd88adb14610372578063f2fde38b1461038e57610121565b80637a4084541461027a5780637adbf973146102965780637dc0d1d0146102b25780638da5cb5b146102d05780639c3dfd3e146102ee57610121565b80634d30b6be116100f45780634d30b6be146101b0578063633d1e1e146101e0578063676ea19214610210578063715018a6146102405780637193f2f01461024a57610121565b80632e0f2625146101265780632f48ab7d1461014457806337234a1a1461016257806345e7763314610192575b600080fd5b61012e6103aa565b60405161013b919061146d565b60405180910390f35b61014c6103af565b6040516101599190611507565b60405180910390f35b61017c6004803603810190610177919061155d565b6103d3565b60405161018991906115a3565b60405180910390f35b61019a6103eb565b6040516101a7919061167c565b60405180910390f35b6101ca60048036038101906101c591906116dc565b610443565b6040516101d791906115a3565b60405180910390f35b6101fa60048036038101906101f5919061155d565b61049e565b60405161020791906115a3565b60405180910390f35b61022a6004803603810190610225919061155d565b6104b6565b6040516102379190611737565b60405180910390f35b6102486104e0565b005b610264600480360381019061025f919061155d565b6104f4565b6040516102719190611737565b60405180910390f35b610294600480360381019061028f919061177e565b610514565b005b6102b060048036038101906102ab91906117be565b610865565b005b6102ba6108f4565b6040516102c7919061180c565b60405180910390f35b6102d861091a565b6040516102e59190611836565b60405180910390f35b6103086004803603810190610303919061187d565b610943565b005b610324600480360381019061031f91906118bd565b610a6f565b005b610340600480360381019061033b9190611910565b610c92565b60405161034d919061194c565b60405180910390f35b610370600480360381019061036b919061177e565b610cb6565b005b61038c6004803603810190610387919061177e565b610f3f565b005b6103a860048036038101906103a391906117be565b611117565b005b600681565b7f000000000000000000000000000000000000000000000000000000000000000081565b60066020528060005260406000206000915090505481565b6060600480548060200260200160405190810160405280929190818152602001828054801561043957602002820191906000526020600020905b815481526020019060010190808311610425575b5050505050905090565b6000600260008473ffffffffffffffffffffffffffffffffffffffff1673ffffffffffffffffffffffffffffffffffffffff168152602001908152602001600020600083815260200190815260200160002054905092915050565b60056020528060005260406000206000915090505481565b60006003600083815260200190815260200160002060009054906101000a900460ff169050919050565b6104e861119d565b6104f26000611224565b565b60036020528060005260406000206000915054906101000a900460ff1681565b61051d826104b6565b61055c576040517f08c379a0000000000000000000000000000000000000000000000000000000008152600401610553906119c4565b60405180910390fd5b6000600260003373ffffffffffffffffffffffffffffffffffffffff1673ffffffffffffffffffffffffffffffffffffffff16815260200190815260200160002060008481526020019081526020016000205490508181101580156105c15750600082115b610600576040517f08c379a00000000000000000000000000000000000000000000000000000000081526004016105f790611a30565b60405180910390fd5b818103600260003373ffffffffffffffffffffffffffffffffffffffff1673ffffffffffffffffffffffffffffffffffffffff168152602001908152602001600020600085815260200190815260200160002081905550600061066384846112e8565b9050600060066000868152602001908152602001600020549050808210156106965781816106919190611a7f565b610699565b60005b60066000878152602001908152602001600020819055508160056000878152602001908152602001600020541015610706576040517f08c379a00000000000000000000000000000000000000000000000000000000081526004016106fd90611aff565b60405180910390fd5b816005600087815260200190815260200160002060008282546107299190611a7f565b925050819055507f000000000000000000000000000000000000000000000000000000000000000073ffffffffffffffffffffffffffffffffffffffff1663a9059cbb33846040518363ffffffff1660e01b815260040161078b929190611b1f565b6020604051808303816000875af11580156107aa573d6000803e3d6000fd5b505050506040513d601f19601f820116820180604052508101906107ce9190611b5d565b61080d576040517f08c379a000000000000000000000000000000000000000000000000000000000815260040161080490611bd6565b60405180910390fd5b843373ffffffffffffffffffffffffffffffffffffffff167fdf1d1e23e716edd71dd95859e7f3bd512d9ec5ed0330e01e8221657b9000ef9d8685604051610856929190611bf6565b60405180910390a35050505050565b61086d61119d565b80600160006101000a81548173ffffffffffffffffffffffffffffffffffffffff021916908373ffffffffffffffffffffffffffffffffffffffff1602179055508073ffffffffffffffffffffffffffffffffffffffff167f3f32684a32a11dabdbb8c0177de80aa3ae36a004d75210335b49e544e48cd0aa60405160405180910390a250565b600160009054906101000a900473ffffffffffffffffffffffffffffffffffffffff1681565b60008060009054906101000a900473ffffffffffffffffffffffffffffffffffffffff16905090565b61094b61119d565b80801561097657506003600083815260200190815260200160002060009054906101000a900460ff16155b156109d55760016003600084815260200190815260200160002060006101000a81548160ff0219169083151502179055506004829080600181540180825580915050600190039060005260206000200160009091909190915055610a33565b80158015610a0057506003600083815260200190815260200160002060009054906101000a900460ff165b15610a325760006003600084815260200190815260200160002060006101000a81548160ff0219169083151502179055505b5b817f9cc6a6aef361ee416b338297a612c4aec82414fc0b7a18cb27f50854d0a76fc482604051610a639190611737565b60405180910390a25050565b610a7761119d565b600073ffffffffffffffffffffffffffffffffffffffff168273ffffffffffffffffffffffffffffffffffffffff1603610ae6576040517f08c379a0000000000000000000000000000000000000000000000000000000008152600401610add90611c6b565b60405180910390fd5b6000610af1846113f4565b905080821115610b36576040517f08c379a0000000000000000000000000000000000000000000000000000000008152600401610b2d90611cd7565b60405180910390fd5b81600560008681526020019081526020016000206000828254610b599190611a7f565b925050819055507f000000000000000000000000000000000000000000000000000000000000000073ffffffffffffffffffffffffffffffffffffffff1663a9059cbb84846040518363ffffffff1660e01b8152600401610bbb929190611b1f565b6020604051808303816000875af1158015610bda573d6000803e3d6000fd5b505050506040513d601f19601f82011682018060405250810190610bfe9190611b5d565b610c3d576040517f08c379a0000000000000000000000000000000000000000000000000000000008152600401610c3490611bd6565b60405180910390fd5b8273ffffffffffffffffffffffffffffffffffffffff16847fffcaa199744b4f26f65f7fcb044bf80d51f5f52627bded663e1e311fd5e36b6784604051610c8491906115a3565b60405180910390a350505050565b60048181548110610ca257600080fd5b906000526020600020016000915090505481565b610cbf826104b6565b610cfe576040517f08c379a0000000000000000000000000000000000000000000000000000000008152600401610cf5906119c4565b60405180910390fd5b60008111610d41576040517f08c379a0000000000000000000000000000000000000000000000000000000008152600401610d3890611d43565b60405180910390fd5b6000610d4d83836112e8565b90507f000000000000000000000000000000000000000000000000000000000000000073ffffffffffffffffffffffffffffffffffffffff166323b872dd3330846040518463ffffffff1660e01b8152600401610dac93929190611d63565b6020604051808303816000875af1158015610dcb573d6000803e3d6000fd5b505050506040513d601f19601f82011682018060405250810190610def9190611b5d565b610e2e576040517f08c379a0000000000000000000000000000000000000000000000000000000008152600401610e2590611de6565b60405180910390fd5b80600560008581526020019081526020016000206000828254610e519190611e06565b9250508190555081600260003373ffffffffffffffffffffffffffffffffffffffff1673ffffffffffffffffffffffffffffffffffffffff16815260200190815260200160002060008581526020019081526020016000206000828254610eb89190611e06565b9250508190555080600660008581526020019081526020016000206000828254610ee29190611e06565b92505081905550823373ffffffffffffffffffffffffffffffffffffffff167f1ffb0d357e5bc4c01e4df6fa44d8361e45bec387b318adf33773794a06a6f9ae8484604051610f32929190611bf6565b60405180910390a3505050565b610f4761119d565b610f50826104b6565b610f8f576040517f08c379a0000000000000000000000000000000000000000000000000000000008152600401610f86906119c4565b60405180910390fd5b60008111610fd2576040517f08c379a0000000000000000000000000000000000000000000000000000000008152600401610fc990611d43565b60405180910390fd5b7f000000000000000000000000000000000000000000000000000000000000000073ffffffffffffffffffffffffffffffffffffffff166323b872dd3330846040518463ffffffff1660e01b815260040161102f93929190611d63565b6020604051808303816000875af115801561104e573d6000803e3d6000fd5b505050506040513d601f19601f820116820180604052508101906110729190611b5d565b6110b1576040517f08c379a00000000000000000000000000000000000000000000000000000000081526004016110a890611de6565b60405180910390fd5b806005600084815260200190815260200160002060008282546110d49190611e06565b92505081905550817f386ca647174a1fea7c3929f63d736a5b63ec7950cacfa4b256063cbb6ceca8438260405161110b91906115a3565b60405180910390a25050565b61111f61119d565b600073ffffffffffffffffffffffffffffffffffffffff168173ffffffffffffffffffffffffffffffffffffffff16036111915760006040517f1e4fbdf70000000000000000000000000000000000000000000000000000000081526004016111889190611836565b60405180910390fd5b61119a81611224565b50565b6111a5611449565b73ffffffffffffffffffffffffffffffffffffffff166111c361091a565b73ffffffffffffffffffffffffffffffffffffffff1614611222576111e6611449565b6040517f118cdaa70000000000000000000000000000000000000000000000000000000081526004016112199190611836565b60405180910390fd5b565b60008060009054906101000a900473ffffffffffffffffffffffffffffffffffffffff169050816000806101000a81548173ffffffffffffffffffffffffffffffffffffffff021916908373ffffffffffffffffffffffffffffffffffffffff1602179055508173ffffffffffffffffffffffffffffffffffffffff168173ffffffffffffffffffffffffffffffffffffffff167f8be0079c531659141344cd1fd0a4f28419497f9722a3daafe3b4186f6b6457e060405160405180910390a35050565b600080600160009054906101000a900473ffffffffffffffffffffffffffffffffffffffff1673ffffffffffffffffffffffffffffffffffffffff1663a71f25f6856040518263ffffffff1660e01b8152600401611346919061194c565b602060405180830381865afa158015611363573d6000803e3d6000fd5b505050506040513d601f19601f820116820180604052508101906113879190611e4f565b9050600081116113cc576040517f08c379a00000000000000000000000000000000000000000000000000000000081526004016113c390611ec8565b60405180910390fd5b80670de0b6b3a7640000846113e19190611ee8565b6113eb9190611f59565b91505092915050565b60008060056000848152602001908152602001600020549050600060066000858152602001908152602001600020549050808211611433576000611440565b808261143f9190611a7f565b5b92505050919050565b600033905090565b600060ff82169050919050565b61146781611451565b82525050565b6000602082019050611482600083018461145e565b92915050565b600073ffffffffffffffffffffffffffffffffffffffff82169050919050565b6000819050919050565b60006114cd6114c86114c384611488565b6114a8565b611488565b9050919050565b60006114df826114b2565b9050919050565b60006114f1826114d4565b9050919050565b611501816114e6565b82525050565b600060208201905061151c60008301846114f8565b92915050565b600080fd5b6000819050919050565b61153a81611527565b811461154557600080fd5b50565b60008135905061155781611531565b92915050565b60006020828403121561157357611572611522565b5b600061158184828501611548565b91505092915050565b6000819050919050565b61159d8161158a565b82525050565b60006020820190506115b86000830184611594565b92915050565b600081519050919050565b600082825260208201905092915050565b6000819050602082019050919050565b6115f381611527565b82525050565b600061160583836115ea565b60208301905092915050565b6000602082019050919050565b6000611629826115be565b61163381856115c9565b935061163e836115da565b8060005b8381101561166f57815161165688826115f9565b975061166183611611565b925050600181019050611642565b5085935050505092915050565b60006020820190508181036000830152611696818461161e565b905092915050565b60006116a982611488565b9050919050565b6116b98161169e565b81146116c457600080fd5b50565b6000813590506116d6816116b0565b92915050565b600080604083850312156116f3576116f2611522565b5b6000611701858286016116c7565b925050602061171285828601611548565b9150509250929050565b60008115159050919050565b6117318161171c565b82525050565b600060208201905061174c6000830184611728565b92915050565b61175b8161158a565b811461176657600080fd5b50565b60008135905061177881611752565b92915050565b6000806040838503121561179557611794611522565b5b60006117a385828601611548565b92505060206117b485828601611769565b9150509250929050565b6000602082840312156117d4576117d3611522565b5b60006117e2848285016116c7565b91505092915050565b60006117f6826114d4565b9050919050565b611806816117eb565b82525050565b600060208201905061182160008301846117fd565b92915050565b6118308161169e565b82525050565b600060208201905061184b6000830184611827565b92915050565b61185a8161171c565b811461186557600080fd5b50565b60008135905061187781611851565b92915050565b6000806040838503121561189457611893611522565b5b60006118a285828601611548565b92505060206118b385828601611868565b9150509250929050565b6000806000606084860312156118d6576118d5611522565b5b60006118e486828701611548565b93505060206118f5868287016116c7565b925050604061190686828701611769565b9150509250925092565b60006020828403121561192657611925611522565b5b600061193484828501611769565b91505092915050565b61194681611527565b82525050565b6000602082019050611961600083018461193d565b92915050565b600082825260208201905092915050565b7f73796d626f6c0000000000000000000000000000000000000000000000000000600082015250565b60006119ae600683611967565b91506119b982611978565b602082019050919050565b600060208201905081810360008301526119dd816119a1565b9050919050565b7f696e73756666696369656e740000000000000000000000000000000000000000600082015250565b6000611a1a600c83611967565b9150611a25826119e4565b602082019050919050565b60006020820190508181036000830152611a4981611a0d565b9050919050565b7f4e487b7100000000000000000000000000000000000000000000000000000000600052601160045260246000fd5b6000611a8a8261158a565b9150611a958361158a565b9250828203905081811115611aad57611aac611a50565b5b92915050565b7f7265736572766500000000000000000000000000000000000000000000000000600082015250565b6000611ae9600783611967565b9150611af482611ab3565b602082019050919050565b60006020820190508181036000830152611b1881611adc565b9050919050565b6000604082019050611b346000830185611827565b611b416020830184611594565b9392505050565b600081519050611b5781611851565b92915050565b600060208284031215611b7357611b72611522565b5b6000611b8184828501611b48565b91505092915050565b7f7472616e73666572000000000000000000000000000000000000000000000000600082015250565b6000611bc0600883611967565b9150611bcb82611b8a565b602082019050919050565b60006020820190508181036000830152611bef81611bb3565b9050919050565b6000604082019050611c0b6000830185611594565b611c186020830184611594565b9392505050565b7f746f3d3000000000000000000000000000000000000000000000000000000000600082015250565b6000611c55600483611967565b9150611c6082611c1f565b602082019050919050565b60006020820190508181036000830152611c8481611c48565b9050919050565b7f6578636565647320657863657373000000000000000000000000000000000000600082015250565b6000611cc1600e83611967565b9150611ccc82611c8b565b602082019050919050565b60006020820190508181036000830152611cf081611cb4565b9050919050565b7f616d6f756e740000000000000000000000000000000000000000000000000000600082015250565b6000611d2d600683611967565b9150611d3882611cf7565b602082019050919050565b60006020820190508181036000830152611d5c81611d20565b9050919050565b6000606082019050611d786000830186611827565b611d856020830185611827565b611d926040830184611594565b949350505050565b7f7472616e7366657246726f6d0000000000000000000000000000000000000000600082015250565b6000611dd0600c83611967565b9150611ddb82611d9a565b602082019050919050565b60006020820190508181036000830152611dff81611dc3565b9050919050565b6000611e118261158a565b9150611e1c8361158a565b9250828201905080821115611e3457611e33611a50565b5b92915050565b600081519050611e4981611752565b92915050565b600060208284031215611e6557611e64611522565b5b6000611e7384828501611e3a565b91505092915050565b7f6f7261636c650000000000000000000000000000000000000000000000000000600082015250565b6000611eb2600683611967565b9150611ebd82611e7c565b602082019050919050565b60006020820190508181036000830152611ee181611ea5565b9050919050565b6000611ef38261158a565b9150611efe8361158a565b9250828202611f0c8161158a565b91508282048414831517611f2357611f22611a50565b5b5092915050565b7f4e487b7100000000000000000000000000000000000000000000000000000000600052601260045260246000fd5b6000611f648261158a565b9150611f6f8361158a565b925082611f7f57611f7e611f2a565b5b82820490509291505056fea2646970667358221220611f081a0627d66a94a165fea7ba12f4b9007d2bb11f3eaed5372f8cd188cfd064736f6c634300081e0033",
  "linkReferences": {},
  "deployedLinkReferences": {}
}