{
  "_format": "hh-sol-artifact-1",
  "contractName": "StableCoins",
  "sourceName": "contracts/StableCoins.sol",
  "abi": [
    {
      "inputs": [
        {
          "internalType": "address",
          "name": "owner_",
          "type": "address"
        },
        {
          "internalType": "address",
          "name": "usdc_",
          "type": "address"
        },
        {
          "internalType": "address",
          "name": "oracle_",
          "type": "address"
        },
        {
          "internalType": "bytes32[]",
          "name": "initialSymbols",
          "type": "bytes32[]"
        }
      ],
      "stateMutability": "nonpayable",
      "type": "constructor"
    },
    {
      "inputs": [
        {
          "internalType": "address",
          "name": "owner",
          "type": "address"
        }
      ],
      "name": "OwnableInvalidOwner",
      "type": "error"
    },
    {
      "inputs": [
        {
          "internalType": "address",
          "name": "account",
          "type": "address"
        }
      ],
      "name": "OwnableUnauthorizedAccount",
      "type": "error"
    },
    {
      "anonymous": false,
      "inputs": [
        {
          "indexed": true,
          "internalType": "address",
          "name": "user",
          "type": "address"
        },
        {
          "indexed": true,
          "internalType": "bytes32",
          "name": "symbol",
          "type": "bytes32"
        },
        {
          "indexed": false,
          "internalType": "uint256",
          "name": "amountLocal",
          "type": "uint256"
        },
        {
          "indexed": false,
          "internalType": "uint256",
          "name": "releasedUSDC",
          "type": "uint256"
        }
      ],
      "name": "Burn",
      "type": "event"
    },
    {
      "anonymous": false,
      "inputs": [
        {
          "indexed": true,
          "internalType": "address",
          "name": "user",
          "type": "address"
        },
        {
          "indexed": true,
          "internalType": "bytes32",
          "name": "symbol",
          "type": "bytes32"
        },
        {
          "indexed": false,
          "internalType": "uint256",
          "name": "amountLocal",
          "type": "uint256"
        },
        {
          "indexed": false,
          "internalType": "uint256",
          "name": "requiredUSDC",
          "type": "uint256"
        }
      ],
      "name": "Mint",
      "type": "event"
    },
    {
      "anonymous": false,
      "inputs": [
        {
          "indexed": true,
          "internalType": "address",
          "name": "oracle",
          "type": "address"
        }
      ],
      "name": "OracleSet",
      "type": "event"
    },
    {
      "anonymous": false,
      "inputs": [
        {
          "indexed": true,
          "internalType": "address",
          "name": "previousOwner",
          "type": "address"
        },
        {
          "indexed": true,
          "internalType": "address",
          "name": "newOwner",
          "type": "address"
        }
      ],
      "name": "OwnershipTransferred",
      "type": "event"
    },
    {
      "anonymous": false,
      "inputs": [
        {
          "indexed": true,
          "internalType": "bytes32",
          "name": "symbol",
          "type": "bytes32"
        },
        {
          "indexed": false,
          "internalType": "uint256",
          "name": "amountUSDC",
          "type": "uint256"
        }
      ],
      "name": "ReserveFunded",
      "type": "event"
    },
    {
      "anonymous": false,
      "inputs": [
        {
          "indexed": true,
          "internalType": "bytes32",
          "name": "symbol",
          "type": "bytes32"
        },
        {
          "indexed": true,
          "internalType": "address",
          "name": "to",
          "type": "address"
        },
        {
          "indexed": false,
          "internalType": "uint256",
          "name": "amountUSDC",
          "type": "uint256"
        }
      ],
      "name": "ReserveWithdrawn",
      "type": "event"
    },
    {
      "anonymous": false,
      "inputs": [
        {
          "indexed": true,
          "internalType": "bytes32",
          "name": "symbol",
          "type": "bytes32"
        },
        {
          "indexed": false,
          "internalType": "bool",
          "name": "isSupported",
          "type": "bool"
        }
      ],
      "name": "SupportedSet",
      "type": "event"
    },
    {
      "inputs": [],
      "name": "DECIMALS",
      "outputs": [
        {
          "internalType": "uint8",
          "name": "",
          "type": "uint8"
        }
      ],
      "stateMutability": "view",
      "type": "function"
    },
    {
      "inputs": [
        {
          "internalType": "address",
          "name": "user",
          "type": "address"
        },
        {
          "internalType": "bytes32",
          "name": "symbol",
          "type": "bytes32"
        }
      ],
      "name": "balanceOf",
      "outputs": [
        {
          "internalType": "uint256",
          "name": "",
          "type": "uint256"
        }
      ],
      "stateMutability": "view",
      "type": "function"
    },
    {
      "inputs": [
        {
          "internalType": "bytes32",
          "name": "symbol",
          "type": "bytes32"
        },
        {
          "internalType": "uint256",
          "name": "amountLocal",
          "type": "uint256"
        }
      ],
      "name": "burn",
      "outputs": [],
      "stateMutability": "nonpayable",
      "type": "function"
    },
    {
      "inputs": [
        {
          "internalType": "bytes32",
          "name": "symbol",
          "type": "bytes32"
        },
        {
          "internalType": "uint256",
          "name": "amountUSDC",
          "type": "uint256"
        }
      ],
      "name": "fundReserves",
      "outputs": [],
      "stateMutability": "nonpayable",
      "type": "function"
    },
    {
      "inputs": [
        {
          "internalType": "bytes32",
          "name": "symbol",
          "type": "bytes32"
        }
      ],
      "name": "isSupported",
      "outputs": [
        {
          "internalType": "bool",
          "name": "",
          "type": "bool"
        }
      ],
      "stateMutability": "view",
      "type": "function"
    },
    {
      "inputs": [
        {
          "internalType": "bytes32",
          "name": "",
          "type": "bytes32"
        }
      ],
      "name": "liabilitiesUSDC",
      "outputs": [
        {
          "internalType": "uint256",
          "name": "",
          "type": "uint256"
        }
      ],
      "stateMutability": "view",
      "type": "function"
    },
    {
      "inputs": [],
      "name": "listSymbols",
      "outputs": [
        {
          "internalType": "bytes32[]",
          "name": "",
          "type": "bytes32[]"
        }
      ],
      "stateMutability": "view",
      "type": "function"
    },
    {
      "inputs": [
        {
          "internalType": "bytes32",
          "name": "symbol",
          "type": "bytes32"
        },
        {
          "internalType": "uint256",
          "name": "amountLocal",
          "type": "uint256"
        }
      ],
      "name": "mint",
      "outputs": [],
      "stateMutability": "nonpayable",
      "type": "function"
    },
    {
      "inputs": [],
      "name": "oracle",
      "outputs": [
        {
          "internalType": "contract IStableOracle",
          "name": "",
          "type": "address"
        }
      ],
      "stateMutability": "view",
      "type": "function"
    },
    {
      "inputs": [],
      "name": "owner",
      "outputs": [
        {
          "internalType": "address",
          "name": "",
          "type": "address"
        }
      ],
      "stateMutability": "view",
      "type": "function"
    },
    {
      "inputs": [],
      "name": "renounceOwnership",
      "outputs": [],
      "stateMutability": "nonpayable",
      "type": "function"
    },
    {
      "inputs": [
        {
          "internalType": "bytes32",
          "name": "",
          "type": "bytes32"
        }
      ],
      "name": "reservesUSDC",
      "outputs": [
        {
          "internalType": "uint256",
          "name": "",
          "type": "uint256"
        }
      ],
      "stateMutability": "view",
      "type": "function"
    },
    {
      "inputs": [
        {
          "internalType": "address",
          "name": "oracle_",
          "type": "address"
        }
      ],
      "name": "setOracle",
      "outputs": [],
      "stateMutability": "nonpayable",
      "type": "function"
    },
    {
      "inputs": [
        {
          "internalType": "bytes32",
          "name": "symbol",
          "type": "bytes32"
        },
        {
          "internalType": "bool",
          "name": "isOn",
          "type": "bool"
        }
      ],
      "name": "setSupported",
      "outputs": [],
      "stateMutability": "nonpayable",
      "type": "function"
    },
    {
      "inputs": [
        {
          "internalType": "bytes32",
          "name": "",
          "type": "bytes32"
        }
      ],
      "name": "supported",
      "outputs": [
        {
          "internalType": "bool",
          "name": "",
          "type": "bool"
        }
      ],
      "stateMutability": "view",
      "type": "function"
    },
    {
      "inputs": [
        {
          "internalType": "uint256",
          "name": "",
          "type": "uint256"
        }
      ],
      "name": "symbols",
      "outputs": [
        {
          "internalType": "bytes32",
          "name": "",
          "type": "bytes32"
        }
      ],
      "stateMutability": "view",
      "type": "function"
    },
    {
      "inputs": [
        {
          "internalType": "address",
          "name": "newOwner",
          "type": "address"
        }
      ],
      "name": "transferOwnership",
      "outputs": [],
      "stateMutability": "nonpayable",
      "type": "function"
    },
    {
      "inputs": [],
      "name": "usdc",
      "outputs": [
        {
          "internalType": "contract IERC20",
          "name": "",
          "type": "address"
        }
      ],
      "stateMutability": "view",
      "type": "function"
    },
    {
      "inputs": [
        {
          "internalType": "bytes32",
          "name": "symbol",
          "type": "bytes32"
        },
        {
          "internalType": "address",
          "name": "to",
          "type": "address"
        },
        {
          "internalType": "uint256",
          "name": "amountUSDC",
          "type": "uint256"
        }
      ],
      "name": "withdrawExcess",
      "outputs": [],
      "stateMutability": "nonpayable",
      "type": "function"
    }
  ],
  "bytecode": "0x60a0604052346102c65761122280380380610019816102e1565b9283398101906080818303126102c65761003281610306565b61003e60208301610306565b9061004b60408401610306565b606084015190936001600160401b0382116102c657019380601f860112156102c6578451946001600160401b0386116102cb578560051b906020806100918185016102e1565b8099815201928201019283116102c657602001905b8282106102b6575050506001600160a01b03169081156102a057600080546001600160a01b031981168417825560405193916001600160a01b03909116907f8be0079c531659141344cd1fd0a4f28419497f9722a3daafe3b4186f6b6457e09080a36001600160a01b03169081156102755750608052600180546001600160a01b0319166001600160a01b03929092169182179055600091905b815183101561021b5760009260208160051b84010151808552600360205260ff60408620541615610177575b506001019250610140565b808552600360205260408520805460ff19166001179055600454680100000000000000008110156102075760018101806004558110156101f357819060208760046001979899522001557f9cc6a6aef361ee416b338297a612c4aec82414fc0b7a18cb27f50854d0a76fc46020604051858152a283929161016c565b634e487b7160e01b86526032600452602486fd5b634e487b7160e01b86526041600452602486fd5b604051907f3f32684a32a11dabdbb8c0177de80aa3ae36a004d75210335b49e544e48cd0aa600080a2610f07908161031b82396080518181816101ec0152818161031601528181610500015281816109240152610bf70152f35b62461bcd60e51b81526020600482015260066024820152650757364633d360d41b6044820152606490fd5b631e4fbdf760e01b600052600060045260246000fd5b81518152602091820191016100a6565b600080fd5b634e487b7160e01b600052604160045260246000fd5b6040519190601f01601f191682016001600160401b038111838210176102cb57604052565b51906001600160a01b03821682036102c65756fe608080604052600436101561001357600080fd5b60003560e01c9081632e0f262514610c26575080633e413bee14610be157806345e7763314610b275780634d30b6be14610adf5780636746854d14610ab3578063676ea19214610a29578063715018a614610a5a5780637193f2f014610a295780637a408454146108235780637adbf973146107bc5780637dc0d1d0146107935780638da5cb5b1461076a5780639c3dfd3e14610623578063b0566345146105f7578063c55a15f314610436578063ccce413b146103fe578063e1856ff4146102a7578063ebd88adb1461017e5763f2fde38b146100f057600080fd5b3461017957602036600319011261017957610109610c40565b610111610de3565b6001600160a01b0316801561016357600080546001600160a01b03198116831782556001600160a01b0316907f8be0079c531659141344cd1fd0a4f28419497f9722a3daafe3b4186f6b6457e09080a3005b631e4fbdf760e01b600052600060045260246000fd5b600080fd5b346101795761018c36610c56565b610194610de3565b8160005260036020526101ae60ff60406000205416610cbf565b6101b9811515610d66565b6040516323b872dd60e01b8152336004820152306024820152604481018290529060208260648160006001600160a01b037f0000000000000000000000000000000000000000000000000000000000000000165af190811561029b5761024b6020927f386ca647174a1fea7c3929f63d736a5b63ec7950cacfa4b256063cbb6ceca8439460009161026e575b50610d9b565b83600052600582526040600020610263828254610dd6565b9055604051908152a2005b61028e9150843d8611610294575b6102868183610c9d565b810190610d17565b86610245565b503d61027c565b6040513d6000823e3d90fd5b34610179576102b536610c56565b8160005260036020526102cf60ff60406000205416610cbf565b6102da811515610d66565b6102e48183610e0c565b6040516323b872dd60e01b81523360048201523060248201526044810182905260208160648160006001600160a01b037f0000000000000000000000000000000000000000000000000000000000000000165af1801561029b5761034f916000916103df5750610d9b565b8260005260056020526040600020610368828254610dd6565b9055336000526002602052604060002083600052602052604060002061038f838254610dd6565b905582600052600660205260406000206103aa828254610dd6565b905560405191825260208201527f1ffb0d357e5bc4c01e4df6fa44d8361e45bec387b318adf33773794a06a6f9ae60403392a3005b6103f8915060203d602011610294576102868183610c9d565b85610245565b346101795760203660031901126101795760043560045481101561017957610427602091610c6c565b90549060031b1c604051908152f35b34610179576060366003190112610179576024356001600160a01b03811690600435908281036101795760443561046b610de3565b83156105cc578260005260056020526040600020548360005260066020526040600020548082116000146105c3576104a291610cf4565b811161058d576020816104fa93856000526005835260406000206104c7838254610cf4565b905560405163a9059cbb60e01b81526001600160a01b039091166004820152602481019190915292839081906044820190565b038160007f00000000000000000000000000000000000000000000000000000000000000006001600160a01b03165af190811561029b576105676020927fffcaa199744b4f26f65f7fcb044bf80d51f5f52627bded663e1e311fd5e36b6794600091610570575b50610d2f565b604051908152a3005b6105879150843d8611610294576102868183610c9d565b87610561565b60405162461bcd60e51b815260206004820152600e60248201526d657863656564732065786365737360901b6044820152606490fd5b505060006104a2565b606460405162461bcd60e51b81526020600482015260046024820152630746f3d360e41b6044820152fd5b346101795760203660031901126101795760043560005260066020526020604060002054604051908152f35b346101795760403660031901126101795760043560243580158015918281036101795761064e610de3565b80610751575b156106f057508160005260036020526040600020600160ff19825416179055600454680100000000000000008110156106da577f9cc6a6aef361ee416b338297a612c4aec82414fc0b7a18cb27f50854d0a76fc4916106bb82600160209401600455610c6c565b81549060031b9086821b91600019901b19161790555b604051908152a2005b634e487b7160e01b600052604160045260246000fd5b7f9cc6a6aef361ee416b338297a612c4aec82414fc0b7a18cb27f50854d0a76fc4916020918061073a575b156106d1578360005260038252604060002060ff1981541690556106d1565b50836000526003825260ff6040600020541661071b565b5082600052600360205260ff6040600020541615610654565b34610179576000366003190112610179576000546040516001600160a01b039091168152602090f35b34610179576000366003190112610179576001546040516001600160a01b039091168152602090f35b34610179576020366003190112610179576107d5610c40565b6107dd610de3565b600180546001600160a01b0319166001600160a01b039290921691821790557f3f32684a32a11dabdbb8c0177de80aa3ae36a004d75210335b49e544e48cd0aa600080a2005b346101795761083136610c56565b81600052600360205261084b60ff60406000205416610cbf565b3360005260026020526040600020826000526020526040600020548181101580610a20575b156109ec5781903360005260026020526040600020846000526020520360406000205561089d8183610e0c565b600083815260066020526040902054818181106109de57505060005b83600052600660205260406000205582600052600560205280604060002054106109af5782600052600560205260406000206108f6828254610cf4565b905560405163a9059cbb60e01b81523360048201526024810182905260208160448160006001600160a01b037f0000000000000000000000000000000000000000000000000000000000000000165af1801561029b5761095d916000916109905750610d2f565b60405191825260208201527fdf1d1e23e716edd71dd95859e7f3bd512d9ec5ed0330e01e8221657b9000ef9d60403392a3005b6109a9915060203d602011610294576102868183610c9d565b85610561565b60405162461bcd60e51b81526020600482015260076024820152667265736572766560c81b6044820152606490fd5b6109e791610cf4565b6108b9565b60405162461bcd60e51b815260206004820152600c60248201526b1a5b9cdd59999a58da595b9d60a21b6044820152606490fd5b50811515610870565b34610179576020366003190112610179576004356000526003602052602060ff604060002054166040519015158152f35b3461017957600036600319011261017957610a73610de3565b600080546001600160a01b0319811682556001600160a01b03167f8be0079c531659141344cd1fd0a4f28419497f9722a3daafe3b4186f6b6457e08280a3005b346101795760203660031901126101795760043560005260056020526020604060002054604051908152f35b34610179576040366003190112610179576001600160a01b03610b00610c40565b16600052600260205260406000206024356000526020526020604060002054604051908152f35b34610179576000366003190112610179576040518060206004549283815201809260046000527f8a35acfbc15ff81a39ae7d344fd709f28e8600b4aa8c65c6b64bfe7fe36bd19b9060005b818110610bcb5750505081610b88910382610c9d565b6040519182916020830190602084525180915260408301919060005b818110610bb2575050500390f35b8251845285945060209384019390920191600101610ba4565b8254845260209093019260019283019201610b72565b34610179576000366003190112610179576040517f00000000000000000000000000000000000000000000000000000000000000006001600160a01b03168152602090f35b346101795760003660031901126101795780600660209252f35b600435906001600160a01b038216820361017957565b6040906003190112610179576004359060243590565b600454811015610c8757600460005260206000200190600090565b634e487b7160e01b600052603260045260246000fd5b90601f8019910116810190811067ffffffffffffffff8211176106da57604052565b15610cc657565b60405162461bcd60e51b81526020600482015260066024820152651cde5b589bdb60d21b6044820152606490fd5b91908203918211610d0157565b634e487b7160e01b600052601160045260246000fd5b90816020910312610179575180151581036101795790565b15610d3657565b60405162461bcd60e51b81526020600482015260086024820152673a3930b739b332b960c11b6044820152606490fd5b15610d6d57565b60405162461bcd60e51b8152602060048201526006602482015265185b5bdd5b9d60d21b6044820152606490fd5b15610da257565b60405162461bcd60e51b815260206004820152600c60248201526b7472616e7366657246726f6d60a01b6044820152606490fd5b91908201809211610d0157565b6000546001600160a01b03163303610df757565b63118cdaa760e01b6000523360045260246000fd5b90602060018060a01b036001541692602460405180958193622a7f6f60ea1b835260048301525afa91821561029b57600092610e9d575b508115610e6f57670de0b6b3a7640000810290808204670de0b6b3a76400001490151715610d01570490565b60405162461bcd60e51b81526020600482015260066024820152656f7261636c6560d01b6044820152606490fd5b9091506020813d602011610ec9575b81610eb960209383610c9d565b8101031261017957519038610e43565b3d9150610eac56fea26469706673582212201945770749cbb7c5f781e021e6bd860e1e0507feda0d851a25f379e4a38c744564736f6c634300081e0033",
  "linkReferences": {},
  "deployedLinkReferences": {}
}