{
  "_format": "hh-sol-artifact-1",
  "contractName": "OrbitalPool",
  "sourceName": "contracts/IntegratedOrbital.sol",
  "abi": [
    {
      "inputs": [
        {
          "internalType": "contract IERC20[5]",
          "name": "_tokens",
          "type": "address[5]"
        },
        {
          "internalType": "address",
          "name": "_mathHelperAddress",
          "type": "address"
        }
      ],
      "stateMutability": "nonpayable",
      "type": "constructor"
    },
    {
      "inputs": [],
      "name": "InsufficientLiquidity",
      "type": "error"
    },
    {
      "inputs": [],
      "name": "InvalidAmounts",
      "type": "error"
    },
    {
      "inputs": [],
      "name": "InvalidKValue",
      "type": "error"
    },
    {
      "inputs": [],
      "name": "InvalidTokenIndex",
      "type": "error"
    },
    {
      "inputs": [
        {
          "internalType": "string",
          "name": "reason",
          "type": "string"
        }
      ],
      "name": "MathHelperError",
      "type": "error"
    },
    {
      "inputs": [],
      "name": "NumericalError",
      "type": "error"
    },
    {
      "inputs": [
        {
          "internalType": "address",
          "name": "token",
          "type": "address"
        }
      ],
      "name": "SafeERC20FailedOperation",
      "type": "error"
    },
    {
      "inputs": [],
      "name": "SlippageExceeded",
      "type": "error"
    },
    {
      "inputs": [],
      "name": "TickAlreadyExists",
      "type": "error"
    },
    {
      "anonymous": false,
      "inputs": [
        {
          "indexed": true,
          "internalType": "address",
          "name": "provider",
          "type": "address"
        },
        {
          "indexed": false,
          "internalType": "uint256",
          "name": "k",
          "type": "uint256"
        },
        {
          "indexed": false,
          "internalType": "uint256[5]",
          "name": "amounts",
          "type": "uint256[5]"
        },
        {
          "indexed": false,
          "internalType": "uint256",
          "name": "lpShares",
          "type": "uint256"
        }
      ],
      "name": "LiquidityAdded",
      "type": "event"
    },
    {
      "anonymous": false,
      "inputs": [
        {
          "indexed": true,
          "internalType": "address",
          "name": "provider",
          "type": "address"
        },
        {
          "indexed": false,
          "internalType": "uint256",
          "name": "k",
          "type": "uint256"
        },
        {
          "indexed": false,
          "internalType": "uint256[5]",
          "name": "amounts",
          "type": "uint256[5]"
        },
        {
          "indexed": false,
          "internalType": "uint256",
          "name": "lpShares",
          "type": "uint256"
        }
      ],
      "name": "LiquidityRemoved",
      "type": "event"
    },
    {
      "anonymous": false,
      "inputs": [
        {
          "indexed": true,
          "internalType": "address",
          "name": "trader",
          "type": "address"
        },
        {
          "indexed": false,
          "internalType": "uint256",
          "name": "tokenIn",
          "type": "uint256"
        },
        {
          "indexed": false,
          "internalType": "uint256",
          "name": "tokenOut",
          "type": "uint256"
        },
        {
          "indexed": false,
          "internalType": "uint256",
          "name": "amountIn",
          "type": "uint256"
        },
        {
          "indexed": false,
          "internalType": "uint256",
          "name": "amountOut",
          "type": "uint256"
        },
        {
          "indexed": false,
          "internalType": "uint256",
          "name": "fee",
          "type": "uint256"
        }
      ],
      "name": "Swap",
      "type": "event"
    },
    {
      "anonymous": false,
      "inputs": [
        {
          "indexed": false,
          "internalType": "uint256",
          "name": "k",
          "type": "uint256"
        },
        {
          "indexed": false,
          "internalType": "enum OrbitalPool.TickStatus",
          "name": "oldStatus",
          "type": "uint8"
        },
        {
          "indexed": false,
          "internalType": "enum OrbitalPool.TickStatus",
          "name": "newStatus",
          "type": "uint8"
        }
      ],
      "name": "TickStatusChanged",
      "type": "event"
    },
    {
      "inputs": [],
      "name": "FEE_DENOMINATOR",
      "outputs": [
        {
          "internalType": "uint256",
          "name": "",
          "type": "uint256"
        }
      ],
      "stateMutability": "view",
      "type": "function"
    },
    {
      "inputs": [],
      "name": "TOKENS_COUNT",
      "outputs": [
        {
          "internalType": "uint256",
          "name": "",
          "type": "uint256"
        }
      ],
      "stateMutability": "view",
      "type": "function"
    },
    {
      "inputs": [],
      "name": "_getTotalReserves",
      "outputs": [
        {
          "internalType": "uint256[5]",
          "name": "totalReserves",
          "type": "uint256[5]"
        }
      ],
      "stateMutability": "view",
      "type": "function"
    },
    {
      "inputs": [
        {
          "internalType": "uint256",
          "name": "",
          "type": "uint256"
        }
      ],
      "name": "activeTicks",
      "outputs": [
        {
          "internalType": "uint256",
          "name": "",
          "type": "uint256"
        }
      ],
      "stateMutability": "view",
      "type": "function"
    },
    {
      "inputs": [
        {
          "internalType": "uint256",
          "name": "k",
          "type": "uint256"
        },
        {
          "internalType": "uint256[5]",
          "name": "amounts",
          "type": "uint256[5]"
        }
      ],
      "name": "addLiquidity",
      "outputs": [],
      "stateMutability": "nonpayable",
      "type": "function"
    },
    {
      "inputs": [
        {
          "internalType": "uint256",
          "name": "k",
          "type": "uint256"
        }
      ],
      "name": "getAccruedFees",
      "outputs": [
        {
          "internalType": "uint256",
          "name": "",
          "type": "uint256"
        }
      ],
      "stateMutability": "view",
      "type": "function"
    },
    {
      "inputs": [
        {
          "internalType": "uint256",
          "name": "k",
          "type": "uint256"
        },
        {
          "internalType": "address",
          "name": "user",
          "type": "address"
        }
      ],
      "name": "getLpShares",
      "outputs": [
        {
          "internalType": "uint256",
          "name": "",
          "type": "uint256"
        }
      ],
      "stateMutability": "view",
      "type": "function"
    },
    {
      "inputs": [
        {
          "internalType": "uint256",
          "name": "k",
          "type": "uint256"
        }
      ],
      "name": "getTickLiquidity",
      "outputs": [
        {
          "internalType": "uint256",
          "name": "",
          "type": "uint256"
        }
      ],
      "stateMutability": "view",
      "type": "function"
    },
    {
      "inputs": [
        {
          "internalType": "uint256",
          "name": "k",
          "type": "uint256"
        }
      ],
      "name": "getTickRadius",
      "outputs": [
        {
          "internalType": "uint256",
          "name": "",
          "type": "uint256"
        }
      ],
      "stateMutability": "view",
      "type": "function"
    },
    {
      "inputs": [
        {
          "internalType": "uint256",
          "name": "k",
          "type": "uint256"
        }
      ],
      "name": "getTickStatus",
      "outputs": [
        {
          "internalType": "enum OrbitalPool.TickStatus",
          "name": "",
          "type": "uint8"
        }
      ],
      "stateMutability": "view",
      "type": "function"
    },
    {
      "inputs": [
        {
          "internalType": "uint256",
          "name": "k",
          "type": "uint256"
        }
      ],
      "name": "getTotalLpShares",
      "outputs": [
        {
          "internalType": "uint256",
          "name": "",
          "type": "uint256"
        }
      ],
      "stateMutability": "view",
      "type": "function"
    },
    {
      "inputs": [
        {
          "internalType": "uint256",
          "name": "",
          "type": "uint256"
        }
      ],
      "name": "isActiveTick",
      "outputs": [
        {
          "internalType": "bool",
          "name": "",
          "type": "bool"
        }
      ],
      "stateMutability": "view",
      "type": "function"
    },
    {
      "inputs": [],
      "name": "mathHelper",
      "outputs": [
        {
          "internalType": "contract IOrbitalMathHelper",
          "name": "",
          "type": "address"
        }
      ],
      "stateMutability": "view",
      "type": "function"
    },
    {
      "inputs": [
        {
          "internalType": "uint256",
          "name": "k",
          "type": "uint256"
        },
        {
          "internalType": "uint256",
          "name": "lpSharesToRemove",
          "type": "uint256"
        }
      ],
      "name": "removeLiquidity",
      "outputs": [],
      "stateMutability": "nonpayable",
      "type": "function"
    },
    {
      "inputs": [
        {
          "internalType": "uint256",
          "name": "tokenIn",
          "type": "uint256"
        },
        {
          "internalType": "uint256",
          "name": "tokenOut",
          "type": "uint256"
        },
        {
          "internalType": "uint256",
          "name": "amountIn",
          "type": "uint256"
        },
        {
          "internalType": "uint256",
          "name": "minAmountOut",
          "type": "uint256"
        }
      ],
      "name": "swap",
      "outputs": [
        {
          "internalType": "uint256",
          "name": "amountOut",
          "type": "uint256"
        }
      ],
      "stateMutability": "nonpayable",
      "type": "function"
    },
    {
      "inputs": [],
      "name": "swapFee",
      "outputs": [
        {
          "internalType": "uint256",
          "name": "",
          "type": "uint256"
        }
      ],
      "stateMutability": "view",
      "type": "function"
    },
    {
      "inputs": [
        {
          "internalType": "uint256",
          "name": "",
          "type": "uint256"
        }
      ],
      "name": "ticks",
      "outputs": [
        {
          "internalType": "uint256",
          "name": "r",
          "type": "uint256"
        },
        {
          "internalType": "uint256",
          "name": "k",
          "type": "uint256"
        },
        {
          "internalType": "uint256",
          "name": "liquidity",
          "type": "uint256"
        },
        {
          "internalType": "uint256",
          "name": "totalLpShares",
          "type": "uint256"
        },
        {
          "internalType": "enum OrbitalPool.TickStatus",
          "name": "status",
          "type": "uint8"
        },
        {
          "internalType": "uint256",
          "name": "accruedFees",
          "type": "uint256"
        }
      ],
      "stateMutability": "view",
      "type": "function"
    },
    {
      "inputs": [
        {
          "internalType": "uint256",
          "name": "",
          "type": "uint256"
        }
      ],
      "name": "tokens",
      "outputs": [
        {
          "internalType": "contract IERC20",
          "name": "",
          "type": "address"
        }
      ],
      "stateMutability": "view",
      "type": "function"
    }
  ],
  "bytecode": "0x60a0604052610bb860055534801561001657600080fd5b506040516137cf3803806137cf83398181016040528101906100389190610311565b816000906005610049929190610085565b508073ffffffffffffffffffffffffffffffffffffffff1660808173ffffffffffffffffffffffffffffffffffffffff16815250505050610351565b82600581019282156100f1579160200282015b828111156100f05782518260006101000a81548173ffffffffffffffffffffffffffffffffffffffff021916908373ffffffffffffffffffffffffffffffffffffffff16021790555091602001919060010190610098565b5b5090506100fe9190610102565b5090565b5b8082111561011b576000816000905550600101610103565b5090565b6000604051905090565b600080fd5b600080fd5b6000601f19601f8301169050919050565b7f4e487b7100000000000000000000000000000000000000000000000000000000600052604160045260246000fd5b61017c82610133565b810181811067ffffffffffffffff8211171561019b5761019a610144565b5b80604052505050565b60006101ae61011f565b90506101ba8282610173565b919050565b600067ffffffffffffffff8211156101da576101d9610144565b5b602082029050919050565b600080fd5b600073ffffffffffffffffffffffffffffffffffffffff82169050919050565b6000610215826101ea565b9050919050565b60006102278261020a565b9050919050565b6102378161021c565b811461024257600080fd5b50565b6000815190506102548161022e565b92915050565b600061026d610268846101bf565b6101a4565b90508060208402830185811115610287576102866101e5565b5b835b818110156102b0578061029c8882610245565b845260208401935050602081019050610289565b5050509392505050565b600082601f8301126102cf576102ce61012e565b5b60056102dc84828561025a565b91505092915050565b6102ee8161020a565b81146102f957600080fd5b50565b60008151905061030b816102e5565b92915050565b60008060c0838503121561032857610327610129565b5b6000610336858286016102ba565b92505060a0610347858286016102fc565b9150509250929050565b60805161344e6103816000396000818161040001528181611a4c0152818161200301526125c6015261344e6000f3fe608060405234801561001057600080fd5b50600436106101165760003560e01c80639d7de6b3116100a2578063d646918711610071578063d646918714610332578063d73792a914610350578063e650e22c1461036e578063f23bf49a1461039e578063fa5d64fe146103ce57610116565b80639d7de6b31461029a578063be577260146102b6578063c1b09c70146102e6578063d3fbf29e1461031657610116565b8063534cb30d116100e9578063534cb30d146101c957806354cf2aeb146101fe5780635673b02d1461021c578063807428a71461024c5780638ecbdb5f1461026a57610116565b806323b4df151461011b57806324043890146101395780632b8d985d146101695780634f64b2be14610199575b600080fd5b6101236103fe565b604051610130919061295e565b60405180910390f35b610153600480360381019061014e91906129be565b610422565b60405161016091906129fa565b60405180910390f35b610183600480360381019061017e9190612a53565b610446565b60405161019091906129fa565b60405180910390f35b6101b360048036038101906101ae91906129be565b6104a4565b6040516101c09190612ab4565b60405180910390f35b6101e360048036038101906101de91906129be565b6104da565b6040516101f596959493929190612b46565b60405180910390f35b610206610523565b60405161021391906129fa565b60405180910390f35b61023660048036038101906102319190612ba7565b610529565b60405161024391906129fa565b60405180910390f35b61025461084d565b6040516102619190612cb9565b60405180910390f35b610284600480360381019061027f91906129be565b61091d565b6040516102919190612cef565b60405180910390f35b6102b460048036038101906102af9190612d0a565b61093d565b005b6102d060048036038101906102cb91906129be565b610df2565b6040516102dd9190612d4a565b60405180910390f35b61030060048036038101906102fb91906129be565b610e1f565b60405161030d91906129fa565b60405180910390f35b610330600480360381019061032b9190612eac565b610e3f565b005b61033a61143f565b60405161034791906129fa565b60405180910390f35b610358611444565b60405161036591906129fa565b60405180910390f35b610388600480360381019061038391906129be565b61144b565b60405161039591906129fa565b60405180910390f35b6103b860048036038101906103b391906129be565b61146b565b6040516103c591906129fa565b60405180910390f35b6103e860048036038101906103e391906129be565b61148b565b6040516103f591906129fa565b60405180910390f35b7f000000000000000000000000000000000000000000000000000000000000000081565b6006818154811061043257600080fd5b906000526020600020016000915090505481565b60006008600084815260200190815260200160002060090160008373ffffffffffffffffffffffffffffffffffffffff1673ffffffffffffffffffffffffffffffffffffffff16815260200190815260200160002054905092915050565b600081600581106104b457600080fd5b016000915054906101000a900473ffffffffffffffffffffffffffffffffffffffff1681565b600860205280600052604060002060009150905080600001549080600101549080600201549080600801549080600a0160009054906101000a900460ff169080600b0154905086565b60055481565b600060058510158061053c575060058410155b15610573576040517f609f982f00000000000000000000000000000000000000000000000000000000815260040160405180910390fd5b8385036105ac576040517fd856fc5a00000000000000000000000000000000000000000000000000000000815260040160405180910390fd5b600083036105e6576040517fd856fc5a00000000000000000000000000000000000000000000000000000000815260040160405180910390fd5b61064833308560008960058110610600576105ff612eec565b5b0160009054906101000a900473ffffffffffffffffffffffffffffffffffffffff1673ffffffffffffffffffffffffffffffffffffffff166114ab909392919063ffffffff16565b6000620f4240600554620f424061065f9190612f4a565b8561066a9190612f7e565b6106749190612fef565b9050600061068061084d565b905061068e8188888561152d565b9250838310156106ca576040517f8199f5f300000000000000000000000000000000000000000000000000000000815260040160405180910390fd5b818188600581106106de576106dd612eec565b5b602002018181516106ef9190613020565b915081815250508281876005811061070a57610709612eec565b5b602002015110610745578281876005811061072857610727612eec565b5b602002018181516107399190612f4a565b91508181525050610764565b600081876005811061075a57610759612eec565b5b6020020181815250505b61076d81611702565b6107cd33846000896005811061078657610785612eec565b5b0160009054906101000a900473ffffffffffffffffffffffffffffffffffffffff1673ffffffffffffffffffffffffffffffffffffffff1661189c9092919063ffffffff16565b6107e282866107dc9190612f4a565b8861191b565b3373ffffffffffffffffffffffffffffffffffffffff167f6d2535bccee43630e01014525de773080b47e1a82c56ef6a30802933a48c9e3488888887878b61082a9190612f4a565b60405161083b959493929190613054565b60405180910390a25050949350505050565b61085561281e565b60005b6006805490508110156109195760006006828154811061087b5761087a612eec565b5b90600052602060002001549050600060086000838152602001908152602001600020905060008160000154111561090a5760005b6005811015610908578160030181600581106108ce576108cd612eec565b5b01548582600581106108e3576108e2612eec565b5b602002018181516108f49190613020565b9150818152505080806001019150506108af565b505b50508080600101915050610858565b5090565b60076020528060005260406000206000915054906101000a900460ff1681565b60008203610977576040517f9f4c287000000000000000000000000000000000000000000000000000000000815260040160405180910390fd5b600081036109b1576040517fd856fc5a00000000000000000000000000000000000000000000000000000000815260040160405180910390fd5b60006008600084815260200190815260200160002090506000816000015403610a06576040517f9f4c287000000000000000000000000000000000000000000000000000000000815260040160405180910390fd5b60008160090160003373ffffffffffffffffffffffffffffffffffffffff1673ffffffffffffffffffffffffffffffffffffffff16815260200190815260200160002054905082811015610a86576040517fbb55fd2700000000000000000000000000000000000000000000000000000000815260040160405180910390fd5b6000826008015466038d7ea4c6800085610aa09190612f7e565b610aaa9190612fef565b9050610ab461281e565b60005b6005811015610b1e5766038d7ea4c6800083866003018360058110610adf57610ade612eec565b5b0154610aeb9190612f7e565b610af59190612fef565b828260058110610b0857610b07612eec565b5b6020020181815250508080600101915050610ab7565b50610b2761281e565b60005b6005811015610b9657828160058110610b4657610b45612eec565b5b6020020151866003018260058110610b6157610b60612eec565b5b0154610b6d9190612f4a565b828260058110610b8057610b7f612eec565b5b6020020181815250508080600101915050610b2a565b506000610ba282611a39565b90508086600001819055508186600301906005610bc0929190612840565b508081610bcd9190612f7e565b8660020181905550868660090160003373ffffffffffffffffffffffffffffffffffffffff1673ffffffffffffffffffffffffffffffffffffffff1681526020019081526020016000206000828254610c269190612f4a565b9250508190555086866008016000828254610c419190612f4a565b9250508190555060006607f1b1257e148e66038d7ea4c6800083610c659190612f7e565b610c6f9190612fef565b9050888114610c7f576000610c82565b60015b87600a0160006101000a81548160ff02191690836001811115610ca857610ca7612acf565b5b021790555060005b6005811015610d94576000858260058110610cce57610ccd612eec565b5b60200201511115610d5557610d5033868360058110610cf057610cef612eec565b5b602002015160008460058110610d0957610d08612eec565b5b0160009054906101000a900473ffffffffffffffffffffffffffffffffffffffff1673ffffffffffffffffffffffffffffffffffffffff1661189c9092919063ffffffff16565b610d87565b6040517fd856fc5a00000000000000000000000000000000000000000000000000000000815260040160405180910390fd5b8080600101915050610cb0565b503373ffffffffffffffffffffffffffffffffffffffff167fd83bc89e36ce65b91aecd07ffedbed1f8be3e8c662d0f59f241ffab6d18b1fcf8a868b604051610ddf939291906130a7565b60405180910390a2505050505050505050565b600060086000838152602001908152602001600020600a0160009054906101000a900460ff169050919050565b600060086000838152602001908152602001600020600001549050919050565b60008203610e79576040517f9f4c287000000000000000000000000000000000000000000000000000000000815260040160405180910390fd5b610e8281611bc6565b610eb8576040517fd856fc5a00000000000000000000000000000000000000000000000000000000815260040160405180910390fd5b6000806008600085815260200190815260200160002060000154119050600081610ee3576000610efb565b60086000858152602001908152602001600020600001545b9050600082610f0b576000610f23565b60086000868152602001908152602001600020600801545b9050610f2d61281e565b83610f3a57849050610fbd565b60005b6005811015610fbb57858160058110610f5957610f58612eec565b5b6020020151600860008981526020019081526020016000206003018260058110610f8657610f85612eec565b5b0154610f929190613020565b828260058110610fa557610fa4612eec565b5b6020020181815250508080600101915050610f3d565b505b6000610fc882611a39565b9050610fd48782611c18565b61100a576040517f9f4c287000000000000000000000000000000000000000000000000000000000815260040160405180910390fd5b60006607f1b1257e148e66038d7ea4c68000836110279190612f7e565b6110319190612fef565b90506000888214611043576000611046565b60015b90508661114b576000600860008b8152602001908152602001600020905083816000018190555089816001018190555083846110829190612f7e565b8160020181905550888160030190600561109d929190612840565b508181600a0160006101000a81548160ff021916908360018111156110c5576110c4612acf565b5b0217905550600760008b815260200190815260200160002060009054906101000a900460ff166111455760068a90806001815401808255809150506001900390600052602060002001600090919091909150556001600760008c815260200190815260200160002060006101000a81548160ff0219169083151502179055505b506111f1565b82600860008b81526020019081526020016000206000018190555083600860008b815260200190815260200160002060030190600561118b929190612840565b5082836111989190612f7e565b600860008b81526020019081526020016000206002018190555080600860008b8152602001908152602001600020600a0160006101000a81548160ff021916908360018111156111eb576111ea612acf565b5b02179055505b60005b60058110156112da57600089826005811061121257611211612eec565b5b6020020151111561129b5761129633308b846005811061123557611234612eec565b5b60200201516000856005811061124e5761124d612eec565b5b0160009054906101000a900473ffffffffffffffffffffffffffffffffffffffff1673ffffffffffffffffffffffffffffffffffffffff166114ab909392919063ffffffff16565b6112cd565b6040517fd856fc5a00000000000000000000000000000000000000000000000000000000815260040160405180910390fd5b80806001019150506111f4565b5060008715806112ea5750600086145b1561130d57600860008b815260200190815260200160002060000154905061134a565b8684111561134457600087856113239190612f4a565b90508787826113329190612f7e565b61133c9190612fef565b915050611349565b600190505b5b80600860008c815260200190815260200160002060090160003373ffffffffffffffffffffffffffffffffffffffff1673ffffffffffffffffffffffffffffffffffffffff16815260200190815260200160002060008282546113ad9190613020565b9250508190555080600860008c815260200190815260200160002060080160008282546113da9190613020565b925050819055503373ffffffffffffffffffffffffffffffffffffffff167f14216293d5a9c4dacf8b9152c875fd529aed9d761a523e1ebcb430576546d0f78b8b8460405161142b939291906130a7565b60405180910390a250505050505050505050565b600581565b620f424081565b600060086000838152602001908152602001600020600801549050919050565b600060086000838152602001908152602001600020600201549050919050565b600060086000838152602001908152602001600020600b01549050919050565b611527848573ffffffffffffffffffffffffffffffffffffffff166323b872dd8686866040516024016114e0939291906130ed565b604051602081830303815290604052915060e01b6020820180517bffffffffffffffffffffffffffffffffffffffffffffffffffffffff8381831617835250505050611cf7565b50505050565b600080600061153a611d99565b915091506000805b6005811015611581578360000151816005811061156257611561612eec565b5b6020020151826115729190613020565b91508080600101915050611542565b506000600567ffffffffffffffff81111561159f5761159e612d7b565b5b6040519080825280602002602001820160405280156115cd5781602001602082028036833780820191505090505b50905060005b6005811015611620578981600581106115ef576115ee612eec565b5b602002015182828151811061160757611606612eec565b5b60200260200101818152505080806001019150506115d3565b50600061163f83866080015186608001518760a001518e8e8e8e611ff0565b9050600081036116a15760006116578b8b8b8b612192565b905060008103611693576040517fbb55fd2700000000000000000000000000000000000000000000000000000000815260040160405180910390fd5b8096505050505050506116fa565b8988600581106116b4576116b3612eec565b5b602002015181106116f1576040517fbb55fd2700000000000000000000000000000000000000000000000000000000815260040160405180910390fd5b80955050505050505b949350505050565b600061170d82612276565b905060005b60068054905081101561188e5760006006828154811061173557611734612eec565b5b906000526020600020015490506000600860008381526020019081526020016000209050600081600001540361176c575050611881565b6000816000015466038d7ea4c68000866117869190612f7e565b6117909190612fef565b90506000826000015466038d7ea4c6800084600101546117b09190612f7e565b6117ba9190612fef565b9050600083600a0160009054906101000a900460ff16905060008284106117e25760016117e5565b60005b90508060018111156117fa576117f9612acf565b5b82600181111561180d5761180c612acf565b5b1461187a578085600a0160006101000a81548160ff0219169083600181111561183957611838612acf565b5b02179055507ff310aa10742ef753707a522b3e8b85d2579a27f48a0c9589fe9187d061f2674786838360405161187193929190613124565b60405180910390a15b5050505050505b8080600101915050611712565b50611898826122d1565b5050565b611916838473ffffffffffffffffffffffffffffffffffffffff1663a9059cbb85856040516024016118cf92919061315b565b604051602081830303815290604052915060e01b6020820180517bffffffffffffffffffffffffffffffffffffffffffffffffffffffff8381831617835250505050611cf7565b505050565b6000805b60068054905081101561197b57600860006006838154811061194457611943612eec565b5b90600052602060002001548152602001908152602001600020600201548261196c9190613020565b9150808060010191505061191f565b506000810361198a5750611a35565b60005b600680549050811015611a32576000600682815481106119b0576119af612eec565b5b90600052602060002001549050600060086000838152602001908152602001600020905060008160020154036119e7575050611a25565b6000848260020154886119fa9190612f7e565b611a049190612fef565b90508082600b016000828254611a1a9190613020565b925050819055505050505b808060010191505061198d565b50505b5050565b600080611a458361251b565b90506000807f000000000000000000000000000000000000000000000000000000000000000073ffffffffffffffffffffffffffffffffffffffff1683604051602401611a92919061321b565b6040516020818303038152906040527f50272f1c000000000000000000000000000000000000000000000000000000007bffffffffffffffffffffffffffffffffffffffffffffffffffffffff19166020820180517bffffffffffffffffffffffffffffffffffffffffffffffffffffffff8381831617835250505050604051611b1c91906132ae565b6000604051808303816000865af19150503d8060008114611b59576040519150601f19603f3d011682016040523d82523d6000602084013e611b5e565b606091505b5091509150811580611b71575060008151145b15611ba8576040517f2892daeb00000000000000000000000000000000000000000000000000000000815260040160405180910390fd5b80806020019051810190611bbc91906132da565b9350505050919050565b600080600090505b6005811015611c0d576000838260058110611bec57611beb612eec565b5b602002015103611c00576000915050611c13565b8080600101915050611bce565b50600190505b919050565b6000808203611c2a5760009050611cf1565b600066038d7ea4c680006607f1b1257e148e611c469190612f4a565b9050600066038d7ea4c680008483611c5e9190612f7e565b611c689190612fef565b905060006607f1b1257e148e66038d7ea4c68000866004611c899190612f7e565b611c939190612f7e565b611c9d9190612fef565b905081861080611cac57508086115b15611cbd5760009350505050611cf1565b60006607f1b1257e148e66038d7ea4c6800087611cda9190612f7e565b611ce49190612fef565b9050808710159450505050505b92915050565b600080602060008451602086016000885af180611d1a576040513d6000823e3d81fd5b3d925060005191505060008214611d35576001811415611d51565b60008473ffffffffffffffffffffffffffffffffffffffff163b145b15611d9357836040517f5274afe7000000000000000000000000000000000000000000000000000000008152600401611d8a9190613307565b60405180910390fd5b50505050565b611da1612880565b611da9612880565b60005b600680549050811015611feb57600060068281548110611dcf57611dce612eec565b5b9060005260206000200154905060006008600083815260200190815260200160002090506000816000015403611e06575050611fde565b60006001811115611e1a57611e19612acf565b5b81600a0160009054906101000a900460ff166001811115611e3e57611e3d612acf565b5b03611ef957806000015485608001818151611e599190613020565b91508181525050806002015485604001818151611e769190613020565b91508181525050846060018051809190611e8f90613322565b8152505060005b6005811015611ef357816003018160058110611eb557611eb4612eec565b5b015486600001518260058110611ece57611ecd612eec565b5b60200201818151611edf9190613020565b915081815250508080600101915050611e96565b50611fdb565b6000611f0d826000015483600101546125bf565b90508085608001818151611f219190613020565b91508181525050816002015485604001818151611f3e9190613020565b91508181525050846060018051809190611f5790613322565b8152505081600101548560a001818151611f719190613020565b9150818152505060005b6005811015611fd857826003018160058110611f9a57611f99612eec565b5b015486600001518260058110611fb357611fb2612eec565b5b60200201818151611fc49190613020565b915081815250508080600101915050611f7b565b50505b50505b8080600101915050611dac565b509091565b600080611ffc8661251b565b90506000807f000000000000000000000000000000000000000000000000000000000000000073ffffffffffffffffffffffffffffffffffffffff168c8c8c8c878c8c8c60405160240161205798979695949392919061336a565b6040516020818303038152906040527f19be0803000000000000000000000000000000000000000000000000000000007bffffffffffffffffffffffffffffffffffffffffffffffffffffffff19166020820180517bffffffffffffffffffffffffffffffffffffffffffffffffffffffff83818316178352505050506040516120e191906132ae565b6000604051808303816000865af19150503d806000811461211e576040519150601f19603f3d011682016040523d82523d6000602084013e612123565b606091505b5091509150811580612136575060008151145b1561216d576040517f2892daeb00000000000000000000000000000000000000000000000000000000815260040160405180910390fd5b8080602001905181019061218191906132da565b935050505098975050505050505050565b6000808585600581106121a8576121a7612eec565b5b602002015114806121d0575060008584600581106121c9576121c8612eec565b5b6020020151145b156121de576000905061226e565b60008584600581106121f3576121f2612eec565b5b6020020151836122039190612f7e565b905060008387876005811061221b5761221a612eec565b5b602002015161222a9190613020565b90506000810361223f5760009250505061226e565b6000818361224d9190612fef565b9050606460628261225e9190612f7e565b6122689190612fef565b93505050505b949350505050565b6000806000905060005b60058110156122bb5783816005811061229c5761229b612eec565b5b6020020151826122ac9190613020565b91508080600101915050612280565b506005816122c99190612fef565b915050919050565b6000805b6006805490508110156123aa576000600682815481106122f8576122f7612eec565b5b906000526020600020015490506000600860008381526020019081526020016000206000015411801561237257506000600181111561233a57612339612acf565b5b60086000838152602001908152602001600020600a0160009054906101000a900460ff1660018111156123705761236f612acf565b5b145b1561239c576008600082815260200190815260200160002060000154836123999190613020565b92505b5080806001019150506122d5565b5060005b600680549050811015612516576000600682815481106123d1576123d0612eec565b5b9060005260206000200154905060006008600083815260200190815260200160002090506000816000015403612408575050612509565b6000600181111561241c5761241b612acf565b5b81600a0160009054906101000a900460ff1660018111156124405761243f612acf565b5b14801561244d5750600084115b156124be5760005b60058110156124b85784826000015487836005811061247757612476612eec565b5b60200201516124869190612f7e565b6124909190612fef565b8260030182600581106124a6576124a5612eec565b5b01819055508080600101915050612455565b50612506565b6001808111156124d1576124d0612acf565b5b81600a0160009054906101000a900460ff1660018111156124f5576124f4612acf565b5b03612505576125048286612742565b5b5b50505b80806001019150506123ae565b505050565b6060600567ffffffffffffffff81111561253857612537612d7b565b5b6040519080825280602002602001820160405280156125665781602001602082028036833780820191505090505b50905060005b60058110156125b95782816005811061258857612587612eec565b5b60200201518282815181106125a05761259f612eec565b5b602002602001018181525050808060010191505061256c565b50919050565b60008060007f000000000000000000000000000000000000000000000000000000000000000073ffffffffffffffffffffffffffffffffffffffff16858560405160240161260e9291906133ef565b6040516020818303038152906040527f6bec96e0000000000000000000000000000000000000000000000000000000007bffffffffffffffffffffffffffffffffffffffffffffffffffffffff19166020820180517bffffffffffffffffffffffffffffffffffffffffffffffffffffffff838183161783525050505060405161269891906132ae565b6000604051808303816000865af19150503d80600081146126d5576040519150601f19603f3d011682016040523d82523d6000602084013e6126da565b606091505b50915091508115806126ed575060008151145b15612724576040517f2892daeb00000000000000000000000000000000000000000000000000000000815260040160405180910390fd5b8080602001905181019061273891906132da565b9250505092915050565b600060086000848152602001908152602001600020905060006127a382600301600580602002604051908101604052809291908260058015612799576020028201915b815481526020019060010190808311612785575b5050505050612276565b9050816001015481146128185760005b6005811015612816578183600101548460030183600581106127d8576127d7612eec565b5b01546127e49190612f7e565b6127ee9190612fef565b83600301826005811061280457612803612eec565b5b018190555080806001019150506127b3565b505b50505050565b6040518060a00160405280600590602082028036833780820191505090505090565b826005810192821561286f579160200282015b8281111561286e578251825591602001919060010190612853565b5b50905061287c91906128c2565b5090565b6040518060c0016040528061289361281e565b81526020016128a061281e565b8152602001600081526020016000815260200160008152602001600081525090565b5b808211156128db5760008160009055506001016128c3565b5090565b600073ffffffffffffffffffffffffffffffffffffffff82169050919050565b6000819050919050565b600061292461291f61291a846128df565b6128ff565b6128df565b9050919050565b600061293682612909565b9050919050565b60006129488261292b565b9050919050565b6129588161293d565b82525050565b6000602082019050612973600083018461294f565b92915050565b6000604051905090565b600080fd5b6000819050919050565b61299b81612988565b81146129a657600080fd5b50565b6000813590506129b881612992565b92915050565b6000602082840312156129d4576129d3612983565b5b60006129e2848285016129a9565b91505092915050565b6129f481612988565b82525050565b6000602082019050612a0f60008301846129eb565b92915050565b6000612a20826128df565b9050919050565b612a3081612a15565b8114612a3b57600080fd5b50565b600081359050612a4d81612a27565b92915050565b60008060408385031215612a6a57612a69612983565b5b6000612a78858286016129a9565b9250506020612a8985828601612a3e565b9150509250929050565b6000612a9e8261292b565b9050919050565b612aae81612a93565b82525050565b6000602082019050612ac96000830184612aa5565b92915050565b7f4e487b7100000000000000000000000000000000000000000000000000000000600052602160045260246000fd5b60028110612b0f57612b0e612acf565b5b50565b6000819050612b2082612afe565b919050565b6000612b3082612b12565b9050919050565b612b4081612b25565b82525050565b600060c082019050612b5b60008301896129eb565b612b6860208301886129eb565b612b7560408301876129eb565b612b8260608301866129eb565b612b8f6080830185612b37565b612b9c60a08301846129eb565b979650505050505050565b60008060008060808587031215612bc157612bc0612983565b5b6000612bcf878288016129a9565b9450506020612be0878288016129a9565b9350506040612bf1878288016129a9565b9250506060612c02878288016129a9565b91505092959194509250565b600060059050919050565b600081905092915050565b6000819050919050565b612c3781612988565b82525050565b6000612c498383612c2e565b60208301905092915050565b6000602082019050919050565b612c6b81612c0e565b612c758184612c19565b9250612c8082612c24565b8060005b83811015612cb1578151612c988782612c3d565b9650612ca383612c55565b925050600181019050612c84565b505050505050565b600060a082019050612cce6000830184612c62565b92915050565b60008115159050919050565b612ce981612cd4565b82525050565b6000602082019050612d046000830184612ce0565b92915050565b60008060408385031215612d2157612d20612983565b5b6000612d2f858286016129a9565b9250506020612d40858286016129a9565b9150509250929050565b6000602082019050612d5f6000830184612b37565b92915050565b600080fd5b6000601f19601f8301169050919050565b7f4e487b7100000000000000000000000000000000000000000000000000000000600052604160045260246000fd5b612db382612d6a565b810181811067ffffffffffffffff82111715612dd257612dd1612d7b565b5b80604052505050565b6000612de5612979565b9050612df18282612daa565b919050565b600067ffffffffffffffff821115612e1157612e10612d7b565b5b602082029050919050565b600080fd5b6000612e34612e2f84612df6565b612ddb565b90508060208402830185811115612e4e57612e4d612e1c565b5b835b81811015612e775780612e6388826129a9565b845260208401935050602081019050612e50565b5050509392505050565b600082601f830112612e9657612e95612d65565b5b6005612ea3848285612e21565b91505092915050565b60008060c08385031215612ec357612ec2612983565b5b6000612ed1858286016129a9565b9250506020612ee285828601612e81565b9150509250929050565b7f4e487b7100000000000000000000000000000000000000000000000000000000600052603260045260246000fd5b7f4e487b7100000000000000000000000000000000000000000000000000000000600052601160045260246000fd5b6000612f5582612988565b9150612f6083612988565b9250828203905081811115612f7857612f77612f1b565b5b92915050565b6000612f8982612988565b9150612f9483612988565b9250828202612fa281612988565b91508282048414831517612fb957612fb8612f1b565b5b5092915050565b7f4e487b7100000000000000000000000000000000000000000000000000000000600052601260045260246000fd5b6000612ffa82612988565b915061300583612988565b92508261301557613014612fc0565b5b828204905092915050565b600061302b82612988565b915061303683612988565b925082820190508082111561304e5761304d612f1b565b5b92915050565b600060a08201905061306960008301886129eb565b61307660208301876129eb565b61308360408301866129eb565b61309060608301856129eb565b61309d60808301846129eb565b9695505050505050565b600060e0820190506130bc60008301866129eb565b6130c96020830185612c62565b6130d660c08301846129eb565b949350505050565b6130e781612a15565b82525050565b600060608201905061310260008301866130de565b61310f60208301856130de565b61311c60408301846129eb565b949350505050565b600060608201905061313960008301866129eb565b6131466020830185612b37565b6131536040830184612b37565b949350505050565b600060408201905061317060008301856130de565b61317d60208301846129eb565b9392505050565b600081519050919050565b600082825260208201905092915050565b6000819050602082019050919050565b6000602082019050919050565b60006131c882613184565b6131d2818561318f565b93506131dd836131a0565b8060005b8381101561320e5781516131f58882612c3d565b9750613200836131b0565b9250506001810190506131e1565b5085935050505092915050565b6000602082019050818103600083015261323581846131bd565b905092915050565b600081519050919050565b600081905092915050565b60005b83811015613271578082015181840152602081019050613256565b60008484015250505050565b60006132888261323d565b6132928185613248565b93506132a2818560208601613253565b80840191505092915050565b60006132ba828461327d565b915081905092915050565b6000815190506132d481612992565b92915050565b6000602082840312156132f0576132ef612983565b5b60006132fe848285016132c5565b91505092915050565b600060208201905061331c60008301846130de565b92915050565b600061332d82612988565b91507fffffffffffffffffffffffffffffffffffffffffffffffffffffffffffffffff820361335f5761335e612f1b565b5b600182019050919050565b600061010082019050613380600083018b6129eb565b61338d602083018a6129eb565b61339a60408301896129eb565b6133a760608301886129eb565b81810360808301526133b981876131bd565b90506133c860a08301866129eb565b6133d560c08301856129eb565b6133e260e08301846129eb565b9998505050505050505050565b600060408201905061340460008301856129eb565b61341160208301846129eb565b939250505056fea2646970667358221220cf2eabf59ca775d95ecf81d2e0da79cee6484d4e64172dd50143bc17d473b42464736f6c634300081e0033",
  "linkReferences": {},
  "deployedLinkReferences": {}
}