{
  "_format": "hh-sol-artifact-1",
  "contractName": "OrbitalPool",
  "sourceName": "contracts/IntegratedOrbital.sol",
  "abi": [
    {
      "inputs": [
        {
          "internalType": "contract IERC20[5]",
          "name": "_tokens",
          "type": "address[5]"
        },
        {
          "internalType": "address",
          "name": "_mathHelperAddress",
          "type": "address"
        }
      ],
      "stateMutability": "nonpayable",
      "type": "constructor"
    },
    {
      "inputs": [],
      "name": "InsufficientLiquidity",
      "type": "error"
    },
    {
      "inputs": [],
      "name": "InvalidAmounts",
      "type": "error"
    },
    {
      "inputs": [],
      "name": "InvalidKValue",
      "type": "error"
    },
    {
      "inputs": [],
      "name": "InvalidTokenIndex",
      "type": "error"
    },
    {
      "inputs": [
        {
          "internalType": "string",
          "name": "reason",
          "type": "string"
        }
      ],
      "name": "MathHelperError",
      "type": "error"
    },
    {
      "inputs": [],
      "name": "NumericalError",
      "type": "error"
    },
    {
      "inputs": [
        {
          "internalType": "address",
          "name": "token",
          "type": "address"
        }
      ],
      "name": "SafeERC20FailedOperation",
      "type": "error"
    },
    {
      "inputs": [],
      "name": "SlippageExceeded",
      "type": "error"
    },
    {
      "inputs": [],
      "name": "TickAlreadyExists",
      "type": "error"
    },
    {
      "anonymous": false,
      "inputs": [
        {
          "indexed": true,
          "internalType": "address",
          "name": "provider",
          "type": "address"
        },
        {
          "indexed": false,
          "internalType": "uint256",
          "name": "k",
          "type": "uint256"
        },
        {
          "indexed": false,
          "internalType": "uint256[5]",
          "name": "amounts",
          "type": "uint256[5]"
        },
        {
          "indexed": false,
          "internalType": "uint256",
          "name": "lpShares",
          "type": "uint256"
        }
      ],
      "name": "LiquidityAdded",
      "type": "event"
    },
    {
      "anonymous": false,
      "inputs": [
        {
          "indexed": true,
          "internalType": "address",
          "name": "provider",
          "type": "address"
        },
        {
          "indexed": false,
          "internalType": "uint256",
          "name": "k",
          "type": "uint256"
        },
        {
          "indexed": false,
          "internalType": "uint256[5]",
          "name": "amounts",
          "type": "uint256[5]"
        },
        {
          "indexed": false,
          "internalType": "uint256",
          "name": "lpShares",
          "type": "uint256"
        }
      ],
      "name": "LiquidityRemoved",
      "type": "event"
    },
    {
      "anonymous": false,
      "inputs": [
        {
          "indexed": true,
          "internalType": "address",
          "name": "trader",
          "type": "address"
        },
        {
          "indexed": false,
          "internalType": "uint256",
          "name": "tokenIn",
          "type": "uint256"
        },
        {
          "indexed": false,
          "internalType": "uint256",
          "name": "tokenOut",
          "type": "uint256"
        },
        {
          "indexed": false,
          "internalType": "uint256",
          "name": "amountIn",
          "type": "uint256"
        },
        {
          "indexed": false,
          "internalType": "uint256",
          "name": "amountOut",
          "type": "uint256"
        },
        {
          "indexed": false,
          "internalType": "uint256",
          "name": "fee",
          "type": "uint256"
        }
      ],
      "name": "Swap",
      "type": "event"
    },
    {
      "anonymous": false,
      "inputs": [
        {
          "indexed": false,
          "internalType": "uint256",
          "name": "k",
          "type": "uint256"
        },
        {
          "indexed": false,
          "internalType": "enum OrbitalPool.TickStatus",
          "name": "oldStatus",
          "type": "uint8"
        },
        {
          "indexed": false,
          "internalType": "enum OrbitalPool.TickStatus",
          "name": "newStatus",
          "type": "uint8"
        }
      ],
      "name": "TickStatusChanged",
      "type": "event"
    },
    {
      "inputs": [],
      "name": "FEE_DENOMINATOR",
      "outputs": [
        {
          "internalType": "uint256",
          "name": "",
          "type": "uint256"
        }
      ],
      "stateMutability": "view",
      "type": "function"
    },
    {
      "inputs": [],
      "name": "TOKENS_COUNT",
      "outputs": [
        {
          "internalType": "uint256",
          "name": "",
          "type": "uint256"
        }
      ],
      "stateMutability": "view",
      "type": "function"
    },
    {
      "inputs": [],
      "name": "_getTotalReserves",
      "outputs": [
        {
          "internalType": "uint256[5]",
          "name": "totalReserves",
          "type": "uint256[5]"
        }
      ],
      "stateMutability": "view",
      "type": "function"
    },
    {
      "inputs": [
        {
          "internalType": "uint256",
          "name": "",
          "type": "uint256"
        }
      ],
      "name": "activeTicks",
      "outputs": [
        {
          "internalType": "uint256",
          "name": "",
          "type": "uint256"
        }
      ],
      "stateMutability": "view",
      "type": "function"
    },
    {
      "inputs": [
        {
          "internalType": "uint256",
          "name": "k",
          "type": "uint256"
        },
        {
          "internalType": "uint256[5]",
          "name": "amounts",
          "type": "uint256[5]"
        }
      ],
      "name": "addLiquidity",
      "outputs": [],
      "stateMutability": "nonpayable",
      "type": "function"
    },
    {
      "inputs": [
        {
          "internalType": "uint256",
          "name": "k",
          "type": "uint256"
        }
      ],
      "name": "getAccruedFees",
      "outputs": [
        {
          "internalType": "uint256",
          "name": "",
          "type": "uint256"
        }
      ],
      "stateMutability": "view",
      "type": "function"
    },
    {
      "inputs": [
        {
          "internalType": "uint256",
          "name": "k",
          "type": "uint256"
        },
        {
          "internalType": "address",
          "name": "user",
          "type": "address"
        }
      ],
      "name": "getLpShares",
      "outputs": [
        {
          "internalType": "uint256",
          "name": "",
          "type": "uint256"
        }
      ],
      "stateMutability": "view",
      "type": "function"
    },
    {
      "inputs": [
        {
          "internalType": "uint256",
          "name": "k",
          "type": "uint256"
        }
      ],
      "name": "getTickLiquidity",
      "outputs": [
        {
          "internalType": "uint256",
          "name": "",
          "type": "uint256"
        }
      ],
      "stateMutability": "view",
      "type": "function"
    },
    {
      "inputs": [
        {
          "internalType": "uint256",
          "name": "k",
          "type": "uint256"
        }
      ],
      "name": "getTickRadius",
      "outputs": [
        {
          "internalType": "uint256",
          "name": "",
          "type": "uint256"
        }
      ],
      "stateMutability": "view",
      "type": "function"
    },
    {
      "inputs": [
        {
          "internalType": "uint256",
          "name": "k",
          "type": "uint256"
        }
      ],
      "name": "getTickStatus",
      "outputs": [
        {
          "internalType": "enum OrbitalPool.TickStatus",
          "name": "",
          "type": "uint8"
        }
      ],
      "stateMutability": "view",
      "type": "function"
    },
    {
      "inputs": [
        {
          "internalType": "uint256",
          "name": "k",
          "type": "uint256"
        }
      ],
      "name": "getTotalLpShares",
      "outputs": [
        {
          "internalType": "uint256",
          "name": "",
          "type": "uint256"
        }
      ],
      "stateMutability": "view",
      "type": "function"
    },
    {
      "inputs": [
        {
          "internalType": "uint256",
          "name": "",
          "type": "uint256"
        }
      ],
      "name": "isActiveTick",
      "outputs": [
        {
          "internalType": "bool",
          "name": "",
          "type": "bool"
        }
      ],
      "stateMutability": "view",
      "type": "function"
    },
    {
      "inputs": [],
      "name": "mathHelper",
      "outputs": [
        {
          "internalType": "contract IOrbitalMathHelper",
          "name": "",
          "type": "address"
        }
      ],
      "stateMutability": "view",
      "type": "function"
    },
    {
      "inputs": [
        {
          "internalType": "uint256",
          "name": "k",
          "type": "uint256"
        },
        {
          "internalType": "uint256",
          "name": "lpSharesToRemove",
          "type": "uint256"
        }
      ],
      "name": "removeLiquidity",
      "outputs": [],
      "stateMutability": "nonpayable",
      "type": "function"
    },
    {
      "inputs": [
        {
          "internalType": "uint256",
          "name": "tokenIn",
          "type": "uint256"
        },
        {
          "internalType": "uint256",
          "name": "tokenOut",
          "type": "uint256"
        },
        {
          "internalType": "uint256",
          "name": "amountIn",
          "type": "uint256"
        },
        {
          "internalType": "uint256",
          "name": "minAmountOut",
          "type": "uint256"
        }
      ],
      "name": "swap",
      "outputs": [
        {
          "internalType": "uint256",
          "name": "amountOut",
          "type": "uint256"
        }
      ],
      "stateMutability": "nonpayable",
      "type": "function"
    },
    {
      "inputs": [],
      "name": "swapFee",
      "outputs": [
        {
          "internalType": "uint256",
          "name": "",
          "type": "uint256"
        }
      ],
      "stateMutability": "view",
      "type": "function"
    },
    {
      "inputs": [
        {
          "internalType": "uint256",
          "name": "",
          "type": "uint256"
        }
      ],
      "name": "ticks",
      "outputs": [
        {
          "internalType": "uint256",
          "name": "r",
          "type": "uint256"
        },
        {
          "internalType": "uint256",
          "name": "k",
          "type": "uint256"
        },
        {
          "internalType": "uint256",
          "name": "liquidity",
          "type": "uint256"
        },
        {
          "internalType": "uint256",
          "name": "totalLpShares",
          "type": "uint256"
        },
        {
          "internalType": "enum OrbitalPool.TickStatus",
          "name": "status",
          "type": "uint8"
        },
        {
          "internalType": "uint256",
          "name": "accruedFees",
          "type": "uint256"
        }
      ],
      "stateMutability": "view",
      "type": "function"
    },
    {
      "inputs": [
        {
          "internalType": "uint256",
          "name": "",
          "type": "uint256"
        }
      ],
      "name": "tokens",
      "outputs": [
        {
          "internalType": "contract IERC20",
          "name": "",
          "type": "address"
        }
      ],
      "stateMutability": "view",
      "type": "function"
    }
  ],
  "bytecode": "0x60a0604052346100f557604051611bd13881900390601f8201601f19168301906001600160401b0382118483101761011a5782916040528339810160c0828203126100f55780601f830112156100f5576040519160a083016001600160401b0381118482101761011a57604052829060a081019283116100f557905b8282106100fa575050516001600160a01b03811691908290036100f557610bb860055560005b600581106100da5782608052604051611aa090816101318239608051818181610fa2015281816112ff015281816114d0015261175a0152f35b81516001600160a01b031681556020909101906001016100a1565b600080fd5b81516001600160a01b03811681036100f55781526020918201910161007b565b634e487b7160e01b600052604160045260246000fdfe608080604052600436101561001357600080fd5b60003560e01c90816323b4df1514610f8f575080632404389014610f575780632b8d985d14610f015780634f64b2be14610ece578063534cb30d14610e6057806354cf2aeb14610e425780635673b02d14610930578063807428a7146109085780638ecbdb5f146108d75780639d7de6b31461065b578063be57726014610622578063c1b09c70146105f6578063d3fbf29e146101b1578063d646918714610195578063d73792a914610177578063e650e22c14610148578063f23bf49a146101195763fa5d64fe146100e557600080fd5b346101145760203660031901126101145760043560005260086020526020600b60406000200154604051908152f35b600080fd5b346101145760203660031901126101145760043560005260086020526020600260406000200154604051908152f35b346101145760203660031901126101145760043560005260086020526020600860406000200154604051908152f35b34610114576000366003190112610114576020604051620f42408152f35b3461011457600036600319011261011457602060405160058152f35b346101145760c03660031901126101145760043536604312156101145760a0604051916101de8284611031565b823660c411610114576024905b60c482106105e6575050801561056c57610204836117ba565b15610363576000818152600860205260408120541592831591846105e05750826000526008602052604060002054905b82156105d857836000526008602052600860406000200154925b60405191600061025e8285611031565b5036833781861561057d57508691505b61027782611711565b9161028283876117eb565b1561056c5766038d7ea4c68000830283810466038d7ea4c680001484151715610556576607f1b1257e148e9004860361054e576001905b87156104e7575085600052600860205260406000208381558660018201556102e18480611060565b60028201558860005b600581106104d057505090600a610301920161114a565b84600052600760205260ff604060002054161561045b575b60005b60058110156103745761032f8189611093565b51156103635780546001919061035d906001600160a01b0316610352838c611093565b519030903390611180565b0161031c565b636c2b7e2d60e11b60005260046000fd5b507f14216293d5a9c4dacf8b9152c875fd529aed9d761a523e1ebcb430576546d0f79596949690610453575b1561041f57505050826000526008602052604060002054905b836000526008602052600960406000200160018060a01b03331660005260205260406000206103e98382546110a4565b905583600052600860205260086040600020016104078382546110a4565b905561041a604051928392339684611162565b0390a2005b8181111561044857610442926104388361043d93611053565b611060565b611073565b906103b9565b5050506001906103b9565b5082156103a0565b600654680100000000000000008110156104ba578561048382600161049c9401600655610fd1565b90919082549060031b91821b91600019901b1916179055565b8460005260076020526040600020600160ff19825416179055610319565b634e487b7160e01b600052604160045260246000fd5b6001906020835193019260038286010155016102ea565b600087815260086020526040812085815591905b6005811061053757505050610532906105148480611060565b60008881526008602052604090206002810191909155600a0161114a565b610319565b6001906020835193019260038286010155016104fb565b6000906102b9565b634e487b7160e01b600052601160045260246000fd5b6309f4c28760e41b60005260046000fd5b60005b6005811061058f57505061026e565b6001908760005260086020526105c76105af826003604060002001610fec565b90549060031b1c6105c0838d611093565b51906110a4565b6105d18285611093565b5201610580565b60009261024e565b90610234565b81358152602091820191016101eb565b346101145760203660031901126101145760043560005260086020526020604060002054604051908152f35b34610114576020366003190112610114576004356000526008602052602060ff600a60406000200154166106596040518092610ffc565bf35b3461011457604036600319011261011457600435602435811561056c5780156103635781600052600860205260406000209182541561056c5733600090815260098401602081905260409091205483116108c65766038d7ea4c6800083029383850466038d7ea4c6800003610556576106da6008820195865490611073565b9460a092604051966106ec8589611031565b84368937600384019060005b6005811061088f575050604051946107108187611031565b36863760005b6005811061085657505061072984611711565b9384845560005b6005811061083f5750506107448480611060565b600284015560018060a01b0333166000526020526040600020610768868254611053565b9055610775858254611053565b905566038d7ea4c6800082029180830466038d7ea4c68000149015171561055657826607f1b1257e148e6107b893041460001461083557600a6001915b0161114a565b60005b6005811015610800576107ce8185611093565b5115610363578054600191906107fa906001600160a01b03166107f18388611093565b519033906115a3565b016107bb565b507fd83bc89e36ce65b91aecd07ffedbed1f8be3e8c662d0f59f241ffab6d18b1fcf828461041a604051928392339684611162565b600a6000916107b2565b600190602083519301926003828801015501610730565b8061087e61086660019385610fec565b90549060031b1c610877838d611093565b5190611053565b6108888289611093565b5201610716565b8066038d7ea4c680006108b4846108a860019588610fec565b90549060031b1c611060565b046108bf828d611093565b52016106f8565b63bb55fd2760e01b60005260046000fd5b34610114576020366003190112610114576004356000526007602052602060ff604060002054166040519015158152f35b346101145760003660031901126101145760a06109236110b1565b6106596040518092611009565b34610114576080366003190112610114576004356024356044356005831080158091610e37575b610e265782841461036357811561036357610d6d578254610986908290309033906001600160a01b0316611180565b600554620f424003620f42408111610556576109a6620f42409183611060565b04906109b06110b1565b906109bd838587856111df565b936064358510610e15576109db846109d58886611093565b516110a4565b6109e58785611093565b52846109f18285611093565b5110610e0057610a0b85610a058386611093565b51611053565b610a158285611093565b529493945b610a23836119ee565b9360009666038d7ea4c6800086029580870466038d7ea4c680001490151715975b600654811015610b7757610a5781610fd1565b90549060031b1c908160005260086020526040600020918254928b8415610b6b5761055657610a86848b611073565b93600182015466038d7ea4c6800081029080820466038d7ea4c68000149015171561055657600a91610ab791611073565b91019060ff8254169410600014610b63576000915b6002831015610b4d576002851015610b4d57848360019603610af4575b505050505b01610a44565b83610b39610b4392610b297ff310aa10742ef753707a522b3e8b85d2579a27f48a0c9589fe9187d061f267479760609761114a565b6040519485526020850190610ffc565b6040830190610ffc565ba18a808080610ae9565b634e487b7160e01b600052602160045260246000fd5b600191610acc565b50505060019150610aee565b50866000936000600654905b818110610d8357505060005b600654811015610ce757610ba281610fd1565b90549060031b1c806000526008602052604060002090815415610c3e5760ff600a83015416906002821015610b4d57811580610cde575b15610c31575050600381019060005b888b60058310610c015750505050506001905b01610b8f565b610c21839261043d610c18600196610c2b95611093565b51875490611060565b6104838387610fec565b01610be8565b6000925090600114610c48575b5050600190610bfb565b81526008602052604081206003810190604051808385915b60058310610cc857505050610c8181610c7c60a0600194611031565b6119ee565b91019283548203610c94575b5050610c3e565b6005811015610c8d5780610cc2610c218461043d610cb460019689610fec565b90548a549160031b1c611060565b01610c94565b6001602081928454815201920192019190610c60565b50881515610bd9565b50856005821015610d6d57610d24602095610d0c863360018060a01b038754166115a3565b610d1e610d198285611053565b6115de565b82611053565b9160405193845285840152604083015282606083015260808201527f6d2535bccee43630e01014525de773080b47e1a82c56ef6a30802933a48c9e3460a03392a2604051908152f35b634e487b7160e01b600052603260045260246000fd5b610d8c81610fd1565b90549060031b1c806000526008602052604060002054151580610ddb575b610db8575b50600101610b83565b60019197610dd4916000526008602052604060002054906110a4565b9690610daf565b5080600052600860205260ff600a60406000200154166002811015610b4d5715610daa565b6000610e0c8285611093565b52949394610a1a565b638199f5f360e01b60005260046000fd5b63609f982f60e01b60005260046000fd5b506005831015610957565b34610114576000366003190112610114576020600554604051908152f35b3461011457602036600319011261011457600435600052600860205260c06040600020805490610ec76001820154916002810154600882015490600b60ff600a85015416930154946040519687526020870152604086015260608501526080840190610ffc565b60a0820152f35b3461011457602036600319011261011457600435600581101561011457546040516001600160a01b039091168152602090f35b34610114576040366003190112610114576024356001600160a01b038116810361011457600435600052600860205260096040600020019060018060a01b03166000526020526020604060002054604051908152f35b346101145760203660031901126101145760043560065481101561011457610f80602091610fd1565b90549060031b1c604051908152f35b34610114576000366003190112610114577f00000000000000000000000000000000000000000000000000000000000000006001600160a01b03168152602090f35b600654811015610d6d57600660005260206000200190600090565b6005821015610d6d570190600090565b906002821015610b4d5752565b906000905b6005821061101b57505050565b602080600192855181520193019101909161100e565b90601f8019910116810190811067ffffffffffffffff8211176104ba57604052565b9190820391821161055657565b8181029291811591840414171561055657565b811561107d570490565b634e487b7160e01b600052601260045260246000fd5b906005811015610d6d5760051b0190565b9190820180921161055657565b6040519060a06110c18184611031565b3683376006548260005b8281106110d757505050565b6110e081610fd1565b90549060031b1c600052600860205260406000208054611104575b506001016110cb565b60030160005b6005811061111857506110fb565b8061113961112860019385610fec565b90549060031b1c6109d58388611093565b6111438287611093565b520161110a565b906002811015610b4d5760ff80198354169116179055565b61117c60c09295949360e083019683526020830190611009565b0152565b6040516323b872dd60e01b60208201526001600160a01b0392831660248201529290911660448301526064808301939093529181526111c9916111c4608483611031565b611896565b565b8051821015610d6d5760209160051b010190565b9091936111ea6118fd565b926111f36118fd565b9560005b60065481101561140b5761120a81610fd1565b90549060031b1c60005260086020526040600020805480156114015760ff600a830154166002811015610b4d576112c45750805461124d608089019182516110a4565b90526002810154611263604089019182516110a4565b9052606087016112738151611960565b905260030160005b6005811061128f5750506001905b016111f7565b8061129c60019284610fec565b90549060031b1c6112bd826112b78c51936109d58386611093565b92611093565b520161127b565b6000806001840192835460405190602082019263035f64b760e51b845260248301526044820152604481526112fa606482611031565b5190827f00000000000000000000000000000000000000000000000000000000000000006001600160a01b03165af16113316116d1565b901580156113f8575b6113e7578051602080830192600092810103126113e457505161136260808c019182516110a4565b9052600282015461137860408c019182516110a4565b905260608a016113888151611960565b90525461139a60a08b019182516110a4565b905260030160005b600581106113b4575050600190611289565b808a6113dd826112b76113c960019688610fec565b90549060031b1c9351936109d58386611093565b52016113a2565b80fd5b632892daeb60e01b60005260046000fd5b5080511561133a565b5050600190611289565b509294919593909360009160005b60058110611584575060405161143060c082611031565b6005815260a036602083013760005b6005811061156057505091600092916114cb6080859401516114aa60a0608085015194015161146d8c611a1e565b9060405195869460208601986319be080360e01b8a52602487015260448601526064850152608484015261010060a484015261012483019061169d565b8960c48301528860e48301528761010483015203601f198101835282611031565b5190827f00000000000000000000000000000000000000000000000000000000000000006001600160a01b03165af16115026116d1565b90158015611557575b6113e7578051602080830192600092810103126113e45750519283156115425750506115379192611093565b518110156108c65790565b90925061154e9361196f565b80156108c65790565b5080511561150b565b8061156f6001928b9c9b611093565b5161157a82856111cb565b520198979861143f565b926115996001916105c086859c9b9c51611093565b9301979697611419565b60405163a9059cbb60e01b60208201526001600160a01b0390921660248301526044808301939093529181526111c9916111c4606483611031565b60009060006006545b80821061166657505081156116625760005b60065481101561165d578061160f600192610fd1565b90549060031b1c60005260086020526040600020600281015485811561165557611642600b9161043d61164c9489611060565b92019182546110a4565b90555b016115f9565b50505061164f565b505050565b5050565b909261169560019161167786610fd1565b90549060031b1c6000526008602052600260406000200154906110a4565b9301906115e7565b906020808351928381520192019060005b8181106116bb5750505090565b82518452602093840193909201916001016116ae565b3d1561170c573d9067ffffffffffffffff82116104ba5760405191611700601f8201601f191660200184611031565b82523d6000602084013e565b606090565b600061171d8192611a1e565b604051611755816117476020820194631409cbc760e21b865260206024840152604483019061169d565b03601f198101835282611031565b5190827f00000000000000000000000000000000000000000000000000000000000000006001600160a01b03165af161178c6116d1565b901580156117b1575b6113e75760208151918180820193849201010312610114575190565b50805115611795565b60005b600581106117cc575050600190565b6117d68183611093565b51156117e4576001016117bd565b5050600090565b9080156117e457806604643280b7948e026604643280b7948e8104820361055657600282901b906001600160fe1b03831683036105565766038d7ea4c6800082029180830466038d7ea4c6800014901517156105565766038d7ea4c6800090048310908115611883575b506117e45766038d7ea4c68000810290810466038d7ea4c6800003610556576607f1b1257e148e9004111590565b6607f1b1257e148e915004821138611855565b906000602091828151910182855af1156118f1576000513d6118e857506001600160a01b0381163b155b6118c75750565b635274afe760e01b60009081526001600160a01b0391909116600452602490fd5b600114156118c0565b6040513d6000823e3d90fd5b6040519060c0820182811067ffffffffffffffff8211176104ba5760405260008260a09060405161192e8382611031565b8236823781526040516119418382611031565b8236823760208201528260408201528260608201528260808201520152565b60001981146105565760010190565b92909161197c8385611093565b511580156119dc575b6119d3576119aa926119a461199d6109d59387611093565b5184611060565b94611093565b80156117e4576119b991611073565b606281029080820460621490151715610556576064900490565b50505050600090565b506119e78185611093565b5115611985565b600080915b60058310611a045750600591500490565b90611a156001916105c08585611093565b920191906119f3565b9060405191611a2e60c084611031565b6005835260a03660208501378260005b60058110611a4b57505050565b80611a5860019285611093565b51611a6382856111cb565b5201611a3e56fea264697066735822122085607b83eefe3e1145fc1a8a41240c8b345537298aa1168b94b99990c985694664736f6c634300081e0033",
  "linkReferences": {},
  "deployedLinkReferences": {}
}