{"contracts/OrbitalMathHelperEVM.sol":{"OrbitalMathHelperEVM":{"abi":[{"inputs":[{"internalType":"uint256","name":"r","type":"uint256"},{"internalType":"uint256","name":"","type":"uint256"}],"name":"calculateBoundaryTickS","outputs":[{"internalType":"uint256","name":"","type":"uint256"}],"stateMutability":"pure","type":"function"},{"inputs":[{"internalType":"uint256[]","name":"reserves","type":"uint256[]"}],"name":"calculateRadius","outputs":[{"internalType":"uint256","name":"","type":"uint256"}],"stateMutability":"pure","type":"function"},{"inputs":[{"internalType":"uint256","name":"sum_interior_reserves","type":"uint256"},{"internalType":"uint256","name":"interior_consolidated_radius","type":"uint256"},{"internalType":"uint256","name":"boundary_consolidated_radius","type":"uint256"},{"internalType":"uint256","name":"boundary_total_k_bound","type":"uint256"},{"internalType":"uint256[]","name":"total_reserves","type":"uint256[]"},{"internalType":"uint256","name":"token_in_index","type":"uint256"},{"internalType":"uint256","name":"token_out_index","type":"uint256"},{"internalType":"uint256","name":"amount_in_after_fee","type":"uint256"}],"name":"solveTorusInvariant","outputs":[{"internalType":"uint256","name":"","type":"uint256"}],"stateMutability":"pure","type":"function"}],"evm":{"bytecode":{"linkReferences":{},"object":"60808060405234601557610433908161001b8239f35b600080fdfe6080604052600436101561001257600080fd5b60003560e01c806319be0803146100a257806350272f1c1461005f57636bec96e01461003d57600080fd5b3461005a57604036600319011261005a5760206040516004358152f35b600080fd5b3461005a57602036600319011261005a5760043567ffffffffffffffff811161005a5761009a61009560209236906004016100ea565b61033d565b604051908152f35b3461005a5761010036600319011261005a5760843567ffffffffffffffff811161005a5761009a6100d960209236906004016100ea565b60e4359060c4359060a435906101c8565b9080601f8301121561005a5781359167ffffffffffffffff8311610165578260051b9060405193601f19603f840116850185811067ffffffffffffffff82111761016557604052845260208085019282010192831161005a57602001905b8282106101555750505090565b8135815260209182019101610148565b634e487b7160e01b600052604160045260246000fd5b805182101561018f5760209160051b010190565b634e487b7160e01b600052603260045260246000fd5b919082039182116101b257565b634e487b7160e01b600052601160045260246000fd5b91825180156103105780831015610310578110156102c0578082146102c0576101f46101fb928461017b565b519261017b565b519180159081158281610335575b801561032d575b6103105784158015908161031a575b5061031057848002938184816102fd575b506102f25782026001600160ff1b0381116102f25760011b92816102c9575b506102c057800290811981116102c0570190808210156102b85761027b91610276916101a5565b6103a4565b818110156102b15761028d90826101a5565b9081159081156102a6575b506102a05790565b50600090565b905081101538610298565b5050600090565b505050600090565b50505050600090565b90506102dc57806000190481113861024f565b634e487b7160e01b600052601260045260246000fd5b505050505050600090565b90506102dc578260001904811184610230565b5050505050600090565b90506102dc57846000190485113861021f565b508415610210565b508315610209565b8051156102a0576000805b82518210156103955761035b828461017b565b51801580159081610382575b506102c0578002801982116102c05760019101910190610348565b90506102dc578060001904811138610367565b90506103a191506103a4565b90565b80156102a057600181018082116101b25760011c815b8282106103c657505090565b90915081600081156103e957508082049081018091116101b25760011c906103ba565b634e487b7160e01b81526012600452602490fdfea2646970667358221220b13573b530ebe0b20a9935c39991892d0811aba0e4f1a7c16e2f19ed5fdd80c864736f6c634300081e0033","opcodes":"PUSH1 0x80 DUP1 PUSH1 0x40 MSTORE CALLVALUE PUSH1 0x15 JUMPI PUSH2 0x433 SWAP1 DUP2 PUSH2 0x1B DUP3 CODECOPY RETURN JUMPDEST PUSH1 0x0 DUP1 REVERT INVALID PUSH1 0x80 PUSH1 0x40 MSTORE PUSH1 0x4 CALLDATASIZE LT ISZERO PUSH2 0x12 JUMPI PUSH1 0x0 DUP1 REVERT JUMPDEST PUSH1 0x0 CALLDATALOAD PUSH1 0xE0 SHR DUP1 PUSH4 0x19BE0803 EQ PUSH2 0xA2 JUMPI DUP1 PUSH4 0x50272F1C EQ PUSH2 0x5F JUMPI PUSH4 0x6BEC96E0 EQ PUSH2 0x3D JUMPI PUSH1 0x0 DUP1 REVERT JUMPDEST CALLVALUE PUSH2 0x5A JUMPI PUSH1 0x40 CALLDATASIZE PUSH1 0x3 NOT ADD SLT PUSH2 0x5A JUMPI PUSH1 0x20 PUSH1 0x40 MLOAD PUSH1 0x4 CALLDATALOAD DUP2 MSTORE RETURN JUMPDEST PUSH1 0x0 DUP1 REVERT JUMPDEST CALLVALUE PUSH2 0x5A JUMPI PUSH1 0x20 CALLDATASIZE PUSH1 0x3 NOT ADD SLT PUSH2 0x5A JUMPI PUSH1 0x4 CALLDATALOAD PUSH8 0xFFFFFFFFFFFFFFFF DUP2 GT PUSH2 0x5A JUMPI PUSH2 0x9A PUSH2 0x95 PUSH1 0x20 SWAP3 CALLDATASIZE SWAP1 PUSH1 0x4 ADD PUSH2 0xEA JUMP JUMPDEST PUSH2 0x33D JUMP JUMPDEST PUSH1 0x40 MLOAD SWAP1 DUP2 MSTORE RETURN JUMPDEST CALLVALUE PUSH2 0x5A JUMPI PUSH2 0x100 CALLDATASIZE PUSH1 0x3 NOT ADD SLT PUSH2 0x5A JUMPI PUSH1 0x84 CALLDATALOAD PUSH8 0xFFFFFFFFFFFFFFFF DUP2 GT PUSH2 0x5A JUMPI PUSH2 0x9A PUSH2 0xD9 PUSH1 0x20 SWAP3 CALLDATASIZE SWAP1 PUSH1 0x4 ADD PUSH2 0xEA JUMP JUMPDEST PUSH1 0xE4 CALLDATALOAD SWAP1 PUSH1 0xC4 CALLDATALOAD SWAP1 PUSH1 0xA4 CALLDATALOAD SWAP1 PUSH2 0x1C8 JUMP JUMPDEST SWAP1 DUP1 PUSH1 0x1F DUP4 ADD SLT ISZERO PUSH2 0x5A JUMPI DUP2 CALLDATALOAD SWAP2 PUSH8 0xFFFFFFFFFFFFFFFF DUP4 GT PUSH2 0x165 JUMPI DUP3 PUSH1 0x5 SHL SWAP1 PUSH1 0x40 MLOAD SWAP4 PUSH1 0x1F NOT PUSH1 0x3F DUP5 ADD AND DUP6 ADD DUP6 DUP2 LT PUSH8 0xFFFFFFFFFFFFFFFF DUP3 GT OR PUSH2 0x165 JUMPI PUSH1 0x40 MSTORE DUP5 MSTORE PUSH1 0x20 DUP1 DUP6 ADD SWAP3 DUP3 ADD ADD SWAP3 DUP4 GT PUSH2 0x5A JUMPI PUSH1 0x20 ADD SWAP1 JUMPDEST DUP3 DUP3 LT PUSH2 0x155 JUMPI POP POP POP SWAP1 JUMP JUMPDEST DUP2 CALLDATALOAD DUP2 MSTORE PUSH1 0x20 SWAP2 DUP3 ADD SWAP2 ADD PUSH2 0x148 JUMP JUMPDEST PUSH4 0x4E487B71 PUSH1 0xE0 SHL PUSH1 0x0 MSTORE PUSH1 0x41 PUSH1 0x4 MSTORE PUSH1 0x24 PUSH1 0x0 REVERT JUMPDEST DUP1 MLOAD DUP3 LT ISZERO PUSH2 0x18F JUMPI PUSH1 0x20 SWAP2 PUSH1 0x5 SHL ADD ADD SWAP1 JUMP JUMPDEST PUSH4 0x4E487B71 PUSH1 0xE0 SHL PUSH1 0x0 MSTORE PUSH1 0x32 PUSH1 0x4 MSTORE PUSH1 0x24 PUSH1 0x0 REVERT JUMPDEST SWAP2 SWAP1 DUP3 SUB SWAP2 DUP3 GT PUSH2 0x1B2 JUMPI JUMP JUMPDEST PUSH4 0x4E487B71 PUSH1 0xE0 SHL PUSH1 0x0 MSTORE PUSH1 0x11 PUSH1 0x4 MSTORE PUSH1 0x24 PUSH1 0x0 REVERT JUMPDEST SWAP2 DUP3 MLOAD DUP1 ISZERO PUSH2 0x310 JUMPI DUP1 DUP4 LT ISZERO PUSH2 0x310 JUMPI DUP2 LT ISZERO PUSH2 0x2C0 JUMPI DUP1 DUP3 EQ PUSH2 0x2C0 JUMPI PUSH2 0x1F4 PUSH2 0x1FB SWAP3 DUP5 PUSH2 0x17B JUMP JUMPDEST MLOAD SWAP3 PUSH2 0x17B JUMP JUMPDEST MLOAD SWAP2 DUP1 ISZERO SWAP1 DUP2 ISZERO DUP3 DUP2 PUSH2 0x335 JUMPI JUMPDEST DUP1 ISZERO PUSH2 0x32D JUMPI JUMPDEST PUSH2 0x310 JUMPI DUP5 ISZERO DUP1 ISZERO SWAP1 DUP2 PUSH2 0x31A JUMPI JUMPDEST POP PUSH2 0x310 JUMPI DUP5 DUP1 MUL SWAP4 DUP2 DUP5 DUP2 PUSH2 0x2FD JUMPI JUMPDEST POP PUSH2 0x2F2 JUMPI DUP3 MUL PUSH1 0x1 PUSH1 0x1 PUSH1 0xFF SHL SUB DUP2 GT PUSH2 0x2F2 JUMPI PUSH1 0x1 SHL SWAP3 DUP2 PUSH2 0x2C9 JUMPI JUMPDEST POP PUSH2 0x2C0 JUMPI DUP1 MUL SWAP1 DUP2 NOT DUP2 GT PUSH2 0x2C0 JUMPI ADD SWAP1 DUP1 DUP3 LT ISZERO PUSH2 0x2B8 JUMPI PUSH2 0x27B SWAP2 PUSH2 0x276 SWAP2 PUSH2 0x1A5 JUMP JUMPDEST PUSH2 0x3A4 JUMP JUMPDEST DUP2 DUP2 LT ISZERO PUSH2 0x2B1 JUMPI PUSH2 0x28D SWAP1 DUP3 PUSH2 0x1A5 JUMP JUMPDEST SWAP1 DUP2 ISZERO SWAP1 DUP2 ISZERO PUSH2 0x2A6 JUMPI JUMPDEST POP PUSH2 0x2A0 JUMPI SWAP1 JUMP JUMPDEST POP PUSH1 0x0 SWAP1 JUMP JUMPDEST SWAP1 POP DUP2 LT ISZERO CODESIZE PUSH2 0x298 JUMP JUMPDEST POP POP PUSH1 0x0 SWAP1 JUMP JUMPDEST POP POP POP PUSH1 0x0 SWAP1 JUMP JUMPDEST POP POP POP POP PUSH1 0x0 SWAP1 JUMP JUMPDEST SWAP1 POP PUSH2 0x2DC JUMPI DUP1 PUSH1 0x0 NOT DIV DUP2 GT CODESIZE PUSH2 0x24F JUMP JUMPDEST PUSH4 0x4E487B71 PUSH1 0xE0 SHL PUSH1 0x0 MSTORE PUSH1 0x12 PUSH1 0x4 MSTORE PUSH1 0x24 PUSH1 0x0 REVERT JUMPDEST POP POP POP POP POP POP PUSH1 0x0 SWAP1 JUMP JUMPDEST SWAP1 POP PUSH2 0x2DC JUMPI DUP3 PUSH1 0x0 NOT DIV DUP2 GT DUP5 PUSH2 0x230 JUMP JUMPDEST POP POP POP POP POP PUSH1 0x0 SWAP1 JUMP JUMPDEST SWAP1 POP PUSH2 0x2DC JUMPI DUP5 PUSH1 0x0 NOT DIV DUP6 GT CODESIZE PUSH2 0x21F JUMP JUMPDEST POP DUP5 ISZERO PUSH2 0x210 JUMP JUMPDEST POP DUP4 ISZERO PUSH2 0x209 JUMP JUMPDEST DUP1 MLOAD ISZERO PUSH2 0x2A0 JUMPI PUSH1 0x0 DUP1 JUMPDEST DUP3 MLOAD DUP3 LT ISZERO PUSH2 0x395 JUMPI PUSH2 0x35B DUP3 DUP5 PUSH2 0x17B JUMP JUMPDEST MLOAD DUP1 ISZERO DUP1 ISZERO SWAP1 DUP2 PUSH2 0x382 JUMPI JUMPDEST POP PUSH2 0x2C0 JUMPI DUP1 MUL DUP1 NOT DUP3 GT PUSH2 0x2C0 JUMPI PUSH1 0x1 SWAP2 ADD SWAP2 ADD SWAP1 PUSH2 0x348 JUMP JUMPDEST SWAP1 POP PUSH2 0x2DC JUMPI DUP1 PUSH1 0x0 NOT DIV DUP2 GT CODESIZE PUSH2 0x367 JUMP JUMPDEST SWAP1 POP PUSH2 0x3A1 SWAP2 POP PUSH2 0x3A4 JUMP JUMPDEST SWAP1 JUMP JUMPDEST DUP1 ISZERO PUSH2 0x2A0 JUMPI PUSH1 0x1 DUP2 ADD DUP1 DUP3 GT PUSH2 0x1B2 JUMPI PUSH1 0x1 SHR DUP2 JUMPDEST DUP3 DUP3 LT PUSH2 0x3C6 JUMPI POP POP SWAP1 JUMP JUMPDEST SWAP1 SWAP2 POP DUP2 PUSH1 0x0 DUP2 ISZERO PUSH2 0x3E9 JUMPI POP DUP1 DUP3 DIV SWAP1 DUP2 ADD DUP1 SWAP2 GT PUSH2 0x1B2 JUMPI PUSH1 0x1 SHR SWAP1 PUSH2 0x3BA JUMP JUMPDEST PUSH4 0x4E487B71 PUSH1 0xE0 SHL DUP2 MSTORE PUSH1 0x12 PUSH1 0x4 MSTORE PUSH1 0x24 SWAP1 REVERT INVALID LOG2 PUSH5 0x6970667358 0x22 SLT KECCAK256 0xB1 CALLDATALOAD PUSH20 0xB530EBE0B20A9935C39991892D0811ABA0E4F1A7 0xC1 PUSH15 0x2F19ED5FDD80C864736F6C63430008 0x1E STOP CALLER "},"methodIdentifiers":{"calculateBoundaryTickS(uint256,uint256)":"6bec96e0","calculateRadius(uint256[])":"50272f1c","solveTorusInvariant(uint256,uint256,uint256,uint256,uint256[],uint256,uint256,uint256)":"19be0803"}}}}}