{
  "_format": "hh-sol-artifact-1",
  "contractName": "Client",
  "sourceName": "@chainlink/contracts-ccip/contracts/libraries/Client.sol",
  "abi": [
    {
      "inputs": [],
      "name": "EVM_EXTRA_ARGS_V1_TAG",
      "outputs": [
        {
          "internalType": "bytes4",
          "name": "",
          "type": "bytes4"
        }
      ],
      "stateMutability": "view",
      "type": "function"
    },
    {
      "inputs": [],
      "name": "GENERIC_EXTRA_ARGS_V2_TAG",
      "outputs": [
        {
          "internalType": "bytes4",
          "name": "",
          "type": "bytes4"
        }
      ],
      "stateMutability": "view",
      "type": "function"
    },
    {
      "inputs": [],
      "name": "SVM_ACCOUNT_BYTE_SIZE",
      "outputs": [
        {
          "internalType": "uint256",
          "name": "",
          "type": "uint256"
        }
      ],
      "stateMutability": "view",
      "type": "function"
    },
    {
      "inputs": [],
      "name": "SVM_EXTRA_ARGS_MAX_ACCOUNTS",
      "outputs": [
        {
          "internalType": "uint256",
          "name": "",
          "type": "uint256"
        }
      ],
      "stateMutability": "view",
      "type": "function"
    },
    {
      "inputs": [],
      "name": "SVM_EXTRA_ARGS_V1_TAG",
      "outputs": [
        {
          "internalType": "bytes4",
          "name": "",
          "type": "bytes4"
        }
      ],
      "stateMutability": "view",
      "type": "function"
    },
    {
      "inputs": [],
      "name": "SVM_MESSAGING_ACCOUNTS_OVERHEAD",
      "outputs": [
        {
          "internalType": "uint256",
          "name": "",
          "type": "uint256"
        }
      ],
      "stateMutability": "view",
      "type": "function"
    },
    {
      "inputs": [],
      "name": "SVM_TOKEN_TRANSFER_DATA_OVERHEAD",
      "outputs": [
        {
          "internalType": "uint256",
          "name": "",
          "type": "uint256"
        }
      ],
      "stateMutability": "view",
      "type": "function"
    }
  ],
  "bytecode": "0x6080806040523460195761015b908161001f823930815050f35b600080fdfe608080604052600436101561001357600080fd5b60003560e01c9081631ac428f814610110575080633ab8c0d0146100f25780635dd8ee3e146100db57806371953f60146100c55780637498e355146100a75780639713cbbd1461008f5763a5dd87d81461006c57600080fd5b600036600319011261008a57604051630f9d9d5d60e11b8152602090f35b600080fd5b600036600319011261008a57602060405161012c8152f35b600036600319011261008a57604051630181dcf160e41b8152602090f35b600036600319011261008a576020604051818152f35b600036600319011261008a57602060405160028152f35b600036600319011261008a576040516397a657c960e01b8152602090f35b600036600319011261008a5780604060209252f3fea26469706673582212208d1a1d503d33194b6d2ff52bd06a8357197e2dc44dc874ca992fca0b480a062764736f6c634300081e0033",
  "linkReferences": {},
  "deployedLinkReferences": {}
}