{
  "_format": "hh-sol-artifact-1",
  "contractName": "MockUSDC",
  "sourceName": "contracts/MockUSDC.sol",
  "abi": [
    {
      "inputs": [
        {
          "internalType": "string",
          "name": "name",
          "type": "string"
        },
        {
          "internalType": "string",
          "name": "symbol",
          "type": "string"
        },
        {
          "internalType": "uint256",
          "name": "initialSupply",
          "type": "uint256"
        }
      ],
      "stateMutability": "nonpayable",
      "type": "constructor"
    },
    {
      "inputs": [
        {
          "internalType": "address",
          "name": "spender",
          "type": "address"
        },
        {
          "internalType": "uint256",
          "name": "allowance",
          "type": "uint256"
        },
        {
          "internalType": "uint256",
          "name": "needed",
          "type": "uint256"
        }
      ],
      "name": "ERC20InsufficientAllowance",
      "type": "error"
    },
    {
      "inputs": [
        {
          "internalType": "address",
          "name": "sender",
          "type": "address"
        },
        {
          "internalType": "uint256",
          "name": "balance",
          "type": "uint256"
        },
        {
          "internalType": "uint256",
          "name": "needed",
          "type": "uint256"
        }
      ],
      "name": "ERC20InsufficientBalance",
      "type": "error"
    },
    {
      "inputs": [
        {
          "internalType": "address",
          "name": "approver",
          "type": "address"
        }
      ],
      "name": "ERC20InvalidApprover",
      "type": "error"
    },
    {
      "inputs": [
        {
          "internalType": "address",
          "name": "receiver",
          "type": "address"
        }
      ],
      "name": "ERC20InvalidReceiver",
      "type": "error"
    },
    {
      "inputs": [
        {
          "internalType": "address",
          "name": "sender",
          "type": "address"
        }
      ],
      "name": "ERC20InvalidSender",
      "type": "error"
    },
    {
      "inputs": [
        {
          "internalType": "address",
          "name": "spender",
          "type": "address"
        }
      ],
      "name": "ERC20InvalidSpender",
      "type": "error"
    },
    {
      "anonymous": false,
      "inputs": [
        {
          "indexed": true,
          "internalType": "address",
          "name": "owner",
          "type": "address"
        },
        {
          "indexed": true,
          "internalType": "address",
          "name": "spender",
          "type": "address"
        },
        {
          "indexed": false,
          "internalType": "uint256",
          "name": "value",
          "type": "uint256"
        }
      ],
      "name": "Approval",
      "type": "event"
    },
    {
      "anonymous": false,
      "inputs": [
        {
          "indexed": true,
          "internalType": "address",
          "name": "from",
          "type": "address"
        },
        {
          "indexed": true,
          "internalType": "address",
          "name": "to",
          "type": "address"
        },
        {
          "indexed": false,
          "internalType": "uint256",
          "name": "value",
          "type": "uint256"
        }
      ],
      "name": "Transfer",
      "type": "event"
    },
    {
      "inputs": [
        {
          "internalType": "address",
          "name": "owner",
          "type": "address"
        },
        {
          "internalType": "address",
          "name": "spender",
          "type": "address"
        }
      ],
      "name": "allowance",
      "outputs": [
        {
          "internalType": "uint256",
          "name": "",
          "type": "uint256"
        }
      ],
      "stateMutability": "view",
      "type": "function"
    },
    {
      "inputs": [
        {
          "internalType": "address",
          "name": "spender",
          "type": "address"
        },
        {
          "internalType": "uint256",
          "name": "value",
          "type": "uint256"
        }
      ],
      "name": "approve",
      "outputs": [
        {
          "internalType": "bool",
          "name": "",
          "type": "bool"
        }
      ],
      "stateMutability": "nonpayable",
      "type": "function"
    },
    {
      "inputs": [
        {
          "internalType": "address",
          "name": "account",
          "type": "address"
        }
      ],
      "name": "balanceOf",
      "outputs": [
        {
          "internalType": "uint256",
          "name": "",
          "type": "uint256"
        }
      ],
      "stateMutability": "view",
      "type": "function"
    },
    {
      "inputs": [
        {
          "internalType": "uint256",
          "name": "amount",
          "type": "uint256"
        }
      ],
      "name": "burn",
      "outputs": [],
      "stateMutability": "nonpayable",
      "type": "function"
    },
    {
      "inputs": [],
      "name": "decimals",
      "outputs": [
        {
          "internalType": "uint8",
          "name": "",
          "type": "uint8"
        }
      ],
      "stateMutability": "view",
      "type": "function"
    },
    {
      "inputs": [
        {
          "internalType": "address",
          "name": "to",
          "type": "address"
        },
        {
          "internalType": "uint256",
          "name": "amount",
          "type": "uint256"
        }
      ],
      "name": "mint",
      "outputs": [],
      "stateMutability": "nonpayable",
      "type": "function"
    },
    {
      "inputs": [],
      "name": "name",
      "outputs": [
        {
          "internalType": "string",
          "name": "",
          "type": "string"
        }
      ],
      "stateMutability": "view",
      "type": "function"
    },
    {
      "inputs": [],
      "name": "symbol",
      "outputs": [
        {
          "internalType": "string",
          "name": "",
          "type": "string"
        }
      ],
      "stateMutability": "view",
      "type": "function"
    },
    {
      "inputs": [],
      "name": "totalSupply",
      "outputs": [
        {
          "internalType": "uint256",
          "name": "",
          "type": "uint256"
        }
      ],
      "stateMutability": "view",
      "type": "function"
    },
    {
      "inputs": [
        {
          "internalType": "address",
          "name": "to",
          "type": "address"
        },
        {
          "internalType": "uint256",
          "name": "value",
          "type": "uint256"
        }
      ],
      "name": "transfer",
      "outputs": [
        {
          "internalType": "bool",
          "name": "",
          "type": "bool"
        }
      ],
      "stateMutability": "nonpayable",
      "type": "function"
    },
    {
      "inputs": [
        {
          "internalType": "address",
          "name": "from",
          "type": "address"
        },
        {
          "internalType": "address",
          "name": "to",
          "type": "address"
        },
        {
          "internalType": "uint256",
          "name": "value",
          "type": "uint256"
        }
      ],
      "name": "transferFrom",
      "outputs": [
        {
          "internalType": "bool",
          "name": "",
          "type": "bool"
        }
      ],
      "stateMutability": "nonpayable",
      "type": "function"
    }
  ],
  "bytecode": "0x6080604052346103df576000610c708038038061001b816103e4565b9283398101916060828403126103dc5781516001600160401b0381116103da578361004791840161041f565b60208301519093906001600160401b0381116103d65760409161006b91850161041f565b92015183519091906001600160401b0381116102e657600354600181811c911680156103cc575b60208210146102c857601f8111610369575b50602094601f82116001146103055794829394958293926102fa575b50508160011b916000199060031b1c1916176003555b82516001600160401b0381116102e657600454600181811c911680156102dc575b60208210146102c857601f8111610265575b506020601f8211600114610202578293948293926101f7575b50508160011b916000199060031b1c1916176004555b601260ff19600554161760055550670de0b6b3a7640000810290808204670de0b6b3a764000014901517156101cb5733156101e1576002548181018091116101cb57600255600033815280602052604081208281540190556040519182527fddf252ad1be2c89b69c2b068fc378daa952ba7f163c4a11628f55a4df523b3ef60203393a36040516107e5908161048b8239f35b634e487b7160e01b600052601160045260246000fd5b63ec442f0560e01b600052600060045260246000fd5b015190503880610122565b6004835280832090601f198316845b81811061024d57509583600195969710610234575b505050811b01600455610138565b015160001960f88460031b161c19169055388080610226565b9192602060018192868b015181550194019201610211565b600483527f8a35acfbc15ff81a39ae7d344fd709f28e8600b4aa8c65c6b64bfe7fe36bd19b601f830160051c810191602084106102be575b601f0160051c01905b8181106102b35750610109565b8381556001016102a6565b909150819061029d565b634e487b7160e01b83526022600452602483fd5b90607f16906100f7565b634e487b7160e01b82526041600452602482fd5b0151905038806100c0565b601f198216956003845280842091845b88811061035157508360019596979810610338575b505050811b016003556100d6565b015160001960f88460031b161c1916905538808061032a565b91926020600181928685015181550194019201610315565b600383527fc2575a0e9e593c00f959f8c92f12db2869c3395a3b0502d05e2516446f71f85b601f830160051c810191602084106103c2575b601f0160051c01905b8181106103b757506100a4565b8381556001016103aa565b90915081906103a1565b90607f1690610092565b8280fd5b505b80fd5b600080fd5b6040519190601f01601f191682016001600160401b0381118382101761040957604052565b634e487b7160e01b600052604160045260246000fd5b81601f820112156103df578051906001600160401b0382116104095761044e601f8301601f19166020016103e4565b92828452602083830101116103df5760005b82811061047557505060206000918301015290565b8060208092840101518282870101520161046056fe608080604052600436101561001357600080fd5b60003560e01c90816306fdde03146105aa57508063095ea7b31461052457806318160ddd1461050657806323b872dd14610419578063313ce567146103f857806340c10f191461033657806342966c681461027a57806370a082311461024057806395d89b411461011f578063a9059cbb146100ee5763dd62ed3e1461009857600080fd5b346100e95760403660031901126100e9576100b16106c6565b6100b96106dc565b6001600160a01b039182166000908152600160209081526040808320949093168252928352819020549051908152f35b600080fd5b346100e95760403660031901126100e95761011461010a6106c6565b6024359033610716565b602060405160018152f35b346100e95760003660031901126100e95760405160006004548060011c90600181168015610236575b6020831081146102225782855290811561020657506001146101af575b50819003601f01601f191681019067ffffffffffffffff821181831017610199576101958291826040528261067d565b0390f35b634e487b7160e01b600052604160045260246000fd5b905060046000527f8a35acfbc15ff81a39ae7d344fd709f28e8600b4aa8c65c6b64bfe7fe36bd19b6000905b8282106101f057506020915082010182610165565b60018160209254838588010152019101906101db565b90506020925060ff191682840152151560051b82010182610165565b634e487b7160e01b84526022600452602484fd5b91607f1691610148565b346100e95760203660031901126100e9576001600160a01b036102616106c6565b1660005260006020526020604060002054604051908152f35b346100e95760203660031901126100e9576102a461029c60ff600554166106f2565b600435610703565b331561032057600033815280602052604081205491808310610307578082933384528360205203604083205580600254036002556040519081527fddf252ad1be2c89b69c2b068fc378daa952ba7f163c4a11628f55a4df523b3ef60203392a380f35b60649263391434e360e21b835233600452602452604452fd5b634b637e8f60e11b600052600060045260246000fd5b346100e95760403660031901126100e95761034f6106c6565b61036861036060ff600554166106f2565b602435610703565b906001600160a01b031680156103e257600254918083018093116103cc576020926002557fddf252ad1be2c89b69c2b068fc378daa952ba7f163c4a11628f55a4df523b3ef600093849284845283825260408420818154019055604051908152a380f35b634e487b7160e01b600052601160045260246000fd5b63ec442f0560e01b600052600060045260246000fd5b346100e95760003660031901126100e957602060ff60055416604051908152f35b346100e95760603660031901126100e9576104326106c6565b61043a6106dc565b6001600160a01b038216600081815260016020908152604080832033845290915290205490926044359291600019811061047a575b506101149350610716565b8381106104e95784156104d35733156104bd57610114946000526001602052604060002060018060a01b033316600052602052836040600020910390558461046f565b634a1406b160e11b600052600060045260246000fd5b63e602df0560e01b600052600060045260246000fd5b8390637dc7a0d960e11b6000523360045260245260445260646000fd5b346100e95760003660031901126100e9576020600254604051908152f35b346100e95760403660031901126100e95761053d6106c6565b6024359033156104d3576001600160a01b03169081156104bd57336000526001602052604060002082600052602052806040600020556040519081527f8c5be1e5ebec7d5bd14f71427d1e84f3dd0314c0f7b2291e5b200ac8c7c3b92560203392a3602060405160018152f35b346100e95760003660031901126100e95760006003548060011c90600181168015610673575b60208310811461022257828552908115610206575060011461061c5750819003601f01601f191681019067ffffffffffffffff821181831017610199576101958291826040528261067d565b905060036000527fc2575a0e9e593c00f959f8c92f12db2869c3395a3b0502d05e2516446f71f85b6000905b82821061065d57506020915082010182610165565b6001816020925483858801015201910190610648565b91607f16916105d0565b91909160208152825180602083015260005b8181106106b0575060409293506000838284010152601f8019910116010190565b806020809287010151604082860101520161068f565b600435906001600160a01b03821682036100e957565b602435906001600160a01b03821682036100e957565b60ff16604d81116103cc57600a0a90565b818102929181159184041417156103cc57565b6001600160a01b0316908115610320576001600160a01b03169182156103e25760008281528060205260408120548281106107955791604082827fddf252ad1be2c89b69c2b068fc378daa952ba7f163c4a11628f55a4df523b3ef958760209652828652038282205586815280845220818154019055604051908152a3565b916064928463391434e360e21b8452600452602452604452fdfea2646970667358221220bb47fe4b147594d5f3d15395573e7ff572ce43c5ebf3f31195cf1880f22c5e6b64736f6c634300081e0033",
  "linkReferences": {},
  "deployedLinkReferences": {}
}