{
  "_format": "hh-sol-artifact-1",
  "contractName": "MockUSDC",
  "sourceName": "contracts/MockUSDC.sol",
  "abi": [
    {
      "inputs": [
        {
          "internalType": "string",
          "name": "name",
          "type": "string"
        },
        {
          "internalType": "string",
          "name": "symbol",
          "type": "string"
        },
        {
          "internalType": "uint256",
          "name": "initialSupply",
          "type": "uint256"
        }
      ],
      "stateMutability": "nonpayable",
      "type": "constructor"
    },
    {
      "inputs": [
        {
          "internalType": "address",
          "name": "spender",
          "type": "address"
        },
        {
          "internalType": "uint256",
          "name": "allowance",
          "type": "uint256"
        },
        {
          "internalType": "uint256",
          "name": "needed",
          "type": "uint256"
        }
      ],
      "name": "ERC20InsufficientAllowance",
      "type": "error"
    },
    {
      "inputs": [
        {
          "internalType": "address",
          "name": "sender",
          "type": "address"
        },
        {
          "internalType": "uint256",
          "name": "balance",
          "type": "uint256"
        },
        {
          "internalType": "uint256",
          "name": "needed",
          "type": "uint256"
        }
      ],
      "name": "ERC20InsufficientBalance",
      "type": "error"
    },
    {
      "inputs": [
        {
          "internalType": "address",
          "name": "approver",
          "type": "address"
        }
      ],
      "name": "ERC20InvalidApprover",
      "type": "error"
    },
    {
      "inputs": [
        {
          "internalType": "address",
          "name": "receiver",
          "type": "address"
        }
      ],
      "name": "ERC20InvalidReceiver",
      "type": "error"
    },
    {
      "inputs": [
        {
          "internalType": "address",
          "name": "sender",
          "type": "address"
        }
      ],
      "name": "ERC20InvalidSender",
      "type": "error"
    },
    {
      "inputs": [
        {
          "internalType": "address",
          "name": "spender",
          "type": "address"
        }
      ],
      "name": "ERC20InvalidSpender",
      "type": "error"
    },
    {
      "anonymous": false,
      "inputs": [
        {
          "indexed": true,
          "internalType": "address",
          "name": "owner",
          "type": "address"
        },
        {
          "indexed": true,
          "internalType": "address",
          "name": "spender",
          "type": "address"
        },
        {
          "indexed": false,
          "internalType": "uint256",
          "name": "value",
          "type": "uint256"
        }
      ],
      "name": "Approval",
      "type": "event"
    },
    {
      "anonymous": false,
      "inputs": [
        {
          "indexed": true,
          "internalType": "address",
          "name": "from",
          "type": "address"
        },
        {
          "indexed": true,
          "internalType": "address",
          "name": "to",
          "type": "address"
        },
        {
          "indexed": false,
          "internalType": "uint256",
          "name": "value",
          "type": "uint256"
        }
      ],
      "name": "Transfer",
      "type": "event"
    },
    {
      "inputs": [
        {
          "internalType": "address",
          "name": "owner",
          "type": "address"
        },
        {
          "internalType": "address",
          "name": "spender",
          "type": "address"
        }
      ],
      "name": "allowance",
      "outputs": [
        {
          "internalType": "uint256",
          "name": "",
          "type": "uint256"
        }
      ],
      "stateMutability": "view",
      "type": "function"
    },
    {
      "inputs": [
        {
          "internalType": "address",
          "name": "spender",
          "type": "address"
        },
        {
          "internalType": "uint256",
          "name": "value",
          "type": "uint256"
        }
      ],
      "name": "approve",
      "outputs": [
        {
          "internalType": "bool",
          "name": "",
          "type": "bool"
        }
      ],
      "stateMutability": "nonpayable",
      "type": "function"
    },
    {
      "inputs": [
        {
          "internalType": "address",
          "name": "account",
          "type": "address"
        }
      ],
      "name": "balanceOf",
      "outputs": [
        {
          "internalType": "uint256",
          "name": "",
          "type": "uint256"
        }
      ],
      "stateMutability": "view",
      "type": "function"
    },
    {
      "inputs": [
        {
          "internalType": "uint256",
          "name": "amount",
          "type": "uint256"
        }
      ],
      "name": "burn",
      "outputs": [],
      "stateMutability": "nonpayable",
      "type": "function"
    },
    {
      "inputs": [],
      "name": "decimals",
      "outputs": [
        {
          "internalType": "uint8",
          "name": "",
          "type": "uint8"
        }
      ],
      "stateMutability": "view",
      "type": "function"
    },
    {
      "inputs": [
        {
          "internalType": "address",
          "name": "to",
          "type": "address"
        },
        {
          "internalType": "uint256",
          "name": "amount",
          "type": "uint256"
        }
      ],
      "name": "mint",
      "outputs": [],
      "stateMutability": "nonpayable",
      "type": "function"
    },
    {
      "inputs": [],
      "name": "name",
      "outputs": [
        {
          "internalType": "string",
          "name": "",
          "type": "string"
        }
      ],
      "stateMutability": "view",
      "type": "function"
    },
    {
      "inputs": [],
      "name": "symbol",
      "outputs": [
        {
          "internalType": "string",
          "name": "",
          "type": "string"
        }
      ],
      "stateMutability": "view",
      "type": "function"
    },
    {
      "inputs": [],
      "name": "totalSupply",
      "outputs": [
        {
          "internalType": "uint256",
          "name": "",
          "type": "uint256"
        }
      ],
      "stateMutability": "view",
      "type": "function"
    },
    {
      "inputs": [
        {
          "internalType": "address",
          "name": "to",
          "type": "address"
        },
        {
          "internalType": "uint256",
          "name": "value",
          "type": "uint256"
        }
      ],
      "name": "transfer",
      "outputs": [
        {
          "internalType": "bool",
          "name": "",
          "type": "bool"
        }
      ],
      "stateMutability": "nonpayable",
      "type": "function"
    },
    {
      "inputs": [
        {
          "internalType": "address",
          "name": "from",
          "type": "address"
        },
        {
          "internalType": "address",
          "name": "to",
          "type": "address"
        },
        {
          "internalType": "uint256",
          "name": "value",
          "type": "uint256"
        }
      ],
      "name": "transferFrom",
      "outputs": [
        {
          "internalType": "bool",
          "name": "",
          "type": "bool"
        }
      ],
      "stateMutability": "nonpayable",
      "type": "function"
    }
  ],
  "bytecode": "0x608060405234801561001057600080fd5b50604051611d82380380611d8283398181016040528101906100329190610508565b8282816003908161004391906107aa565b50806004908161005391906107aa565b5050506012600560006101000a81548160ff021916908360ff1602179055506100a833600560009054906101000a900460ff16600a61009291906109eb565b8361009d9190610a36565b6100b060201b60201c565b505050610b69565b600073ffffffffffffffffffffffffffffffffffffffff168273ffffffffffffffffffffffffffffffffffffffff16036101225760006040517fec442f050000000000000000000000000000000000000000000000000000000081526004016101199190610ab9565b60405180910390fd5b6101346000838361013860201b60201c565b5050565b600073ffffffffffffffffffffffffffffffffffffffff168373ffffffffffffffffffffffffffffffffffffffff160361018a57806002600082825461017e9190610ad4565b9250508190555061025d565b60008060008573ffffffffffffffffffffffffffffffffffffffff1673ffffffffffffffffffffffffffffffffffffffff16815260200190815260200160002054905081811015610216578381836040517fe450d38c00000000000000000000000000000000000000000000000000000000815260040161020d93929190610b17565b60405180910390fd5b8181036000808673ffffffffffffffffffffffffffffffffffffffff1673ffffffffffffffffffffffffffffffffffffffff16815260200190815260200160002081905550505b600073ffffffffffffffffffffffffffffffffffffffff168273ffffffffffffffffffffffffffffffffffffffff16036102a657806002600082825403925050819055506102f3565b806000808473ffffffffffffffffffffffffffffffffffffffff1673ffffffffffffffffffffffffffffffffffffffff168152602001908152602001600020600082825401925050819055505b8173ffffffffffffffffffffffffffffffffffffffff168373ffffffffffffffffffffffffffffffffffffffff167fddf252ad1be2c89b69c2b068fc378daa952ba7f163c4a11628f55a4df523b3ef836040516103509190610b4e565b60405180910390a3505050565b6000604051905090565b600080fd5b600080fd5b600080fd5b600080fd5b6000601f19601f8301169050919050565b7f4e487b7100000000000000000000000000000000000000000000000000000000600052604160045260246000fd5b6103c48261037b565b810181811067ffffffffffffffff821117156103e3576103e261038c565b5b80604052505050565b60006103f661035d565b905061040282826103bb565b919050565b600067ffffffffffffffff8211156104225761042161038c565b5b61042b8261037b565b9050602081019050919050565b60005b8381101561045657808201518184015260208101905061043b565b60008484015250505050565b600061047561047084610407565b6103ec565b90508281526020810184848401111561049157610490610376565b5b61049c848285610438565b509392505050565b600082601f8301126104b9576104b8610371565b5b81516104c9848260208601610462565b91505092915050565b6000819050919050565b6104e5816104d2565b81146104f057600080fd5b50565b600081519050610502816104dc565b92915050565b60008060006060848603121561052157610520610367565b5b600084015167ffffffffffffffff81111561053f5761053e61036c565b5b61054b868287016104a4565b935050602084015167ffffffffffffffff81111561056c5761056b61036c565b5b610578868287016104a4565b9250506040610589868287016104f3565b9150509250925092565b600081519050919050565b7f4e487b7100000000000000000000000000000000000000000000000000000000600052602260045260246000fd5b600060028204905060018216806105e557607f821691505b6020821081036105f8576105f761059e565b5b50919050565b60008190508160005260206000209050919050565b60006020601f8301049050919050565b600082821b905092915050565b6000600883026106607fffffffffffffffffffffffffffffffffffffffffffffffffffffffffffffffff82610623565b61066a8683610623565b95508019841693508086168417925050509392505050565b6000819050919050565b60006106a76106a261069d846104d2565b610682565b6104d2565b9050919050565b6000819050919050565b6106c18361068c565b6106d56106cd826106ae565b848454610630565b825550505050565b600090565b6106ea6106dd565b6106f58184846106b8565b505050565b5b818110156107195761070e6000826106e2565b6001810190506106fb565b5050565b601f82111561075e5761072f816105fe565b61073884610613565b81016020851015610747578190505b61075b61075385610613565b8301826106fa565b50505b505050565b600082821c905092915050565b600061078160001984600802610763565b1980831691505092915050565b600061079a8383610770565b9150826002028217905092915050565b6107b382610593565b67ffffffffffffffff8111156107cc576107cb61038c565b5b6107d682546105cd565b6107e182828561071d565b600060209050601f8311600181146108145760008415610802578287015190505b61080c858261078e565b865550610874565b601f198416610822866105fe565b60005b8281101561084a57848901518255600182019150602085019450602081019050610825565b868310156108675784890151610863601f891682610770565b8355505b6001600288020188555050505b505050505050565b7f4e487b7100000000000000000000000000000000000000000000000000000000600052601160045260246000fd5b60008160011c9050919050565b6000808291508390505b6001851115610902578086048111156108de576108dd61087c565b5b60018516156108ed5780820291505b80810290506108fb856108ab565b94506108c2565b94509492505050565b60008261091b57600190506109d7565b8161092957600090506109d7565b816001811461093f576002811461094957610978565b60019150506109d7565b60ff84111561095b5761095a61087c565b5b8360020a9150848211156109725761097161087c565b5b506109d7565b5060208310610133831016604e8410600b84101617156109ad5782820a9050838111156109a8576109a761087c565b5b6109d7565b6109ba84848460016108b8565b925090508184048111156109d1576109d061087c565b5b81810290505b9392505050565b600060ff82169050919050565b60006109f6826104d2565b9150610a01836109de565b9250610a2e7fffffffffffffffffffffffffffffffffffffffffffffffffffffffffffffffff848461090b565b905092915050565b6000610a41826104d2565b9150610a4c836104d2565b9250828202610a5a816104d2565b91508282048414831517610a7157610a7061087c565b5b5092915050565b600073ffffffffffffffffffffffffffffffffffffffff82169050919050565b6000610aa382610a78565b9050919050565b610ab381610a98565b82525050565b6000602082019050610ace6000830184610aaa565b92915050565b6000610adf826104d2565b9150610aea836104d2565b9250828201905080821115610b0257610b0161087c565b5b92915050565b610b11816104d2565b82525050565b6000606082019050610b2c6000830186610aaa565b610b396020830185610b08565b610b466040830184610b08565b949350505050565b6000602082019050610b636000830184610b08565b92915050565b61120a80610b786000396000f3fe608060405234801561001057600080fd5b50600436106100a95760003560e01c806340c10f191161007157806340c10f191461016857806342966c681461018457806370a08231146101a057806395d89b41146101d0578063a9059cbb146101ee578063dd62ed3e1461021e576100a9565b806306fdde03146100ae578063095ea7b3146100cc57806318160ddd146100fc57806323b872dd1461011a578063313ce5671461014a575b600080fd5b6100b661024e565b6040516100c39190610c71565b60405180910390f35b6100e660048036038101906100e19190610d2c565b6102e0565b6040516100f39190610d87565b60405180910390f35b610104610303565b6040516101119190610db1565b60405180910390f35b610134600480360381019061012f9190610dcc565b61030d565b6040516101419190610d87565b60405180910390f35b61015261033c565b60405161015f9190610e3b565b60405180910390f35b610182600480360381019061017d9190610d2c565b610353565b005b61019e60048036038101906101999190610e56565b610387565b005b6101ba60048036038101906101b59190610e83565b6103ba565b6040516101c79190610db1565b60405180910390f35b6101d8610402565b6040516101e59190610c71565b60405180910390f35b61020860048036038101906102039190610d2c565b610494565b6040516102159190610d87565b60405180910390f35b61023860048036038101906102339190610eb0565b6104b7565b6040516102459190610db1565b60405180910390f35b60606003805461025d90610f1f565b80601f016020809104026020016040519081016040528092919081815260200182805461028990610f1f565b80156102d65780601f106102ab576101008083540402835291602001916102d6565b820191906000526020600020905b8154815290600101906020018083116102b957829003601f168201915b5050505050905090565b6000806102eb61053e565b90506102f8818585610546565b600191505092915050565b6000600254905090565b60008061031861053e565b9050610325858285610558565b6103308585856105ed565b60019150509392505050565b6000600560009054906101000a900460ff16905090565b61038382600560009054906101000a900460ff16600a61037391906110b2565b8361037e91906110fd565b6106e1565b5050565b6103b733600560009054906101000a900460ff16600a6103a791906110b2565b836103b291906110fd565b610763565b50565b60008060008373ffffffffffffffffffffffffffffffffffffffff1673ffffffffffffffffffffffffffffffffffffffff168152602001908152602001600020549050919050565b60606004805461041190610f1f565b80601f016020809104026020016040519081016040528092919081815260200182805461043d90610f1f565b801561048a5780601f1061045f5761010080835404028352916020019161048a565b820191906000526020600020905b81548152906001019060200180831161046d57829003601f168201915b5050505050905090565b60008061049f61053e565b90506104ac8185856105ed565b600191505092915050565b6000600160008473ffffffffffffffffffffffffffffffffffffffff1673ffffffffffffffffffffffffffffffffffffffff16815260200190815260200160002060008373ffffffffffffffffffffffffffffffffffffffff1673ffffffffffffffffffffffffffffffffffffffff16815260200190815260200160002054905092915050565b600033905090565b61055383838360016107e5565b505050565b600061056484846104b7565b90507fffffffffffffffffffffffffffffffffffffffffffffffffffffffffffffffff8110156105e757818110156105d7578281836040517ffb8f41b20000000000000000000000000000000000000000000000000000000081526004016105ce9392919061114e565b60405180910390fd5b6105e6848484840360006107e5565b5b50505050565b600073ffffffffffffffffffffffffffffffffffffffff168373ffffffffffffffffffffffffffffffffffffffff160361065f5760006040517f96c6fd1e0000000000000000000000000000000000000000000000000000000081526004016106569190611185565b60405180910390fd5b600073ffffffffffffffffffffffffffffffffffffffff168273ffffffffffffffffffffffffffffffffffffffff16036106d15760006040517fec442f050000000000000000000000000000000000000000000000000000000081526004016106c89190611185565b60405180910390fd5b6106dc8383836109bc565b505050565b600073ffffffffffffffffffffffffffffffffffffffff168273ffffffffffffffffffffffffffffffffffffffff16036107535760006040517fec442f0500000000000000000000000000000000000000000000000000000000815260040161074a9190611185565b60405180910390fd5b61075f600083836109bc565b5050565b600073ffffffffffffffffffffffffffffffffffffffff168273ffffffffffffffffffffffffffffffffffffffff16036107d55760006040517f96c6fd1e0000000000000000000000000000000000000000000000000000000081526004016107cc9190611185565b60405180910390fd5b6107e1826000836109bc565b5050565b600073ffffffffffffffffffffffffffffffffffffffff168473ffffffffffffffffffffffffffffffffffffffff16036108575760006040517fe602df0500000000000000000000000000000000000000000000000000000000815260040161084e9190611185565b60405180910390fd5b600073ffffffffffffffffffffffffffffffffffffffff168373ffffffffffffffffffffffffffffffffffffffff16036108c95760006040517f94280d620000000000000000000000000000000000000000000000000000000081526004016108c09190611185565b60405180910390fd5b81600160008673ffffffffffffffffffffffffffffffffffffffff1673ffffffffffffffffffffffffffffffffffffffff16815260200190815260200160002060008573ffffffffffffffffffffffffffffffffffffffff1673ffffffffffffffffffffffffffffffffffffffff1681526020019081526020016000208190555080156109b6578273ffffffffffffffffffffffffffffffffffffffff168473ffffffffffffffffffffffffffffffffffffffff167f8c5be1e5ebec7d5bd14f71427d1e84f3dd0314c0f7b2291e5b200ac8c7c3b925846040516109ad9190610db1565b60405180910390a35b50505050565b600073ffffffffffffffffffffffffffffffffffffffff168373ffffffffffffffffffffffffffffffffffffffff1603610a0e578060026000828254610a0291906111a0565b92505081905550610ae1565b60008060008573ffffffffffffffffffffffffffffffffffffffff1673ffffffffffffffffffffffffffffffffffffffff16815260200190815260200160002054905081811015610a9a578381836040517fe450d38c000000000000000000000000000000000000000000000000000000008152600401610a919392919061114e565b60405180910390fd5b8181036000808673ffffffffffffffffffffffffffffffffffffffff1673ffffffffffffffffffffffffffffffffffffffff16815260200190815260200160002081905550505b600073ffffffffffffffffffffffffffffffffffffffff168273ffffffffffffffffffffffffffffffffffffffff1603610b2a5780600260008282540392505081905550610b77565b806000808473ffffffffffffffffffffffffffffffffffffffff1673ffffffffffffffffffffffffffffffffffffffff168152602001908152602001600020600082825401925050819055505b8173ffffffffffffffffffffffffffffffffffffffff168373ffffffffffffffffffffffffffffffffffffffff167fddf252ad1be2c89b69c2b068fc378daa952ba7f163c4a11628f55a4df523b3ef83604051610bd49190610db1565b60405180910390a3505050565b600081519050919050565b600082825260208201905092915050565b60005b83811015610c1b578082015181840152602081019050610c00565b60008484015250505050565b6000601f19601f8301169050919050565b6000610c4382610be1565b610c4d8185610bec565b9350610c5d818560208601610bfd565b610c6681610c27565b840191505092915050565b60006020820190508181036000830152610c8b8184610c38565b905092915050565b600080fd5b600073ffffffffffffffffffffffffffffffffffffffff82169050919050565b6000610cc382610c98565b9050919050565b610cd381610cb8565b8114610cde57600080fd5b50565b600081359050610cf081610cca565b92915050565b6000819050919050565b610d0981610cf6565b8114610d1457600080fd5b50565b600081359050610d2681610d00565b92915050565b60008060408385031215610d4357610d42610c93565b5b6000610d5185828601610ce1565b9250506020610d6285828601610d17565b9150509250929050565b60008115159050919050565b610d8181610d6c565b82525050565b6000602082019050610d9c6000830184610d78565b92915050565b610dab81610cf6565b82525050565b6000602082019050610dc66000830184610da2565b92915050565b600080600060608486031215610de557610de4610c93565b5b6000610df386828701610ce1565b9350506020610e0486828701610ce1565b9250506040610e1586828701610d17565b9150509250925092565b600060ff82169050919050565b610e3581610e1f565b82525050565b6000602082019050610e506000830184610e2c565b92915050565b600060208284031215610e6c57610e6b610c93565b5b6000610e7a84828501610d17565b91505092915050565b600060208284031215610e9957610e98610c93565b5b6000610ea784828501610ce1565b91505092915050565b60008060408385031215610ec757610ec6610c93565b5b6000610ed585828601610ce1565b9250506020610ee685828601610ce1565b9150509250929050565b7f4e487b7100000000000000000000000000000000000000000000000000000000600052602260045260246000fd5b60006002820490506001821680610f3757607f821691505b602082108103610f4a57610f49610ef0565b5b50919050565b7f4e487b7100000000000000000000000000000000000000000000000000000000600052601160045260246000fd5b60008160011c9050919050565b6000808291508390505b6001851115610fd657808604811115610fb257610fb1610f50565b5b6001851615610fc15780820291505b8081029050610fcf85610f7f565b9450610f96565b94509492505050565b600082610fef57600190506110ab565b81610ffd57600090506110ab565b8160018114611013576002811461101d5761104c565b60019150506110ab565b60ff84111561102f5761102e610f50565b5b8360020a91508482111561104657611045610f50565b5b506110ab565b5060208310610133831016604e8410600b84101617156110815782820a90508381111561107c5761107b610f50565b5b6110ab565b61108e8484846001610f8c565b925090508184048111156110a5576110a4610f50565b5b81810290505b9392505050565b60006110bd82610cf6565b91506110c883610e1f565b92506110f57fffffffffffffffffffffffffffffffffffffffffffffffffffffffffffffffff8484610fdf565b905092915050565b600061110882610cf6565b915061111383610cf6565b925082820261112181610cf6565b9150828204841483151761113857611137610f50565b5b5092915050565b61114881610cb8565b82525050565b6000606082019050611163600083018661113f565b6111706020830185610da2565b61117d6040830184610da2565b949350505050565b600060208201905061119a600083018461113f565b92915050565b60006111ab82610cf6565b91506111b683610cf6565b92508282019050808211156111ce576111cd610f50565b5b9291505056fea264697066735822122059114bd6fc390e3ed1b91636b51c332b0488cedfd337e37c2f2053595ed08c7564736f6c634300081e0033",
  "linkReferences": {},
  "deployedLinkReferences": {}
}